S01900006F70656E626C745F73746D3332683734332E73726563F9
S3150800000000000824110C0008FD0B0008FF0B00086F
S31508000010010C0008030C0008050C0008000000008D
S31508000020000000000000000000000000070C0008A7
S31508000030090C0008000000000B0C00080D0C000855
S31508000040A50C0008A50C0008A50C0008A50C0008BE
S31508000050A50C0008A50C0008A50C0008A50C0008AE
S31508000060A50C0008A50C0008A50C0008A50C00089E
S31508000070A50C0008A50C0008A50C0008A50C00088E
S31508000080A50C0008A50C0008A50C0008A50C00087E
S31508000090A50C0008A50C0008A50C0008A50C00086E
S315080000A0A50C0008A50C0008A50C0008A50C00085E
S315080000B0A50C0008A50C0008A50C0008A50C00084E
S315080000C0A50C0008A50C0008A50C0008A50C00083E
S315080000D0A50C0008A50C0008A50C0008A50C00082E
S315080000E0A50C0008A50C0008A50C0008A50C00081E
S315080000F0A50C0008A50C0008A50C0008A50C00080E
S31508000100A50C0008A50C0008A50C0008A50C0008FD
S31508000110A50C0008A50C0008A50C0008A50C0008ED
S31508000120A50C0008A50C0008A50C0008A50C0008DD
S31508000130A50C00080000000000000000A50C00083F
S31508000140A50C0008A50C0008A50C0008A50C0008BD
S31508000150A50C0008A50C0008A50C0008A50C0008AD
S31508000160A50C0008A50C0008A50C0008A50C00089D
S31508000170A50C0008A50C0008A50C0008A50C00088D
S31508000180A50C0008A50C0008A50C0008A50C00087D
S31508000190A50C0008A50C0008A50C0008A50C00086D
S315080001A0A50C0008A50C0008A50C0008A50C00085D
S315080001B0A50C0008A50C0008A50C0008A50C00084D
S315080001C0A50C0008A50C00080000000000000000AF
S315080001D00000000000000000A50C00080000000058
S315080001E00000000000000000000000000000000001
S315080001F00000000000000000A50C0008A50C00087F
S31508000200A50C0008A50C000800000000A50C0008B5
S31508000210A50C0008A50C0008A50C0008A50C0008EC
S31508000220A50C0008A50C0008A50C00080000000095
S31508000230A50C0008A50C000800000000A50C000885
S31508000240A50C0008A50C0008A50C0008A50C0008BC
S31508000250A50C0008A50C0008A50C0008A50C0008AC
S31508000260A50C0008A50C0008A50C0008A50C00089C
S31508000270A50C0008A50C0008A50C00080000000045
S31508000280A50C0008A50C000800000000A50C000835
S3150800029000000000A50C0008A50C0008A50C000825
S311080002A0A50C0008A50C0008A50C000819
S315080002AC10B5054C237833B9044B13B10448AFF396
S315080002BC00800123237010BDC80000240000000034
S315080002CC584B000808B5034B1BB103490348AFF359
S315080002DC008008BD00000000CC000024584B000824
S315080002EC04F036B804F043B808B5054B1B699B04F3
S315080002FC03D400F039F8012008BD0020FCE700BF44
S3150800030C00080258642000F005B800F009B87047D8
S3150800031C70477047014B1880704700BFE4000024F3
S3150800032C10B50D4C03F054FA236898420ED30B4BB8
S3150800033C0B4A197859B9012119704FF40063936166
S3150800034C03F046FA074B1B881844206010BD0021A1
S3150800035C19704FF00063F2E7E8000024E600002469
S3150800036C00180258E4000024024B4FF400029A616C
S3150800037C704700BF00040258064B82B0D3F84021E0
S3150800038C0243C3F84021D3F8403118400190019B31
S3150800039C02B070470044025801F003030A0C9B0094
S315080003AC03F1B04303F5806310B59C6824EA114148
S315080003BC92FAA2F2B2FA82F202F01F0290400843B5
S315080003CC986010BD524B4FF0FF3210B5C3F8B020F1
S315080003DC504A136823F00F0343F00703136013689E
S315080003EC03F00F03072BFAD14B4AD36823F03F03CC
S315080003FC43F00403D360936943F440439361444B3D
S3150800040C1A6842F480321A601A689003FCD51A6886
S3150800041C42F480521A603E4B1A689104FCD59A6ACB
S3150800042C22F0030242F002029A62DA6A42F480323D
S3150800043CDA62DA6A22F00C0242F00402DA62DA6A4A
S3150800044C22F00202DA629A6A22F47C7242F0C00244
S3150800045C9A621A6B22F4FF7222F0010242F48B7232
S3150800046C42F001021A631A6B22F47E4242F40072BD
S3150800047C1A631A6B22F4FE0242F400321A631A6BE0
S3150800048C22F0FE4242F040721A631A6842F08072F9
S3150800049C1A601F4B1A689201FCD59A691C4C22F0FB
S315080004AC0F0242F008029A611A6922F0070242F01A
S315080004BC03021A61236903F03803182BFAD1A369CE
S315080004CC164823F00F03A361E36923F0700343F086
S315080004DC4003E361E36923F4E06343F48063E36177
S315080004ECA36923F0700343F04003A361236A23F046
S315080004FC700343F04003236202F06AFF002000F009
S3150800050C61FC236923F0FE7343F40403236110BDD5
S3150800051C0044025800200052004802580076B010D9
S3150800052C2DE9804810248BB000F072FCD44EFFF7EE
S3150800053C49FF22460021684604F000FB18220021D8
S3150800054C0DEB040004F0FAFA4FF48070FFF714FF71
S3150800055C4020FFF711FF4FF48060FFF70DFF0820CE
S3150800056CFFF70AFF0420FFF707FF2046FFF704FFF3
S3150800057C0220FFF701FF4FF40070FFF7FDFE012084
S3150800058CFFF7FAFE2020FFF7F7FE8020FFF7F4FEB0
S3150800059C4FF46023DFF818B34FF00062B3610621FD
S315080005ACB84B4FF0010840F20115DFF80893CBF869
S315080005BC18300327B44BDFF800A39A6108221046BB
S315080005CCCBF818209961B149FFF7E6FE0822B04925
S315080005DC1046FFF7E1FE0822AE491046FFF7DCFE8F
S315080005ECAD490220FFF7D8FE4FF070610720FFF7E0
S315080005FCD3FE009400246846ADF80C508DF80E8096
S3150800060CCDE9014401F0E8FE20216846ADF80C500E
S3150800061C02948DF80E80CDE9001401F0DDFE4FF43E
S3150800062C80736846ADF80C5002948DF80E80CDE9AF
S3150800063C003401F0D1FE4FF400516846ADF80C5069
S3150800064C02948DF80E80CDE9001401F0C5FE042342
S3150800065C6846ADF80C50029402258DF80E80CDE94B
S3150800066C003401F0B9FEF1680C23584621F44071A8
S3150800067CF160F16821F44061F160F16821F44031D0
S3150800068C41F48031F160D9F80C1021F04061C9F8B9
S3150800069C0C10DAF80C1021F03001CAF80C1031687D
S315080006AC21F440713160316821F440613160316860
S315080006BC21F440313160D9F8001021F04061C9F8B5
S315080006CC0010DAF8001021F03001CAF8001048F2D0
S315080006DC331109930894CDE9041504A9CDE90674D8
S315080006EC01F0ECFFFF210E236C4808940993CDE921
S315080006FC041504A9CDE9064401F0E0FF4FF4007196
S3150800070C0923584608940993CDE9041504A9CDE99B
S3150800071C067401F0D3FF80210A23614808940993D3
S3150800072CCDE9041504A9CDE9067401F0C7FF4CF20E
S3150800073C07710C235A4808940993CDE9041504A9A2
S3150800074CCDE9067401F0BAFF4FF4F8510C2348466C
S3150800075C08940993CDE9041504A9CDE9067401F0AA
S3150800076CADFF0E2304A930460894CDE90438CDE92B
S3150800077C064401F0A3FF4FF683710C2349480894ED
S3150800078C0993CDE9041504A9CDE9067401F096FF81
S3150800079C40F60C0158460894CDE9041804A9CDE98D
S315080007AC064401F08BFF4FF6FF710E233E48089462
S315080007BC0993CDE9041504A9CDE9064401F07EFF99
S315080007CC05234FF48051089409932F4BCDE9041552
S315080007DC184604A9CDE9064401F070FF2A4B40F6E9
S315080007EC060108941846CDE9041804A9CDE906446F
S315080007FC01F064FF4FF4C061234B08941846CDE909
S3150800080C04150721099104A9CDE9064401F056FF00
S3150800081C4FF63F010C23254808940993CDE9041596
S3150800082C04A9CDE9067401F049FF4FF4807304A9B5
S3150800083CCDE90435144B1846CDE90644CDE90844F0
S3150800084C01F03CFF402304A958460894CDE9043529
S3150800085C0A23CDE90674099301F030FF4FF470436F
S3150800086C04A930460894CDE904350E23CDE906448F
S3150800087C099301F023FF0C2304A948461EE000BF88
S3150800088C00200258000004080000025801000F005E
S3150800089C0100F00002000F000300F00000280258C7
S315080008AC000C025800100258002402580014025872
S315080008BC0018025800080258001C02580894CDE982
S315080008CC04350523CDE90644099301F0F7FE4FF4E8
S315080008DC405304A91F48CDF82080CDE904350423DC
S315080008ECCDE90648099301F0E9FE222304A94846F6
S315080008FC0894CDE904350A23CDE90674099301F069
S3150800090CDDFEE02304A950460894CDE904350C23F2
S3150800091CCDE90674099301F0D1FE0822092304A92E
S3150800092C504609930894CDE90425CDE9067401F0DF
S3150800093CC5FE042304A908480894CDE904350923FF
S3150800094CCDE90674099301F0B9FEFFF7C9FCFFF768
S3150800095CC9FCFCE7000C025800040258074B82B08D
S3150800096CD3F8542142F00202C3F85421D3F8543177
S3150800097C03F002030193019B02B07047004402582E
S3150800098CF0B58DB004461422002107A804F0D6F859
S3150800099C22684D4B9A4240F094804C4C02254C4AA6
S315080009AC0A26636D07A94B48002743F44013636571
S315080009BCD36843F08073D360D4F8403143F0020314
S315080009CCC4F84031D4F8403103F002030093009B7D
S315080009DCD4F8403143F48073C4F84031D4F840312C
S315080009EC03F480730193019BD4F8403143F004035C
S315080009FCC4F84031D4F8403103F004030293029B47
S31508000A0CD4F8403143F08003C4F84031D4F840316F
S31508000A1C03F080030393039BD4F8403143F001039E
S31508000A2CC4F84031D4F840310A9503F00103049315
S31508000A3C049B43F62343CDE907350B9600F076FC69
S31508000A4C4FF4006307A924480B96CDE90735CDE981
S31508000A5C097500F06BFC012307A920480B96CDE914
S31508000A6C0735CDE9097500F061FC102307A91C4868
S31508000A7C0B96CDE90735CDE9097500F057FC282307
S31508000A8C07A918480B96CDE90735CDE9097500F085
S31508000A9C4DFCD4F8383143F00073C4F83831D4F827
S31508000AAC383103F000730593059BD4F8383143F0BD
S31508000ABC8063C4F83831D4F8383103F08063069370
S31508000ACC069B0DB0F0BD00BF000004400044025860
S31508000ADC0048025800040258002002580008025820
S31508000AEC001C025800000258026808B5144B9A42BA
S31508000AFC24D1144B43F623411348D3F8382122F05A
S31508000B0C0072C3F83821D3F8382122F08062C3F872
S31508000B1C382100F0F7FC4FF400610C4800F0F2FCA9
S31508000B2C01210B4800F0EEFC10210A4800F0EAFC03
S31508000B3C28210948BDE8084000F0E4BC08BD00BF00
S31508000B4C00000440004402580004025800200258D1
S31508000B5C00080258001C02580000025810B501F093
S31508000B6C31FE1E4C4FF400031D48A36101F02CFD09
S31508000B7C1C4801F029FD204601F026FD1A4801F013
S31508000B8C23FD1A4BD3F84C2122F48072C3F84C215E
S31508000B9CD3F8482122F48022C3F84821D3F84021FF
S31508000BAC22F00802C3F84021D3F8402122F00402AF
S31508000BBCC3F84021D3F8402122F00202C3F84021A1
S31508000BCCD3F8402122F00102C3F84021D3F854216E
S31508000BDC22F00202C3F8542110BD00BF00040258CB
S31508000BEC000C02580008025800000258004402582B
S31508000BFC7047FEE7FEE7FEE7FEE77047704770476B
S31508000C0C00F034B9DFF864D000F048F818481949F0
S31508000C1C4FF0000201E040F8042B8842FBD316483B
S31508000C2C1649174A03E052F8043B40F8043B88423D
S31508000C3CF9D314481449154A03E052F8043B40F812
S31508000C4C043B8842F9D3D458C4500433C4188C4294
S31508000C5CF9D30F4A0F4C002301E013600432A24269
S31508000C6CFBD303F047FFFFF75BFC70470000082433
S31508000C7C000018080000180800000024C80000240A
S31508000C8CF457000800000824000008240000082473
S31508000C9CC8000024904D0024FEE70000204AD2F834
S31508000CAC883043F47003C2F888301E4A136803F080
S31508000CBC0F03022B05D8136823F00F0343F0030325
S31508000CCC1360194B1A6842F001021A6000221A6165
S31508000CDC164A19680A4013491A600A6812F00C0F6A
S31508000CEC05D00A6822F00F0242F003020A600022BD
S31508000CFC0F499A61DA611A6299620E49D9620E49EC
S31508000D0C19635A639963DA6319645A64196821F486
S31508000D1C802119601A6643F2D202084B1A60704792
S31508000D2C00ED00E000200052004402587FEDF6EA80
S31508000D3C000202020000FF0180020101004000527D
S31508000D4C194B1A4A10B5DA670024194ADC67C3F836
S31508000D5C802040F67522C3F88040C3F88420154AD3
S31508000D6CC3F88440C3F888200822C3F88840C3F81F
S31508000D7C8C20114AC3F88C40C3F890204FF49B7210
S31508000D8CC3F89040C3F894200C4AC3F89440C3F8AF
S31508000D9C98200B4AC3F89840C3F89C20C3F89C408B
S31508000DACFFF7DCFE204610BD004402583150E9011D
S31508000DBC23020002FF072000FFC3FFE8F330D740E9
S31508000DCCAAE6000C38B50F4B0546187808B9012069
S31508000DDC38BD4FF47A730C4AB3FBF0F31068B0FBCA
S31508000DECF3F000F0A5F804460028F0D10F2DEED844
S31508000DFC024629464FF0FF3000F068F8034B2046B0
S31508000E0C1D60E5E708000024000000240C000024FF
S31508000E1C10B5032000F048F801F01CFA0F49104AE7
S31508000E2C8B69C3F30323D35C03F01F03D8408B6988
S31508000E3C03F00F03D35C0B4A03F01F0320FA03F3EA
S31508000E4C1360094B18600020FFF7BCFF044618B95D
S31508000E5CFFF784FD204610BD0124FBE70044025829
S31508000E6C704B00080400002400000024034A044BBD
S31508000E7C11681B780B441360704700BFF8050024F3
S31508000E8C0800002438B5044602F0AAFC0546631C83
S31508000E9C1EBF044B1B78E41802F0A2FC431BA342AA
S31508000EACFAD338BD0800002407490302CA6803F4BC
S31508000EBCE06322F4E0621204120C134343F0BF639E
S31508000ECC43F40033CB60704700ED00E0164B30B5A9
S31508000EDCDC68C4F30224C4F10705231D042D28BFBE
S31508000EEC0425062B4FF0FF338CBF033C002403FA72
S31508000EFC05F5002803FA04F321EA050122EA0302A0
S31508000F0C01FA04F141EA02034FEA0313DBB206DBEA
S31508000F1C00F1604000F5614080F8003330BD00F008
S31508000F2C0F00024A1354F9E700ED00E014ED00E057
S31508000F3C0138B0F1807F0BD24FF0E023054AF0213F
S31508000F4C5861002082F82310072298611A617047AD
S31508000F5C0120704700ED00E0104BDA68D20706D482
S31508000F6C0E4BD3F80C0110F001000AD170470C4A4D
S31508000F7C5A6002F188325A60DB68DB07F0D501202B
S31508000F8C7047074AC3F8042102F18832C3F80421D2
S31508000F9CD3F80C0100F00100704700BF0020005286
S31508000FAC230167450A4BDA6842F00102DA60DA680F
S31508000FBCD2070BD5D3F80C2142F00102C3F80C2149
S31508000FCCD3F80C01C04300F00100704701207047AC
S31508000FDC002000522DE9F0410C46054602F000FCB3
S31508000FEC2B4E022C0746DFF8AC8018BF0426042EBD
S31508000FFC24D1D8F81030C3F38003A3B9012C254BA0
S3150800100C254A25D11B69134033F0004129D02348C2
S3150800101C002B826942EA030282611E4A1EDB536177
S3150800102C0120BDE8F0816B1CE1D002F0D9FBC01B96
S3150800103CA84201D8002DDAD10320F2E7D8F81031EE
S3150800104C26EA030313F0040F0CBF01230023D4E78D
S3150800105CD3F81031134043F00043D5E7C2F8141106
S3150800106CDEE7012C0B4A08D1106910F48030D8D071
S3150800107C4FF4803353610846D3E7D2F8100110F4C5
S3150800108C8030CED04FF48033C2F81431F3E700BF6A
S3150800109C04000080002000520000AE17FC05002456
S315080010AC2DE9F041374F06460C4690463B7D012B01
S315080010BC66D001F178430120B3F5801F38753BD310
S315080010CC01F1774303F58053B3F5806F34D3A1F15F
S315080010DC0163B3F5801F2DD20225002329464CF255
S315080010EC5030BB61FFF776FF10BB012D264B2AD17A
S315080010FC022E23D19A6942F020029A61BFF36F8FB0
S3150800110CBFF34F8F022E25D1B8F800309BB223803F
S3150800111CBFF36F8FBFF34F8F4CF250302946FFF752
S3150800112C59FF022E184B1DD19A6922F020029A619A
S3150800113C00233B75BDE8F0810546CEE7DA6842F038
S3150800114C0202DA60DAE7D3F80C2142F00202C3F89D
S3150800115C0C21D3E7002358F80320E2500433102B54
S3150800116CF9D1D5E7012D04D1DA6822F00202DA604A
S3150800117CDEE7D3F80C2122F00202C3F80C21D7E7DC
S3150800118C0220D7E7FC0500240020005200F00303D8
S3150800119C032B05D10B4A936943F0100393617047EF
S315080011ACC20704D5074AD36843F02803D3608307DC
S315080011BC06D5044AD2F80C3143F02803C2F80C3190
S315080011CC704700BF00200052CA070AD50E4AD368DA
S315080011DC23F4FE53D360D36843EA801343F0240305
S315080011ECD3608B070ED5084AD2F80C3123F4FE537C
S315080011FCC2F80C31D2F80C3143EA801040F02400C6
S3150800120CC2F80C01704700BF002000522DE9F047C8
S3150800121C434E05460F46337D012B7FD00121002313
S3150800122C31754468B3610C4006D04CF25030FFF768
S3150800123CD1FE041E18BF01246B689B0706D46CB13B
S3150800124C0124002333752046BDE8F08702214CF2B1
S3150800125C5030FFF7BFFE0028F1D0F1E729680129C5
S3150800126C24D16868FFF792FF6B68D8070BD54CF248
S3150800127C5030FFF7AFFE2B4A041ED36818BF012463
S3150800128C23F00803D3606B689A07DAD502214CF26F
S3150800129C5030FFF79FFE234A0028D2F80C3118BFAE
S315080012AC012423F00803C2F80C31CAE74FF0FF33C8
S315080012BCDFF87080DFF870903B60D5F808A0D5E9A8
S315080012CC022313445345BCD950462A696968FFF76B
S315080012DC7BFF686810F001000AD001214CF25030EF
S315080012ECFFF778FED8F80C3003EA0903C8F80C3077
S315080012FC6B689B070AD502214CF25030FFF76AFE41
S3150800130CD8F80C3103EA0903C8F80C3118B10446AD
S3150800131CC7F800A095E70AF1010AD0E7022492E77C
S3150800132CFC050024002000523BE0FFFF2DE9F74F97
S3150800133C0023DFF8CC914FF0B0440A6832FA03F573
S3150800134C02D103B0BDE8F08F4FF0010E0EFA03FE82
S3150800135C1EEA020200F0BD804E684FEA43084FF0C1
S3150800136C030C06F003050CFA08FC6F1E6FEA0C0C4E
S3150800137C012F34D8876807EA0C0ACF6807FA08F7EA
S3150800138C47EA0A078760476827EA0E0EC6F300176E
S3150800139C9F4047EA0E074760C768022D07EA0C0EFE
S315080013AC8F6807FA08F747EA0E07C76019D14FEA9C
S315080013BCD30A03F0070B4FF00F0E00EB8A0A4FEA1D
S315080013CC8B0BDAF820700EFA0BFE27EA0E0E0F6955
S315080013DC07FA0BF747EA0E07CAF8207001E0032D47
S315080013ECDAD1076805FA08F516F4403F07EA0C0740
S315080013FC47EA050707606CD0D9F8545123F0030760
S3150800140C03F0030C4FF00F0E45F0020507F1B04739
S3150800141C4FEA8C0CC9F8545107F58067D9F8545122
S3150800142C05F002050195019D0EFA0CF5D7F8088012
S3150800143C28EA050E314DA8424DD005F58065A8421F
S3150800144C4BD005F58065A84249D005F58065A842BC
S3150800145C47D005F58065A84245D005F58065A842B4
S3150800146C43D005F58065A84241D005F58065A842AC
S3150800147C3FD005F58065A8423DD005F58065A842A4
S3150800148C0CBF09250A2505FA0CF516F4801F45EA42
S3150800149C0E05BD606FEA020725680CBF3D40154373
S315080014AC16F4001F256065680CBF3D40154316F4FD
S315080014BC003F6560D4F884500CBF3D401543F603D5
S315080014CCC4F88450D4F8805054BF3D401543C4F832
S315080014DC8050013331E70025D5E70125D3E70225EE
S315080014ECD1E70325CFE70425CDE70525CBE7062568
S315080014FCC9E70725C7E70825C5E700BF0000025856
S3150800150C004402582DE9F04F0022DFF82C81DFF851
S3150800151C2C91DFF82CA1DFF82CB131FA02F301D1AA
S3150800152CBDE8F08F012303FA02FC1CEA01066DD014
S3150800153C22F0030402F003070F253E4B04F1B044D6
S3150800154CBF00984205FA07F5D4F808E404F5806458
S3150800155C05EA0E0E5CD003F5806398425AD003F563
S3150800156C8063984258D003F58063984256D003F5A9
S3150800157C8063984254D0404554D0484554D0504581
S3150800158C54D0584554D003F5A05398420CBF0923A0
S3150800159C0A23BB40734519D14FF0B043D3F880707A
S315080015AC27EA0607C3F88070D3F8847027EA06077B
S315080015BCC3F884705F6827EA06075F601F6827EA26
S315080015CC06061E60A36823EA0503A36003255300D9
S315080015DC046802F0070705FA03F30F26BF001C433D
S315080015ECBE40046022FA05F400EB8404256A25EA59
S315080015FC06062662C46824EA0304C460446824EA1E
S3150800160C0C044460846824EA03038360013284E78B
S3150800161C0023BEE70123BCE70223BAE70323B8E796
S3150800162C0423B6E70523B4E70623B2E70723B0E796
S3150800163C0823AEE700000258001402580018025896
S3150800164C001C025800200258F0B504468BB060B353
S3150800165C90F8BD34056803F0FF021BB980F8BC246A
S3150800166CFFF78EF903236E46271D84F8BD34EB6B02
S3150800167C254613F4807355F8100B08BF236101F047
S3150800168CE7F90FCD0FC60FCD0FC695E80300254613
S3150800169C86E8030097E80E0055F8100B01F018F9C8
S315080016AC064620B1022384F8BD34012552E00146D2
S315080016BC206801F0D3F93046D4F804C024264FF03C
S315080016CC010E0146C2B2013094451BD800232426CC
S315080016DC1946D8B20133844522D86E460FCD0FC6AB
S315080016EC0FCD0FC695E8030086E8030097E80E00B1
S315080016FC206801F033FA01230546F0B1022284F87A
S3150800170CBD24D2E706FB024383F83DE083F83C2070
S3150800171CA3F8442083F840105965C3E91211D1E7A0
S3150800172C06FB004282F87D1282F87C0282F880124F
S3150800173CC2F89412C2E9A211CBE784F8380084F8EF
S3150800174CBD34636A012B02D1204600F067FD206880
S3150800175C01F0C6FD28460BB0F0BD38B5044610B9E5
S3150800176C0125284638BD032380F8BD34006801F0EE
S3150800177C79FD05460028F3D12046FFF7B5F984F81C
S3150800178CBD54EEE710B50446006894F8BC34012B3A
S3150800179C15D0012384F8BC34A36A012B06D1A3699E
S315080017AC012B03D0836B43F48033836301F04AF92E
S315080017BC206801F087FD002084F8BC0410BD0220C7
S315080017CCFCE738B590F8BC340446012B1BD0012332
S315080017DC056880F8BC34284601F03AF9206801F00F
S315080017EC7FFD1021206801F067F9A36A012B06D149
S315080017FCA369012B03D0AB6B23F48033AB630020B6
S3150800180C84F8BC0438BD0220FCE710B50446006811
S3150800181C94F8BC34012B12D0012384F8BC34A36A87
S3150800182C012B06D1A369012B03D0836B43F48033B8
S3150800183C836301F047FD002084F8BC0410BD022028
S3150800184CFCE738B590F8BC340446012B14D00123B8
S3150800185C056880F8BC34284601F042FDA36A012BC2
S3150800186C06D1A369012B03D0AB6B23F48033AB638E
S3150800187C002084F8BC0438BD0220FCE710B590F8AB
S3150800188CBC240446012A0BD0012280F8381080F8B3
S3150800189CBC24006801F006FD002084F8BC0410BDC9
S315080018AC0220FCE770B501F00F0611F0800F054613
S315080018BC4FF0240006EBC6044FEA84041FD004F14B
S315080018CC3C0100FB06500124294480F83D40CA60BF
S315080018DC4A780E700B7102B10E81022B04BF0023DD
S315080018EC4B7195F8BC34012B12D00123286885F866
S315080018FCBC3401F0F4F9002085F8BC0470BD04F57D
S3150800190C1F7100FB06500024294480F87D42DEE74F
S3150800191C0220F3E710B5044601F00F0011F0800F12
S3150800192C4FF0240200EBC0034FEA830316D003F1F1
S3150800193C3C0102FB00420123214482F83D30087029
S3150800194C94F8BC34012B12D00123206884F8BC34DB
S3150800195C01F004FA002084F8BC0410BD03F51F71CD
S3150800196C02FB00420023214482F87D32E7E702207D
S3150800197CF3E738B501F00F05242404FB050104FB35
S3150800198C050401F51F71C4F894320023C4F88C229F
S3150800199CC4F89C3284F87D3284F87C52036900685A
S315080019AC012B08BFC4F89022DAB21DB901F02CFA43
S315080019BC002038BD01F0F8FAFAE701F00F012423EC
S315080019CC03FB0100D0F89C02704738B501F00F05EF
S315080019DC242404FB050104FB05043C316365002340
S315080019ECE264E365012384F83C5084F83D300369CE
S315080019FC0068012B08BF2265DAB21DB901F004FA9A
S31508001A0C002038BD01F0D0FAFAE738B501F00F0519
S31508001A1C436804469D422CD811F0800F4FF02400E1
S31508001A2C1ED000FB0541012300FB05423C3182F820
S31508001A3C3D3001230D708B7094F8BC249A421AD051
S31508001A4C206884F8BC3401F0B9FB2DB904F2C44201
S31508001A5C217C206801F096FC002084F8BC0438BD73
S31508001A6C00FB01431A4603F51F71002382F87D32E9
S31508001A7CDFE70120F3E70220F1E738B501F00F02A2
S31508001A8C436804469A422AD802EBC20311F0800F27
S31508001A9C4FF024004FEA830318D003F13C0100FBF6
S31508001AAC02400123214480F83D3000250A708D70D0
S31508001ABC94F8BC34012B14D00123206884F8BC3468
S31508001ACC01F0A7FB284684F8BC5438BD03F51F71F2
S31508001ADC00FB02400023214480F87D32E5E7012013
S31508001AECF3E70220F1E701F00F030A0603EBC30341
S31508001AFC4FEA83034CBF03F13C0103F51F71014404
S31508001B0C006801F0FBB900002DE9F04F066889B0B2
S31508001B1C0446304601F021FC0390002840F06F8102
S31508001B2C206801F0EBFB002800F06981D6F808382C
S31508001B3C06F500652068C3F30D23C4F8FC3401F0E0
S31508001B4CDDFB810704D52268536903F00203536150
S31508001B5C206801F0D3FBC2062CD52268936923F0C2
S31508001B6C10039361D6F82080C8F3434308F00F0797
S31508001B7C022B40F0478147F6F07318EA030F14D08E
S31508001B8C2423C8F30A19304603FB07474A46D7F8F5
S31508001B9C8C1201F0F3FAD7F88C324B44C7F88C3216
S31508001BACD7F89C324B44C7F89C322268936943F0A9
S31508001BBC10039361206801F0A1FB030300F1348143
S31508001BCC206801F09BFB47030CD5274606F5106ADF
S31508001BDC4FF00009206801F09DFB0490049B002B34
S31508001BEC40F0EA81206801F089FB002813DA6B685B
S31508001BFC23F001036B6094F8F434012B40F08582D2
S31508001C0C0021204684F8F41400F01BFB2268536963
S31508001C1C03F000435361206801F070FB00050AD5F8
S31508001C2CAB68D90702D5204602F06CFE22685369C8
S31508001C3C03F400635361206801F060FB020114D5BC
S31508001C4C23685A6902F000625A6194F8F424002A4F
S31508001C5C40F05F820121204684F8F4145B6DC3F3CF
S31508001C6C8303C4F8F83400F0ECFA206801F046FB5C
S31508001C7CC30433D56B681021206823F001036B600D
S31508001C8C00F01AFF06F510634FF67F316268039869
S31508001C9C824200F24782EB6943F00113EB61236B36
S31508001CAC002B00F05982D5F8843043F00B03C5F8A5
S31508001CBC84306B6C43F00B036B64D6F8003804F273
S31508001CCCC442217C23F4FE632068C6F8003801F070
S31508001CDC59FB2268536903F480535361206801F059
S31508001CEC0DFB870416D5206801F03BFB206800F035
S31508001CFCEBFF2768E06000F04DFB227B0146384677
S31508001D0C00F030FE204602F0E5FD2268536903F424
S31508001D1C00535361206801F0F1FA000707D52046F5
S31508001D2C02F0D3FD2268536903F008035361206857
S31508001D3C01F0E4FA010600F11A82206801F0DEFAD5
S31508001D4CC2020CD5A04606F5126901276368BB4288
S31508001D5C00F226822268536903F4801353612068C3
S31508001D6C01F0CCFA83022DD5D4F804E0234606F507
S31508001D7C326001218E4520D993F8A4C20268BCF1C1
S31508001D8C010F40F02382002A80F22082D4F8FC74DA
S31508001D9C02F4803207F00107BA4240F0178283F842
S31508001DACA3C2B26942F08002B2617269170600F1E9
S31508001DBC0D826B6843F400736B602268536903F4F5
S31508001DCC00135361206801F099FA410007D52046A3
S31508001DDC02F0C4FD2268536903F0804353612068FE
S31508001DEC01F08CFA42070AD523685D686B0702D5A1
S31508001DFC204602F0BEFD226853682B43536009B097
S31508001E0CBDE8F08F062B7FF4D0AE082204F2C4414D
S31508001E1C3046C8F30A1801F0B1F9242303FB074727
S31508001E2CD7F89C324344BEE606F53068A24600272E
S31508001E3C206801F067FA0490049B002B3FF4C0AEAF
S31508001E4C049BD80776D55FFA87FB2068594601F0BC
S31508001E5C69FA10F0010F81461CD00123206821690C
S31508001E6CC8F8083000F530630129D0F840C003EBF8
S31508001E7C47139A6840F08B80110707D5A7498C45FC
S31508001E8C08D9100406D54FF4004202E091065AD53B
S31508001E9C20229A6019F0080F21D008239F48C8F809
S31508001EAC083023681A6C03F53063824203EB471338
S31508001EBC996804D9090402D54FF400419960204663
S31508001ECC059202F0EBFC954B059A9A4207D92169C3
S31508001EDC012904D104F2C442206801F053FA19F01E
S31508001EEC100F02D01023C8F8083019F0020F14D0BE
S31508001EFC73691A0603D56B6843F480636B609AF8AA
S31508001F0C7F32012B06D10023594620468AF87F32A8
S31508001F1C02F01CFD0223C8F8083019F0200F02D075
S31508001F2C2023C8F8083019F4005F03D04FF4005387
S31508001F3CC8F80830049B013708F120080AF1240A6E
S31508001F4C5B08049378E712F0280FA3D173498C45E4
S31508001F5C01D9120497D41A69DAF89832C2F3120224
S31508001F6C9B1ACAF89C326FB9D4F894222AB904F28F
S31508001F7CC442012101F006FA04E0D4F88C22134479
S31508001F8CC4F88C325946204602F08EFC82E7644926
S31508001F9C8C4507D111043FF576AF9006F2D5202271
S31508001FAC9A60EFE7002FEDD1D4F89432002BE9D1E3
S31508001FBC04F2C4423946DDE7049BDB0740F19C80FA
S31508001FCC5FFA89FB2068594601F0B5F910F0010F44
S31508001FDC804620D0012109F00F026B6B01FA02F240
S31508001FEC23EA02036B630B46CAF808102169994267
S31508001FFC0DD1D7E912231344FB64B9F1000F06D1AE
S3150800200C636D23B904F2C442206801F0BBF9594642
S3150800201C204602F052FC18F0080F02D00823CAF822
S3150800202C083018F0100F02D01023CAF8083018F030
S3150800203C400F02D04023CAF8083018F0020F12D00D
S3150800204C4946304600F038FD97F83F30012B07D14A
S3150800205C4FF000035946204687F83F3002F07AFCC9
S3150800206C0223CAF8083018F0800F45D0FA6D7B6D3C
S3150800207C9A4241D89B1ABA6C21689342059128BF9B
S3150800208C134603339B08069301F5106303EB4913B8
S3150800209C0793079B06989969FA6D89B27B6D8142FD
S315080020AC28D39A420CD3059B09F00F010120D3F8CB
S315080020BC342800FA01F122EA0102C3F834281BE09D
S315080020CCA3EB0208BB6C5A460598984528BF984658
S315080020DC08F103039B080693237C00931FFA88F3E5
S315080020ECF96C00F04DFFFB6C4344FB64FB6D4344F9
S315080020FCFB65CEE79A42D6D2049B09F1010924372F
S3150800210C0AF1200A5B08049368E5204602F014FCE1
S3150800211C7CE5204602F0F6FBA7E500BF0A30544FD3
S3150800212C0A31544F9960203353F8202C22F40012AC
S3150800213C43F8202CC3F8E811D3F8E02122F4001256
S3150800214CC3F8E021D3F8E02142F00062C3F8E0219D
S3150800215C039A0132039299E56B6943F4005343F0F1
S3150800216C2B036B612B6943F00B032B61A5E5B36954
S3150800217C012704F27F284FF0240923F08003B3616A
S3150800218C6368BB427FF6D9AD09FB07F318F8033031
S3150800219C012B03D1F9B22046FFF7A5FC0137EFE76F
S315080021AC98F86430D9F80020012B09D1002A07DAEF
S315080021BC67F07F01204688F86330C9B2FFF793FCB5
S315080021CC013708F1240809F12009BFE50131243348
S315080021DC2030CFE50068120470B5446A19B9224359
S315080021EC8262002070BD836A4D1E04EB13440023E3
S315080021FC5E1CDBB29D4205D83F31224300EB8100C1
S3150800220C4260EEE7403300EB83035B6804EB134450
S3150800221C3346EDE7036800205962704702680021CF
S3150800222C012380F8F414C0F800350846936943F086
S3150800223C00639361536D43F0805343F00303536576
S3150800224C70477047024AD36843F08073D36070476F
S3150800225C00480258484B1A6902F03802102A30B561
S3150800226C00F08680182A0CD0002A40F083801A6861
S3150800227C424812F0200F03D01B68C3F3C103D840A1
S3150800228C30BD996A9D6ADC6A15F47C7FC5F3051026
S3150800229C5A6BF5D0C2F3CC0204F0010407EE900A8F
S315080022AC01F003016243B7EE006AF8EEE76A01290A
S315080022BC07EE902AFAEEE97A4CD002293CD000298E
S315080022CC48D11A68920627D519682C4AC1F3C10158
S315080022DC1B6BCA40C3F3080307EE102AF8EEC75A5D
S315080022EC85EEA67A06EE903AF8EEE66A76EEA77AC8
S315080022FC77EE867A204B67EE877A1B6BC3F34623F9
S3150800230C013307EE103AF8EEC76A87EEA67AFCEEAA
S3150800231CC77A17EE900AB3E71B6BC3F3080307EEED
S3150800232C103AB8EEC77A77EE277A77EE867A9FED6B
S3150800233C146A86EE267ADDE71B6BC3F3080307EEF1
S3150800234C103AB8EEC77A77EE277A77EE867A9FED4B
S3150800235C0D6AEEE71B6BC3F3080307EE103AB8EEEB
S3150800236CC77A77EE277A77EE867A9FED076AE0E7E3
S3150800237C064885E7064883E7004402580090D003D0
S3150800238C0024744C001BB74B0024744A00366E01AB
S3150800239C00093D0010B50C4CFFF75CFF0B49A3690F
S315080023ACC3F30323CA5CA36902F01F0203F00F03ED
S315080023BC20FA02F2CB5C03F01F0322FA03F0044B5B
S315080023CC1860044B1A6010BD00440258704B000884
S315080023DC040000240000002470B5057B8368D0E94E
S315080023EC0012002D00F0B380002955D100253AB310
S315080023FC467B4FF0B04116F0010FD1F8904014BF50
S3150800240C1443944316F0020FC1F890404FF0B041B4
S3150800241CD1F8944014BF14439443C1F89440817B7B
S3150800242C71B1022973D003297BD001297ED14FF0D3
S3150800243CB0414C6A24EA02044C620C6A22430A62D2
S3150800244C43B3447B4FF0B04214F0010FD2F8A010FE
S3150800245C14BF1943994314F0020FC2F8A0104FF099
S3150800246CB042D2F8A41014BF19439943C2F8A41069
S3150800247C827B7AB1022A5BD0032A63D0012A40F008
S3150800248C8D804FF0B042516C21EA03015164116CF6
S3150800249C0B431364284670BD467B4FF0B04416F0C8
S315080024AC010FD4F8805014BF0D438D4316F0020F5C
S315080024BCC4F880504FF0B044D4F8845014BF0D4380
S315080024CC8D43C4F88450847B002C8FD0022C0DD0FD
S315080024DC032C15D0012C18D14FF0B044656825EAA9
S315080024EC010565602568294321607FE74FF0B044F4
S315080024FC256825EA0105256065682943616075E745
S3150800250C4FF0B04425680D43F5E701256FE74FF00A
S3150800251CB0410C6A24EA02040C624C6A22434A62F1
S3150800252C8EE74FF0B0410C6A1443F5E7012587E7AF
S3150800253C4FF0B042116C21EA03011164516C0B4344
S3150800254C5364A7E74FF0B042116C1943F5E74FF007
S3150800255CB044D4F8800020EA0100C4F88000D4F80E
S3150800256C900020EA0200C4F89000D4F8A00020EAF3
S3150800257C0300C4F8A000D4F8840020EA0101C4F8CA
S3150800258C8410D4F8941021EA0202C4F89420D4F8E2
S3150800259CA42022EA0303C4F8A4307BE7012579E7D3
S315080025AC034AD2F888301843C2F88800704700BF2F
S315080025BC00440258034AD2F8883023EA0000C2F8CD
S315080025CC880070470044025808B5314B984207D129
S315080025DC0120FFF7E5FF0120FFF7ECFF002008BDFF
S315080025EC2C4B984204D10220FFF7DAFF0220F3E7BE
S315080025FC294B984204D10420FFF7D2FF0420EBE7BD
S3150800260C264B984204D10820FFF7CAFF0820E3E7B7
S3150800261C234B984204D11020FFF7C2FF1020DBE7AA
S3150800262C204B984204D12020FFF7BAFF2020D3E78D
S3150800263C1D4B984204D14020FFF7B2FF4020CBE750
S3150800264C1A4B984204D18020FFF7AAFF8020C3E7D3
S3150800265C174B984206D14FF48070FFF7A1FF4FF441
S3150800266C8070B9E7134B984206D14FF40070FFF708
S3150800267C97FF4FF40070AFE70F4B984206D14FF413
S3150800268C8060FFF78DFF4FF48060A5E70120A6E771
S3150800269C000002580004025800080258000C0258A0
S315080026AC001002580014025800180258001C025850
S315080026BC0020025800240258002802582DE9F04739
S315080026CC02460D6895FAA5F44FF0010EB4FA84F497
S315080026DC6FEA050835FA04F001D1BDE8F0870EFA61
S315080026EC04F32B403FD0D1F804C003FB03F60CF1DE
S315080026FCFF3706EB4600012F6FEA000010D8D2F818
S3150800270C08908F6809EA0009774347EA0907976032
S3150800271C576808EA0709CF686F4349EA07075760FD
S3150800272CD2F80C90BCF1020F0F6909EA000906FBF6
S3150800273C07F747EA0907D7600FD1FF2BD1F8149092
S3150800274C13D806FB06F7136AC7EB071A07FB09F932
S3150800275C23EA0A0343EA09031362136806FB0CF619
S3150800276C1840304310600134B4E71B0A576A5B43C0
S3150800277C5B43C3EB031A03FB09F327EA0A073B433C
S3150800278C5362EAE7024B1868C0F38000704700BF33
S3150800279C00440258024B1868C0F34060704700BFEB
S315080027AC00440258024B1868C0F3C060704700BF5B
S315080027BC00440258024B1868C0F34070704700BFBB
S315080027CC00440258294A08B5136803F00F03022B74
S315080027DC05D8136823F00F0343F003031360244A48
S315080027EC136843F001031360FFF7CCFF0028FBD0F6
S315080027FC002313611F4B11680B401360FFF7CAFFC8
S3150800280C0028FBD1FFF7CEFF0028FBD1FFF7D2FF3C
S3150800281C0028FBD1164B184A9861D86118629A623F
S3150800282C164ADA62164A1A6358639A63D8631A64A4
S3150800283C58641A6822F480221A6018669A6E6FEA2F
S3150800284CD2226FEAC2229A66D3F8302142F4803239
S3150800285CC3F83021054A136813F00C0F05D013681A
S3150800286C23F00F0343F00303136008BD0020005246
S3150800287C0044025845EDF6EA000202020000FF0188
S3150800288C8002010182B00023104A0193019B013397
S3150800289C0193019B934216D80369002BF6DA0023A1
S315080028AC0A4A0193036943F001030361019B01334F
S315080028BC0193019B934206D8036913F00103F5D1E2
S315080028CC184602B070470320FBE700BF400D030013
S315080028DC84B038B505AD044685E80E000A9B012B75
S315080028EC2FD1836B23F480338363C36823F4840367
S315080028FC23F04003C360C36823F44013C360119BE1
S3150800290C012B03D1C36843F48013C3602046FFF739
S3150800291CB9FF089B012B10D1E36D9BB2E365E36D00
S3150800292C43F07B7343F40033E365A36843F0060373
S3150800293CA360A36843F02003A360BDE8384004B045
S3150800294C7047C36843F04003C360FFF79BFF0E9BB9
S3150800295C23B9A36B43F48033A363DAE7A36B23F49D
S3150800296C8033F9E7022A4AD1274B284A0B4493426B
S3150800297C39D9274B274A0B44934236D9A1F5740308
S3150800298C254AA3F51053934231D9A1F18373234AEF
S3150800299CA3F5E74393422CD3214B224A0B4493428B
S315080029AC29D9214B214A0B44934226D3204B214A41
S315080029BC0B44934223D3A1F1B7731F4AA3F558537B
S315080029CC93421ED31D4B1E4A0B44934234BF072316
S315080029DC0623C26822F47052C260C26842EA832394
S315080029ECC360002070470F23F3E70E23F1E70D238E
S315080029FCEFE70C23EDE70B23EBE70A23E9E70923BB
S31508002A0CE7E70823E5E700BF405327FFFF340C0030
S31508002A1C401E1BFF3F420F007F4F120020D61300AB
S31508002A2C60B6E5FE5FE3160000D3CEFE40771B00CA
S31508002A3CC05BB3FEC091210020753800E05459FEE6
S31508002A4CE09C4100836843F00103836000207047D3
S31508002A5C836823F0010383600020704738B5C36888
S31508002A6C0129054623F0C043C3600FD1C36800246F
S31508002A7C43F00053C36001200134FEF703FA6B6977
S31508002A8CD90714D4322CF6D1012038BD0029FBD134
S31508002A9CC3680C4643F08043C36001200134FEF73B
S31508002AACF1F96B69DA0702D5322CF6D1ECE7A4F109
S31508002ABC320358425841E8E782B00023104A019382
S31508002ACC019B01330193019B934216D80369002B92
S31508002ADCF6DA890100230A4A41F0200101930161C3
S31508002AEC019B01330193019B934206D8036913F0AA
S31508002AFC2003F5D1184602B070470320FBE700BF48
S31508002B0C400D030082B000230F4A0193019B013349
S31508002B1C0193019B934214D80369002BF6DA002320
S31508002B2C094A019310230361019B01330193019B0D
S31508002B3C934206D8036913F01003F5D1184602B070
S31508002B4C70470320FBE700BF400D0300D0F80038A0
S31508002B5C1943C0F8001800207047000084B02DE90E
S31508002B6CF843044609A80E46139D80E80E00002378
S31508002B7C194603F14002013304EB82020F2B516014
S31508002B8CF7D104F50067002D6CD17B6843F002037E
S31508002B9C7B60A36B23F40013A363236843F0400301
S31508002BAC2360236843F0800323600023C4F8003EA7
S31508002BBCD4F80038C4F800380E9B012B59D10B9960
S31508002BCC002954D120464FF67F38FFF7BFFF102156
S31508002BDC2046FFF771FF01462046FFF793FF08438F
S31508002BEC002304F51062C0B24FF0904C19464FF012
S31508002BFC006E00383B617B6118BF0120FB61B34254
S31508002C0C39D1002204F530634FF0904C4FF0006E2A
S31508002C1C11464FF67F38B24240D13B6923F4807394
S31508002C2C3B610023A3616FF0804363610C9B1BB966
S31508002C3CA36943F01003A361A269224B1343A36152
S31508002C4C0F9B1BB1A36943F00803A361012D05D1A2
S31508002C5CA36943F0804343F00403A361BDE8F8433A
S31508002C6C04B07047A36B43F40013A3639DE719469E
S31508002C7CA8E70321A6E7D2F80090B9F1000F0BDA02
S31508002C8C3BB9C2F800E011610133C2F80880203262
S31508002C9CB5E7C2F800C0F6E71160F4E7D3F8009080
S31508002CACB9F1000F0BDA3AB9C3F800E01961013231
S31508002CBCC3F808802033AEE7C3F800C0F6E71960FE
S31508002CCCF4E700BF00383C80D0F8083813F006004B
S31508002CDC04D013F0020F14BF02200F20704730B532
S31508002CEC0D78012400F5006205F00F0300EB451082
S31508002CFC9C404B78012BD36918D11C43D461D0F86E
S31508002D0C00391A0410D4CA68D0F80049C2F30A0369
S31508002D1C0A79234343EA824343EA855343F08053B3
S31508002D2C43F40043C0F80039002030BD43EA04449C
S31508002D3CD461D0F8003B1B04F6D4CB68D0F8002B32
S31508002D4CC3F30A0313430A7943EA824343F08053D5
S31508002D5C43F40043C0F8003BE6E7000010B50A78D8
S31508002D6C497800EB421300F50060012902F00F02C6
S31508002D7C22D1D3F8001900290BDAD3F8001941F03F
S31508002D8C0061C3F80019D3F8001941F08041C3F863
S31508002D9C00190121C46B01FA02F224EA0204C46385
S31508002DACC16921EA0202C261154AD3F800190A4020
S31508002DBCC3F80029002010BDD3F8001B00290BDA34
S31508002DCCD3F8001B41F00061C3F8001BD3F8001BB5
S31508002DDC41F08041C3F8001B4FF48031C46B01FAF3
S31508002DEC02F224EA0204C463C16921EA0202C2613E
S31508002DFC044AD3F8001B0A40C3F8002BDAE700BFD5
S31508002E0C007833EC0078F3EF4B78DFF8ECC0012B45
S31508002E1CF0B50E788D6900EB4614364F46D104F59D
S31508002E2C1063BDB91D692F401F611D6945F4002546
S31508002E3C1D611D6905EA0C05012A1D6123D14A6924
S31508002E4C02B15A61D4F8003943F00443C4F8003986
S31508002E5C0020F0BDD3F810E00EEA0C0CC3F810C035
S31508002E6CD3F810C00CEA07071F61CF68AF421D697B
S31508002E7C45F4002538BF8F611D618D691F69C5F33F
S31508002E8C12053D43D8E7D4F8003943F00443C4F897
S31508002E9C00398B69002BDBD006F00F060123D0F81E
S31508002EAC3428B3401343C0F83438D1E7D4F8100BA0
S31508002EBC04F5306300EA0C0018611869384018618B
S31508002ECCC86805B188611D69012AC861C0F312007A
S31508002EDC45F400251D611D6940EA0500186102D1FB
S31508002EEC0A6902B15A61D4F8003B43F00443C4F8AA
S31508002EFC003BADE7FFFF07E00000F8FF002382B0B8
S31508002F0C4A780193012A0B784FEA43131ED100F530
S31508002F1C1060C258C118002A02DB002002B07047A4
S31508002F2CC25842F00062C250C25842F08042C250A7
S31508002F3C42F21072019B01330193019B934201D912
S31508002F4C0120EBE70B68002BF4DBE6E700F53060B5
S31508002F5CC258C118002AE0DAC25842F00062C250C0
S31508002F6CC25842F08042C25042F21072019B0133A1
S31508002F7C0193019B9342E3D80B68002BF6DBCCE755
S31508002F8C10B59DF8084044B9033301329B0800EB91
S31508002F9C023001EB83038B4201D1002010BD51F89E
S31508002FAC042B0260F7E700002DE9F3414D780F7802
S31508002FBC012D8B6900EB47140E79DFF8B4C1DFF8E5
S31508002FCCB4E140F08E8004F51065D5F810806BBB23
S31508002FDC08EA0C0CC5F810C0D5F810C04CF4002C37
S31508002FECC5F810C0D5F810C00CEA0E0EC5F810E0DE
S31508002FFC012A4ED14B6903B16B61012E0CD1D0F865
S3150800300C083813F4807FD4F800390CBF43F000530A
S3150800301C43F08053C4F80039D4F8003943F004431C
S3150800302CC4F80039002002B0BDE8F08108EA0E0E9B
S3150800303C012EC5F810E0D5F810E00EEA0C0CD1F804
S3150800304C0CE0C5F810C00EEB030CD5F810800CF18B
S3150800305CFF3CBCFBFEFEDFF820C10CEACE4C4CEA6A
S3150800306C080CC5F810C0C3F3120CD5F810E04CEADE
S3150800307C0E0CC5F810C0BBD1D5F810C02CF0C04C3E
S3150800308CC5F810C0D5F810C04CF0005CC5F810C0D7
S3150800309CAEE7D4F80059012E45F00445C4F800599A
S315080030AC0BD0002BBED007F00F020127D0F834380E
S315080030BC97401F43C0F83478B4E7D0F808589BB249
S315080030CC15F4807FD4F800590CBF45F0005545F02F
S315080030DC8055C4F8005900923A460969FFF750FF23
S315080030ECA0E7D4F8105B04F5306705EA0E053D61D8
S315080030FC3D6905EA0C053D61CD681BBB3B69C5F30B
S3150800310C12051D433D613B6943F400233B61012ACB
S3150800311C02D10B6903B17B61012E0CD1D0F80838AA
S3150800312C13F4807FD4F8003B0CBF43F0005343F0F4
S3150800313C8053C4F8003BD4F8003B43F00443C4F86E
S3150800314C003B6FE72B44DFF830C0D7F810E0013BA3
S3150800315CB3FBF5F39BB25D430CEAC34343EA0E0398
S3150800316CCD61C5F312053B613B691D433D61CEE755
S3150800317CFFFF07E00000F8FF0000F81F0346900861
S3150800318C02F0030270B5002403F58055844210D36F
S3150800319C01EB800062B103F580531C680023D9004B
S315080031AC24FA01F1C154013399B28A42F7D1104479
S315080031BC70BD2E6841F824600134E7E74A780B782D
S315080031CC012A00EB431012D1D0F80029002A06DB9D
S315080031DC2BB1D0F8003923F08043C0F80039D0F869
S315080031EC003943F40013C0F8003900207047D0F8B2
S315080031FC002B002A06DB2BB1D0F8003B23F08043CA
S3150800320CC0F8003BD0F8003B43F40013C0F8003B71
S3150800321CEBE70B784A7800EB43100B79012AA3F1FC
S3150800322C0203DBB20FD1D0F80029012B22F40012CD
S3150800323CC0F8002905D8D0F8003943F08053C0F8F7
S3150800324C003900207047D0F8002B012B22F400120D
S3150800325CC0F8002BF5D8D0F8003B43F08053C0F8E3
S3150800326C003BEEE710B500F51063044600F52E6139
S3150800327C4FF67F329A602033C3F8E8218B42F9D196
S3150800328C00222046C4F81028C4F81428C4F81C28B0
S3150800329CFFF738FC28B920461021BDE81040FFF787
S315080032AC0BBC10BDD0F80038090123F4FE6301F4F9
S315080032BCFE61C0F80038D0F800381943C0F8001879
S315080032CC00207047D0F8003E23F00303C0F8003EF8
S315080032DCD0F8043823F00203C0F8043800207047ED
S315080032ECD0F8003E23F00303C0F8003ED0F80438AB
S315080032FC43F00203C0F8043800207047426980691D
S3150800330C10407047D0F8183800F50060C0691840AE
S3150800331C000C7047D0F8183800F50060C0691840E2
S3150800332C80B2704700EB411100F50060D1F8082B0C
S3150800333C40691040704710B5D0F81048D0F83438AA
S3150800334C00EB411001F00F0100F51060CB408068CE
S3150800335CDB01DBB22343184010BD406900F00100C5
S3150800336C7047D0F8003923F4FF6323F00703C0F83D
S3150800337C0039D0F8043843F48073C0F804380020B8
S3150800338C7047000030B5056C00F530630F4CA5424C
S3150800339C03D9D0F8004B002C16DB002401291C613C
S315080033AC1C6944F400241C611C6944F018041C6153
S315080033BC1C6944F0C0441C6106D15A61D0F8003B24
S315080033CC43F08023C0F8003B002030BD0A30544F30
S315080033DC014B1860704700BF0000002472B6704796
S315080033EC62B67047FFF7FABF10B500F0BFF9C8B15F
S315080033FCFCF77AFFB0B100F0E9FFFDF7A1FC00F08D
S3150800340CC2F900F0B5F920F06040074B20F07F00B8
S3150800341C986000F0ADF94468FFF7E2FF2346BDE873
S3150800342C1040184710BD00BF00ED00E0F8B5064681
S3150800343C0F4615460024AC4200D1F8BD3B5D33550A
S3150800344C013400F0ECFFF6E7F8B50646094D002402
S3150800345C00F0E5FF2B68E7B2B34203D86A68134459
S3150800346CB34204D801340C35F82CF1D1FF27384671
S3150800347CF8BD00BF804B00082DE9F04105460068F1
S3150800348CFFF7E2FFFF2825D02F1D0026FDF764FD68
S3150800349C296806EB010800F0C2FF3A4601204146AE
S315080034ACFDF7FEFD044678B90346DA5D18F80310F5
S315080034BC91420AD10133102BF7D110361037B6F5D5
S315080034CC005FE5D1012400E00024FDF76BFD2046E2
S315080034DCBDE8F0810024FAE738B50F4B04460D46D3
S315080034EC984213D00D4A914212D0FFF7C5FF88B106
S315080034FC54B12368AB4207D020464FF400522946F4
S3150800350C40F8045BFFF792FF204638BD044CF0E701
S3150800351C1C46EEE70446F7E71C26002400000108C3
S3150800352C180600242DE9F0411F46036821F4FF56BE
S3150800353C044601330D46904626F01F0606D14FF475
S3150800354C0052314640F8046BFFF770FF2368B3420C
S3150800355C05D020463146FFF7BFFF0446E8B10435CF
S3150800356C216806F5005647446D1A254400F057FFA6
S3150800357C231DEB1AB3F5005F06D320463146FFF739
S3150800358CABFF044648B1051D18F8013BB84505F8CC
S3150800359C013BEBD10120BDE8F0810020FBE70000E0
S315080035AC4FF0FF33024A1360024A1360704700BF9C
S315080035BC180600241C260024134B37B51B1A0D4677
S315080035CC0139044699421BD80192FFF73DFFFF28A3
S315080035DC16D0601E2844FFF737FFFF2810D024F4B6
S315080035ECFF530A49019A23F01F038B422B462146A7
S315080035FC0CBF0748074803B0BDE83040FFF792BF39
S3150800360C002003B030BD00BFFFFF1F0800000108F3
S3150800361C1C26002418060024234B4A1E1B1A9A4201
S3150800362C2DE9F041044686B00E4604D900242046FE
S3150800363C06B0BDE8F081FFF707FF0546601E30446B
S3150800364CFFF702FFFF2D0746F0D0FF28EED0002427
S3150800365C85420094EBD8F72FE9D82EB24FF0010823
S3150800366CFDF77AFC114B06EB460603EB860600F0D3
S3150800367CD6FED6E90023013214D09BB1737A69467B
S3150800368C01A801940293337ACDE90338FDF7BEFD00
S3150800369C40B901350C36EDB2AF42E8D20124FDF73C
S315080036AC81FCC4E70024FAE7FFFF1F08804B0008DB
S315080036BC07B50E4A1368013316D00D48D2E9013105
S315080036CC0B44D1680B4411690B4451690B4491693D
S315080036DCD2690B440421134401AA5B420193FFF7F8
S315080036EC6BFF03B05DF804FB0120FAE71C260024E7
S315080036FCAC0201080A4AD2E900310B4491680B4422
S3150800370CD1680B4411690B4451690B449169D2F881
S3150800371CAC220B44D3420CBF01200020704700BFDB
S3150800372C000001080A4808B50368013305D10948A1
S3150800373C0368013306D1012008BDFFF79DFE00285A
S3150800374CFAD0F4E7FFF798FE003818BF0120F3E724
S3150800375C1C2600241806002400487047000001089F
S3150800376CFFF71EBFFFF728BFFFF756BFFFF7C2BF0D
S3150800377CFFF7F2BF08B5FFF79BFF18B1BDE8084085
S3150800378CFFF7D0BF08BD4FF0E02300221A615A613B
S3150800379C9A61704708B5FFF7F6FF4FF0E023044A25
S315080037AC05215A6100229A611961024B1A6008BDFB
S315080037BCBF450400204600244FF0E0231B69DB03B9
S315080037CC41BF024A13680133136070472046002430
S315080037DC08B5FFF7F1FF014B186808BD2046002411
S315080037EC08B5FFF7E9FF014B186808BD2046002409
S315080037FC012838B504460D4604D940F2C7110E48BF
S3150800380C00F059FD18200D4944430B19587C1A7CB5
S3150800381C90420ED0DA6815705A7C586801325A7480
S3150800382CDA6801328242DA6001D90A59DA60012073
S3150800383C00E0002038BD00BF20570008644600246D
S3150800384C012838B504460D4604D940F2E9110D484D
S3150800385C00F031FD18200C4944430B19587C78B1FB
S3150800386C9A6812782A705A7C5868013A5A749A6877
S3150800387C013282429A604FF0010084BF0A599A605D
S3150800388C38BD00BF205700086446002438B5204BC5
S3150800389C40242049012503F118021C82481C1C856A
S315080038AC5A61002218600A70DA629A7483F82A50F0
S315080038BCC3E90200081918490A60184A5860511CCD
S315080038CC1570C3E9081199611119154C2A46D96165
S315080038DC2046144900F01EF91349204600F04DF90C
S315080038EC2846FCF714FD204600F05AF9FEF7AAFC08
S315080038FCD4F8C402FDF789FF00F00AFDB0F5FA6F9B
S3150800390C05D24FF4FA60BDE8384000F0FBBC38BD70
S3150800391C644600249846002494460024D94600247C
S3150800392C1C470024780000241400002410B5064C0B
S3150800393CD4F8C402FDF785FF204600F003F90020F1
S3150800394CBDE81040FCF7E3BC1C4700243F29F8B53A
S3150800395C04460D4603D9C021104800F0ACFC104EA5
S3150800396C29463078FFF744FF012803D0C4210B48B9
S3150800397C00F0A1FC2544094FA54200D1F8BD00F082
S3150800398C4EFD14F8011B3078FFF732FF0128F3D0EF
S3150800399CCD21384600F08FFCEEE700BF2057000813
S315080039AC984600242DE9F8431E4B80461E4F0E46BA
S315080039BCD3F8C402FEF7A8F83C781C4D1C4B8CB9FE
S315080039CC29461878FFF73CFF012803D00024204627
S315080039DCBDE8F8832B78013B3E2BF7D8154B38708E
S315080039EC1C70F4E7DFF84C90187899F80010013140
S315080039FC2944FFF725FF01280446E7D199F800303A
S31508003A0C2A780133DBB29A4289F80030DED1691C78
S31508003A1C4046FFF70BFD00233B7099F800303370D6
S31508003A2CD5E700BF1C4700242C4A0024EC49002487
S31508003A3CD94600242D4A00242DE9F341194F3C7828
S31508003A4C012C04D940F20921174800F034FC174B15
S31508003A5C182202FB04335C7C0CB3402C144E4FF03A
S31508003A6C0005DFF8448028BF40240DF1070138789B
S31508003A7CFFF7E6FE012804D040F24D11404600F04F
S31508003A8C1AFC01359DF80730EDB206F8013BAC423D
S31508003A9CEBD12346064A8121064801F018F802B0F4
S31508003AACBDE8F08198460024205700086446002497
S31508003ABC244600241C470024F7B5019000F072FE3A
S31508003ACC04460199104800F0AAFF104E14FA80F526
S31508003ADC0F4FAC420AD100F065FE40230246012185
S31508003AEC094803B0BDE8F04000F0FABF14F8011B12
S31508003AFC3078FFF77DFE0128EBD040F26F1138467F
S31508003B0C00F0D9FBE5E700BF1C470024D946002482
S31508003B1C20570008A0B1D0F8B83213B10023C0F86A
S31508003B2CB832D0F8CC3213B10023C0F8CC3209B174
S31508003B3CC0F8B4120123027080F89C3200F024BF3E
S31508003B4C03207047012310B580F89C320446D0F840
S31508003B5CB83213B15B6801799847D4F8CC3213B1F3
S31508003B6C0023C4F8CC32204600F078FF20B9204652
S31508003B7CBDE8104000F060BF10BD37B500240546FF
S31508003B8CADF8064051B1C0F8B8120DF10600CB6A73
S31508003B9C9847C5F8CC02204603B030BD0320FBE796
S31508003BAC00F053BFD0F8B8320BB11B681847032086
S31508003BBC704708B5D0F8B8320BB15B689847002047
S31508003BCC08BD38B500F2AA250446284600F00EFBB7
S31508003BDC012394F8AA12C4F89432B4F8B032C4F893
S31508003BEC983201F01F03012B08D0022B0CD08BB98D
S31508003BFC29462046BDE8384000F0FAB82946204642
S31508003C0CBDE8384000F036BA29462046BDE83840AB
S31508003C1C00F056BA204601F08001BDE8384000F0A5
S31508003C2C3BBF70B5044616460D46F9B9D0F8943222
S31508003C3C032B0CD1D0E9573293420AD99B1A314639
S31508003C4C9A42C0F85C3128BF1A4600F016FB284683
S31508003C5C70BDD0F8B8321B6923B190F89C22032AA0
S31508003C6C00D19847204600F010FBF0E7D0F8B832A0
S31508003C7C9B6933B190F89C22032A02D1BDE87040A7
S31508003C8C18470325E3E770B5044616460D46D9BB17
S31508003C9CD0F89432022B0ED1D0E90732934213D9BD
S31508003CAC9A1A3146C26100F0E0FA2B462A46294692
S31508003CBC204600F015FF94F8A032012B02D1002300
S31508003CCC84F8A032284670BD0CD18269934209D873
S31508003CDCD0F898329A4205D20A4600F0C6FAC4F8C9
S31508003CEC9852E2E7D4F8B832DB682BB194F89C22E8
S31508003CFC032A01D1204698478021204600F0CCFEA5
S31508003D0C204600F0CDFAD6E7D0F8B8325B6933B165
S31508003D1C90F89C22032A02D1BDE870401847032567
S31508003D2CD0E70123002170B580F89C320446D0F800
S31508003D3CBC32C0F894124160C0F8A4121BB1D0F87A
S31508003D4CB8325B6898470022402501264023114665
S31508003D5C204600F08CFE2B46002280212046A4F833
S31508003D6C6461C4F8605100F082FE0020A6842562C6
S31508003D7C70BD01740020704790F89C3280F89D3213
S31508003D8C042380F89C320020704790F89C32042B50
S31508003D9C04BF90F89D3280F89C320020704708B515
S31508003DAC90F89C22032A04D1D0F8B832DB6903B107
S31508003DBC9847002008BD0020704700207047002057
S31508003DCC7047012208B580F89C22D0F8B82212B1A7
S31508003DDC526801799047002008BD10B50446802129
S31508003DEC00F05AFE00212046BDE8104000F054BEF3
S31508003DFCF7B50D7804460E4605F06005202D14D04F
S31508003E0C402D12D0002D40F0FE804F78092F00F27D
S31508003E1CFA80DFE817F0FF002101F8001701F80017
S31508003E2C82001300F800E8009E00D4F8B832314638
S31508003E3C20469B6803B0BDE8F04018470023ADF850
S31508003E4C06304B881A0A013A062A37D8DFE802F0F8
S31508003E5C041C293636505A00D0F8B4321B680DF1BA
S31508003E6C0601207C9847F288002A00F0F180BDF8FC
S31508003E7C06301BB39A42014628BF1A46ADF80620EF
S31508003E8C204600F0E5F91CE0027CD0F8B83232B9CD
S31508003E9C9B6A0DF10600984702234370E3E7DB6A39
S31508003EACF7E7DBB2052B09D8DFE803F0030E121689
S31508003EBC1A1ED0F8B4325B68002BD0D12046FFF717
S31508003ECC8CFF284603B0F0BDD0F8B4329B68F3E7F4
S31508003EDCD0F8B432DB68EFE7D0F8B4321B69EBE7FD
S31508003EECD0F8B4325B69E7E7D0F8B4329B69E3E7FC
S31508003EFC037C002BE2D1D0F8B8320DF106005B6BCF
S31508003F0C9847B0E7037C002BD8D1D0F8B8320DF11E
S31508003F1C06001B6B98470723BFE78B88002BCDD170
S31508003F2CCB88002BCAD14E887F2EC7D890F89C32E6
S31508003F3C032BC3D0F1B280F89E1200F0BFFD2046C9
S31508003F4C00F0A3F91EB1022384F89C32B9E70123C9
S31508003F5CFAE78E78464F012E3E7003D9FFF73DFFE0
S31508003F6C0325AEE790F89C32022B08D0032B14D00D
S31508003F7CFFF733FF39782046FFF71BFEF0E7002ED4
S31508003F8C66D001214160FFF70DFE05462046002D3F
S31508003F9C95D100F07AF90323D6E75EB902233146A8
S31508003FAC466080F89C32FFF704FE204600F06DF957
S31508003FBC354686E7416801294AD0C9B2FFF7F9FDAB
S31508003FCC397820466160FFF7EDFD064600283FD09C
S31508003FDC2046FFF702FF21792046FFF7EAFD022368
S31508003FEC84F89C32E4E7CA88012A7FF467AF90F814
S31508003FFC9C32022B05D833B10146002341F8083F01
S3150800400C3EE7032B04D020460025FFF7E6FE58E7CB
S3150800401C011D35E790F89C32013B022BF3D8CB886F
S3150800402C022B7FF44BAF0123C360D0F8A4320BB13B
S3150800403C0323C360022204F10C0120463D4600F01E
S3150800404C07F93EE74B88012B7FF43BAFC4F8A43243
S3150800405C204600F01AF934E790F89C32013B022B03
S3150800406CD1D84B88012B7FF42CAF0023EEE700BF89
S3150800407C2E4A002470B50B7804460E4603F06002EF
S3150800408C402A01D05B0616D494F89C32013B022BCD
S3150800409C11D83379012B0ED8D4F8B83231462046CC
S315080040AC9B689847F38805461BB910B9204600F05B
S315080040BCECF8284670BD20460025FFF78EFEF8E77B
S315080040CC70B50B7804460D4603F06003202B29D0F7
S315080040DC402B27D0A3BB6B788A88012B097940D053
S315080040EC032B27D063BB90F89C32022B59D0032B99
S315080040FC26D101F00F0312F0800F4FF0140202FBC9
S3150800410C03035FD09B8CDBB101F07F05013505EB12
S3150800411C850500EB850511F07F035FD12B60022224
S3150800412C29464BE0D4F8B832294620469B68BDE8A8
S3150800413C7040184790F89C32022B29D0032B03D0D9
S3150800414C2046FFF74AFE0AE06B882BB94A0603D0CD
S3150800415CEB880BB900F0A0FC204600F096F800207E
S3150800416C70BD90F89C32022B12D0032BE8D16B88C9
S3150800417C002BF4D14E0601D000F097FC204600F037
S3150800418C84F8D4F8B832294620469B689847E6E75F
S3150800419C4B06D5D000F080FC8021204600F07CFC34
S315080041ACDDE74906CCD113064FF000034FF00202A7
S315080041BC4CBF00F1140100F5AA710B60204600F003
S315080041CC47F8CCE7B3F86431002BB9D001F07F057A
S315080041DC142303FB050505F5AA759CE7204600F094
S315080041EC0BFC08B1012399E7286098E70B78037054
S315080041FC4B7843704B8843808B888380CB88C380ED
S3150800420C704710B50446802100F046FC0021204674
S3150800421CBDE8104000F040BC30B588B10024013828
S3150800422C23460134055D002DFAD1DBB201335B0060
S3150800423C13800B7003234B70022310F8012F02B95D
S3150800424C30BDCA545A1C0233D2B2DBB28D54F4E7D1
S3150800425C10B502241346C0F89442C0E906220A4651
S3150800426C002100F034FC002010BD08B513460A46A0
S3150800427C002100F02CFC002008BD08B513460A46A0
S3150800428C002100F02DFC002008BD08B50423C0F859
S3150800429C943200231A46194600F019FC002008BD72
S315080042AC08B50523C0F8943200231A46194600F0BF
S315080042BC17FC002008BD08B500F0B1F8FCE70000B3
S315080042CC10B500F0A3F8012814D00B4C2378012B59
S315080042DC10D1FFF77DFA094B094A1B68126813447B
S315080042EC03F5FA73984205D300232370BDE81040F2
S315080042FCFFF77AB810BD00BF344A0024304A0024B0
S3150800430C384A0024014B1860704700BF304A002415
S3150800431C014B1868704700BF304A002408B5044B97
S3150800432C1B78012B03D1FFF753FA024B186008BD13
S3150800433C344A0024384A002408B50122034B1A7063
S3150800434CFFF7ECFFBDE80840FFF7BABF344A002474
S3150800435C08B5FFF747F800F060F8FFF71BFAFFF708
S3150800436CFFF900F00FF8BDE80840FFF7E5BF08B500
S3150800437C00F055F8FFF720FA00F010F8BDE80840F1
S3150800438CFFF79EBF08B500F059F8FFF77FFA024B06
S3150800439C02221A7008BD00BF1000002407B5094890
S315080043AC0DF10701FFF7FEFA012807D1064B022289
S315080043BC9DF8071003481A7000F062F803B05DF810
S315080043CC04FB00BF3C4A002410000024FFF7AEBAD9
S315080043DC08B5054B1B78022B02D1C9B2FFF7B6FA02
S315080043ECBDE8084000F044B810000024044B1B78C4
S315080043FC013BDBB2022B9ABF024AD05C8120704784
S3150800440C100000247D570008FFF7F0BF08B500F030
S3150800441C25F8003818BF012008BDFBF773BFFBF75A
S3150800442C74BF0000034BFE221A7002225870A3F8C0
S3150800443C86207047C04A002400687047064B002245
S3150800444CC3F88820A3F8862083F88120A3F8822055
S3150800445C83F88420704700BFC04A0024034B93F8A6
S3150800446C8100003818BF0120704700BFC04A0024DD
S3150800447C024B002283F88420704700BFC04A0024F0
S3150800448CF8B5037805468A4CFF2B30D10122002358
S3150800449C84F8812041F2FF0284F88230A3702280CE
S315080044ACFFF7A4FFE070FFF7AFFF2071FFF7ACFF33
S315080044BC40F20113000AE38008236071A4F88630E1
S315080044CCFFF74EF994F88430012B02D11020FFF730
S315080044DCA9FFB4F98610002940F3E980012389B2B3
S315080044EC734884F88430BDE8F840FFF771BF94F838
S315080044FC8120012A40F0DB80D22B16D8C82B19D97B
S3150800450CC93B092B16D8DFE803F07F151589151555
S3150800451CCF96C3B8F33B0B2B0CD8DFE803F03E2839
S3150800452C0D350B0B0B590B61636D03F10D02D2B2F2
S3150800453C0B2AEFD9202005E0FFF758FF6A7890423E
S3150800454C03D82220FFF76EFFBCE7D4F88810594829
S3150800455CFEF76CFFFF236A782370D4F8883013446F
S3150800456CC4F888306B780133A4F88630AAE7FFF7CD
S3150800457C3DFF6B788342E4D2281DFFF75DFFC4F834
S3150800458C880001466A78E2E7FF23281D2370FFF7A7
S3150800459C53FFC4F888000123E6E7FF23281D0025EE
S315080045AC2370FFF749FFD4F888608719BE4208D1F3
S315080045BC0023012225716371E380627063800823EE
S315080045CCD2E716F8013B1D44EDB2FFF728FFEDE7DD
S315080045DC394BFF22C4F888300723C4E90023EEE7D9
S315080045EC0020AFE7FF23238094F88230A3700023C2
S315080045FCE370A3800623B7E7002384F8813084F898
S3150800460C8230FF232370C6E7D4F88860FFF7EEFEE6
S3150800461C6A1C411E3046FFF7A5F808B9312091E708
S3150800462CFF232370FFF7E2FED4F8883001380344E1
S3150800463CC4F88830AFE7FFF7D9FE6B780138984293
S3150800464C7FF77FAFFF2323700123A4F886306978A0
S3150800465C29B9FFF78FF800287FF434AFDEE7AA1CD8
S3150800466CD4F88800FFF77EF80028D7D06A78D4F8F3
S3150800467C88301344C4F8883024E7FF2300252380A8
S3150800468CA570FFF7B3FE0723E070A580A5716BE74D
S3150800469CD4F888300430FFF7CFFE01461846FFF7EA
S315080046AC63F80028ADD1B9E7FEF79EFEA9E7F8BD79
S315080046BCC04A0024C14A00248057000820230380DE
S315080046CC004870474C0000240A23038000487047B2
S315080046DC6C00002408B590F89C32032B01D1FFF727
S315080046ECABF9002008BD08B5FFF7A6F9002008BDF0
S315080046FC084608B5FFF7E0F9002008BD10B50446D2
S3150800470C812100F0C0F90121204600F0BCF90020F7
S3150800471C10BD000010B5044640230222812100F08A
S3150800472CA6F9402302220121204600F0A0F94023D5
S3150800473C034A0121204600F0D3F9002010BD00BF22
S3150800474C4C4B002410B50A78044612F0600F12D1AF
S3150800475C4A780A2A14D00B2A15D0062A0BD14A886D
S3150800476C120A212A09D1CA880B49172A28BF1722E7
S3150800477C2046FFF76DFD002010BD08491722F7E704
S3150800478C01220749F5E78B7813B9054A1360F2E756
S3150800479CFFF737FDEFE700BF5E0000245500002445
S315080047AC8C4B0024004870474C4B002412230148BC
S315080047BC0B80704794000024042301480B80704733
S315080047CCA8000024002370B54D1C1E46040FB0F13A
S315080047DC204F4FEA001034BF3034373401F81340F9
S315080047EC05F813600133DCB2A242EFD870BD0000A5
S315080047FC1A2310B50B800A4BD3F80008D3F80828EF
S3150800480C80180AD0D3F8044808220649FFF7DAFFBD
S3150800481C042210312046FFF7D5FF034810BD00BF10
S3150800482C00F0FF08AE000024AC00002410B5044CC0
S3150800483C0A4604482146FFF7EFFC204610BD00BF88
S3150800484C904B00248857000810B5044C0A460448B7
S3150800485C2146FFF7E1FC204610BD00BF904B002413
S3150800486C9557000810B5044C0A4604482146FFF72C
S3150800487CD3FC204610BD00BF904B0024A857000857
S3150800488C10B5044C0A4604482146FFF7C5FC2046D9
S3150800489C10BD00BF904B0024B057000800F2C4416D
S315080048ACD0F80805FFF78DB9242303FB0103D0F8CC
S315080048BC0805D3F88C22FFF7B4B9242303FB0103AC
S315080048CCD0F80805DA6CFFF7DEB9D0F80805FFF75B
S315080048DC66BA0000C16810B5044631B1022903D086
S315080048EC91210748FFF7E7FC0121D4F80805FFF7E3
S315080048FC40FAD4F80805BDE81040FFF712BA00BF15
S3150800490CC657000810B50446D0F80805FFF734FA60
S3150800491C2268D2F8003E43F00103C2F8003E236A2F
S3150800492C23B1044A136943F006031361BDE810402A
S3150800493CFBF7EEBC00ED00E010B50446FBF7E9FC0E
S3150800494CD4F80805BDE81040FFF71FBAD0F80805DB
S3150800495CFFF733BAD0F80805FFF72DBA10B5044699
S3150800496C0120FBF7D4FCD4F80805BDE81040FFF786
S3150800497C26BA10B504460020FBF7C9FCD4F808057E
S3150800498CBDE81040FFF71DBA08B502780346012AA0
S3150800499C2AD116484FF0020C1549C0F80835C3F849
S315080049ACC4020923C0E900130023C0E90622C0E9A2
S315080049BC03C3C0E90833C0E90A330363FCF744FEB2
S315080049CC20B14FF493710B48FFF775FC802107480B
S315080049DCFDF720FC402200210448FDF7FBFB802252
S315080049EC01210248FDF7F6FB002008BDEC00002467
S315080049FC00000440C657000811F0800FD0F8C432E6
S31508004A0C4FF0240217BF01F07F0102FB013102FBB4
S31508004A1C013191F83E0008BF91F87E027047D0F834
S31508004A2CC402FCF7CABF000003289ABF014B185CE6
S31508004A3C03207047E757000808B5D0F8C402FCF7FE
S31508004A4C8CFEBDE80840FFF7EFBF08B5D0F8C402E6
S31508004A5CFCF798FEBDE80840FFF7E6BF08B5D0F8A6
S31508004A6CC402FCF7AEFEBDE80840FFF7DDBF10B583
S31508004A7C1446D0F8C4021A462346FCF713FFBDE8C1
S31508004A8C1040FFF7D1BF08B5D0F8C402FCF742FFB7
S31508004A9CBDE80840FFF7C8BF08B5D0F8C402FCF754
S31508004AACB4FFBDE80840FFF7BFBF08B5D0F8C4028D
S31508004ABCFCF7E3FFBDE80840FFF7B6BF08B5D0F82A
S31508004ACCC402FCF7DBFEBDE80840FFF7ADBF08B52E
S31508004ADCD0F8C402FCF779FFBDE80840FFF7A4BF7D
S31508004AEC08B5D0F8C402FCF744FFBDE80840FFF748
S31508004AFC9BBF000070B50D4D0D4C641BA410002611
S31508004B0CA64209D10B4D0C4C00F020F8641BA410DE
S31508004B1C0026A64205D170BD55F8043B98470136C8
S31508004B2CEEE755F8043B98470136F2E7EC570008D0
S31508004B3CEC570008EC570008F057000802440346E7
S31508004B4C934200D1704703F8011BF9E7F8B500BF8B
S31508004B5CF8BC08BC9E467047F8B500BFF8BC08BC44
S30908004B6C9E4670479C
S31508004B7000000000010203040102030406070809F5
S31508004B8000000108002000000801000000200108BC
S31508004B900020000009010000004001080020000074
S31508004BA00A01000000600108002000000B01000057
S31508004BB000800108002000000C01000000A0010888
S31508004BC0002000000D01000000C0010800200000C0
S31508004BD00E01000000E00108002000000F0100009F
S31508004BE00000020800200000100100000020020852
S31508004BF0002000001101000000400208002000000B
S31508004C0012010000006002080020000013010000E5
S31508004C1000800208002000001401000000A002081D
S31508004C20002000001501000000C002080020000056
S31508004C301601000000E0020800200000170100002D
S31508004C4000000308002000001801000000200308E7
S31508004C5000200000190100000040030800200000A1
S31508004C601A01000000600308002000001B01000074
S31508004C7000800308002000001C01000000A00308B3
S31508004C80002000001D01000000C0030800200000ED
S31508004C901E01000000E00308002000001F010000BC
S31508004CA0000004080020000020010000002004087D
S31508004CB00020000021010000004004080020000038
S31508004CC02201000000600408002000002301000003
S31508004CD000800408002000002401000000A0040849
S31508004CE0002000002501000000C004080020000084
S31508004CF02601000000E0040800200000270100004B
S31508004D000000050800200000280100000020050812
S31508004D1000200000290100000040050800200000CE
S31508004D202A01000000600508002000002B01000091
S31508004D3000800508002000002C01000000A00508DE
S31508004D40002000002D01000000C00508002000001A
S31508004D502E01000000E00508002000002F010000D9
S31508004D6000000608002000003001000000200608A8
S31508004D700020000031010000004006080020000065
S31508004D803201000000600608002000003301000020
S31508004D9000800608002000003401000000A0060874
S31508004DA0002000003501000000C0060800200000B1
S31508004DB03601000000E00608002000003701000068
S31508004DC0000007080020000038010000002007083E
S31508004DD000200000390100000040070800200000FC
S31508004DE03A01000000600708002000003B010000AF
S31508004DF000800708002000003C01000000A007080A
S31508004E00002000003D01000000C007080020000047
S31508004E103E01000000E00708002000003F010000F6
S31508004E2000000808002000004001000000200808D3
S31508004E300020000041010000004008080020000092
S31508004E40420100000060080800200000430100003D
S31508004E5000800808002000004401000000A008089F
S31508004E60002000004501000000C0080800200000DE
S31508004E704601000000E00808002000004701000085
S31508004E800000090800200000480100000020090869
S31508004E900020000049010000004009080020000029
S31508004EA04A01000000600908002000004B010000CC
S31508004EB000800908002000004C01000000A0090835
S31508004EC0002000004D01000000C009080020000075
S31508004ED04E01000000E00908002000004F01000014
S31508004EE000000A08002000005001000000200A08FF
S31508004EF0002000005101000000400A0800200000C0
S31508004F005201000000600A0800200000530100005A
S31508004F1000800A08002000005401000000A00A08CA
S31508004F20002000005501000000C00A08002000000B
S31508004F305601000000E00A080020000057010000A2
S31508004F4000000B08002000005801000000200B0894
S31508004F50002000005901000000400B080020000056
S31508004F605A01000000600B08002000005B010000E9
S31508004F7000800B08002000005C01000000A00B0860
S31508004F80002000005D01000000C00B0800200000A2
S31508004F905E01000000E00B08002000005F01000031
S31508004FA000000C08002000006001000000200C082A
S31508004FB0002000006101000000400C0800200000ED
S31508004FC06201000000600C08002000006301000078
S31508004FD000800C08002000006401000000A00C08F6
S31508004FE0002000006501000000C00C080020000039
S31508004FF06601000000E00C080020000067010000C0
S3150800500000000D08002000006801000000200D08BF
S31508005010002000006901000000400D080020000083
S315080050206A01000000600D08002000006B01000006
S3150800503000800D08002000006C01000000A00D088B
S31508005040002000006D01000000C00D0800200000CF
S315080050506E01000000E00D08002000006F0100004E
S3150800506000000E08002000007001000000200E0855
S31508005070002000007101000000400E08002000001A
S315080050807201000000600E08002000007301000095
S3150800509000800E08002000007401000000A00E0821
S315080050A0002000007501000000C00E080020000066
S315080050B07601000000E00E080020000077010000DD
S315080050C000000F08002000007801000000200F08EB
S315080050D0002000007901000000400F0800200000B1
S315080050E07A01000000600F08002000007B01000024
S315080050F000800F08002000007C01000000A00F08B7
S31508005100002000007D01000000C00F0800200000FC
S315080051107E01000000E00F08002000007F0100006B
S3150800512000001008002000000002000000201008FF
S3150800513000200000010200000040100800200000C6
S3150800514002020000006010080020000003020000B0
S3150800515000801008002000000402000000A01008CB
S31508005160002000000502000000C010080020000012
S315080051700602000000E010080020000007020000F8
S315080051800000110800200000080200000020110895
S31508005190002000000902000000401108002000005D
S315080051A00A02000000601108002000000B0200003F
S315080051B000801108002000000C02000000A0110861
S315080051C0002000000D02000000C0110800200000A9
S315080051D00E02000000E01108002000000F02000087
S315080051E0000012080020000010020000002012082B
S315080051F000200000110200000040120800200000F4
S3150800520012020000006012080020000013020000CD
S3150800521000801208002000001402000000A01208F6
S31508005220002000001502000000C01208002000003F
S315080052301602000000E01208002000001702000015
S3150800524000001308002000001802000000201308C0
S31508005250002000001902000000401308002000008A
S315080052601A02000000601308002000001B0200005C
S3150800527000801308002000001C02000000A013088C
S31508005280002000001D02000000C0130800200000D6
S315080052901E02000000E01308002000001F020000A4
S315080052A00000140800200000200200000020140856
S315080052B00020000021020000004014080020000021
S315080052C022020000006014080020000023020000EB
S315080052D000801408002000002402000000A0140822
S315080052E0002000002502000000C01408002000006D
S315080052F02602000000E01408002000002702000033
S3150800530000001508002000002802000000201508EB
S3150800531000200000290200000040150800200000B7
S315080053202A02000000601508002000002B02000079
S3150800533000801508002000002C02000000A01508B7
S31508005340002000002D02000000C015080020000003
S315080053502E02000000E01508002000002F020000C1
S315080053600000160800200000300200000020160881
S31508005370002000003102000000401608002000004E
S315080053803202000000601608002000003302000008
S3150800539000801608002000003402000000A016084D
S315080053A0002000003502000000C01608002000009A
S315080053B03602000000E01608002000003702000050
S315080053C00000170800200000380200000020170817
S315080053D000200000390200000040170800200000E5
S315080053E03A02000000601708002000003B02000097
S315080053F000801708002000003C02000000A01708E3
S31508005400002000003D02000000C017080020000030
S315080054103E02000000E01708002000003F020000DE
S3150800542000001808002000004002000000201808AC
S31508005430002000004102000000401808002000007B
S315080054404202000000601808002000004302000025
S3150800545000801808002000004402000000A0180878
S31508005460002000004502000000C0180800200000C7
S315080054704602000000E0180800200000470200006D
S315080054800000190800200000480200000020190842
S315080054900020000049020000004019080020000012
S315080054A04A02000000601908002000004B020000B4
S315080054B000801908002000004C02000000A019080E
S315080054C0002000004D02000000C01908002000005E
S315080054D04E02000000E01908002000004F020000FC
S315080054E000001A08002000005002000000201A08D8
S315080054F0002000005102000000401A0800200000A9
