S00C000050726F672E7372656380
S3150801000000000824190D0108410C0108450C0108D6
S31508010010490C01084D0C0108510C010800000000AB
S31508010020000000000000000000000000550C010857
S31508010030590C0108000000005D0C0108610C01085B
S31508010040AD0D0108AD0D0108AD0D0108AD0D010895
S31508010050AD0D0108AD0D0108AD0D0108AD0D010885
S31508010060AD0D0108AD0D0108AD0D0108AD0D010875
S31508010070AD0D0108AD0D0108AD0D0108AD0D010865
S31508010080AD0D0108AD0D0108AD0D0108AD0D010855
S31508010090AD0D0108AD0D0108AD0D0108AD0D010845
S315080100A0AD0D0108AD0D0108AD0D0108AD0D010835
S315080100B0AD0D0108AD0D0108AD0D0108AD0D010825
S315080100C0AD0D0108AD0D0108AD0D0108AD0D010815
S315080100D0AD0D0108AD0D0108AD0D0108AD0D010805
S315080100E0AD0D0108AD0D0108AD0D0108AD0D0108F5
S315080100F0AD0D0108AD0D0108AD0D0108AD0D0108E5
S31508010100AD0D0108AD0D0108AD0D0108AD0D0108D4
S31508010110AD0D0108AD0D0108AD0D0108AD0D0108C4
S31508010120AD0D0108AD0D0108AD0D0108AD0D0108B4
S31508010130AD0D01080000000000000000AD0D01082A
S31508010140AD0D0108AD0D0108AD0D0108AD0D010894
S31508010150AD0D0108AD0D0108AD0D0108AD0D010884
S31508010160AD0D0108AD0D0108AD0D0108AD0D010874
S31508010170AD0D0108AD0D0108AD0D0108AD0D010864
S31508010180AD0D0108AD0D0108AD0D0108AD0D010854
S31508010190AD0D0108AD0D0108AD0D0108AD0D010844
S315080101A0AD0D0108AD0D0108AD0D0108AD0D010834
S315080101B0AD0D0108AD0D0108AD0D0108AD0D010824
S315080101C0AD0D0108AD0D010800000000000000009A
S315080101D00000000000000000AD0D0108000000004D
S315080101E00000000000000000000000000000000000
S315080101F00000000000000000AD0D0108AD0D01086A
S31508010200AD0D0108AD0D010800000000AD0D010896
S31508010210AD0D0108AD0D0108AD0D0108AD0D0108C3
S31508010220AD0D0108AD0D0108AD0D01080000000076
S31508010230AD0D0108AD0D010800000000AD0D010866
S31508010240AD0D0108AD0D0108AD0D0108AD0D010893
S31508010250AD0D0108AD0D0108AD0D0108AD0D010883
S31508010260AD0D0108AD0D0108AD0D0108AD0D010873
S31508010270AD0D0108AD0D0108AD0D01080000000026
S31508010280AD0D0108AD0D010800000000AD0D010816
S3150801029000000000AD0D0108AD0D0108AD0D010806
S315080102A0AD0D0108AD0D0108AD0D0108EE11AA55F8
S315080102B010B5054C237833B9044B13B10448AFF391
S315080102C000800123237010BD4004002400000000B3
S315080102D0AC1C010808B5034B1BB103490348AFF32E
S315080102E0008008BD0000000044040024AC1C01087D
S315080102F008B500F03BF800F011F8BDE8084000F039
S3150801030009B800BF08B500F011F8BDE8084000F0CB
S3150801031003B800BF704700BF704700BF00224FF403
S315080103208041014800F05EBF0004025838B50C4D03
S3150801033000F01EF82B68C31AB3F57A7F06D3094B6A
S3150801034004461A781AB100221A702C6038BD0122A7
S315080103504FF4006104481A7000F044FFF5E700BF46
S31508010360600400245C04002400180258704700BF8A
S3150801037000F080BD484A4FF0FF31484B10B5C3F82D
S31508010380B010136823F00F0343F0010313601368D9
S3150801039003F00F03012BFAD14149404BCA6822F0F9
S315080103A03F0242F00402CA608A6942F440428A6105
S315080103B01A6842F480321A601A689203FCD5986A60
S315080103C0384A20F00300354940F002009862D86A9D
S315080103D040F48030D862D86A40F40030D862D86ACE
S315080103E040F48020D862D86A40F00C00D862D86AF6
S315080103F020F00200D862986A20F47C7040F0200050
S315080104009862186B024042F00B021A631A6B22F4C7
S315080104107E4242F400721A631A6B22F4FE0242F417
S3150801042000321A631A6B22F0FE4242F040721A63D6
S315080104301A6842F080721A600B689B01FCD50B6939
S31508010440164C23F0070343F003030B61236903F0FA
S315080104503803182BFAD1A369134823F00F03A361B4
S31508010460E36923F07003E361E36923F4E063E3617D
S31508010470A36923F07003A361236A23F0700323623F
S3150801048001F082FB002000F093FC236923F0FE7340
S3150801049043F40403236110BD0020005200440258AE
S315080104A00048025800FEFFFF00A24A0400000000AF
S315080104B0CD4ACE4B2DE980489A6097B000F09EFC54
S315080104C0FFF758FFCA4B0022CA48CB490D92CDE91E
S315080104D01022CDE91222CDE91422CDE90E22D3F854
S315080104E0402142F48072C3F84021D3F8402102F436
S315080104F080720192019AD3F8402142F04002C3F872
S315080105004021D3F8402102F040020292029AD3F820
S31508010510402142F48062C3F84021D3F8402102F415
S3150801052080620392039AD3F8402142F00802C3F885
S315080105304021D3F8402102F008020492049AD3F824
S31508010540402142F00402C3F84021D3F8402102F0C9
S3150801055004020592059AD3F8402142F01002C3F825
S315080105604021D3F8402102F010020692069AD3F8E8
S31508010570402142F00202C3F84021D3F8402102F09B
S3150801058002020792079AD3F8402142F40072C3F88F
S315080105904021D3F8402102F400720892089AD3F850
S315080105A0402142F00102C3F84021D3F8402102F06C
S315080105B001020992099AD3F8402142F02002C3F8B0
S315080105C04021D3F8402102F020020A920A9AD3F870
S315080105D0402142F08002C3F84021D3F8403103F0AC
S315080105E080030B930B9A4FF46022844B9A61844BD8
S315080105F0844A83614FF000638B6108238361062374
S315080106008B610F23D16821F00F0193FAA3F30BB184
S31508010610B3FA83F308227B4802FA03F31943F0235A
S31508010620C160C16821F0F00193FAA3F30BB1B3FAE3
S3150801063083F30822734802FA03F319430F23C160AF
S31508010640016921F00F0193FAA3F30BB1B3FA83F30E
S3150801065008226C4802FA03F31943F0230161416940
S3150801066021F0F00193FAA3F30BB1B3FA83F3022253
S31508010670644802FA03F319434FF4706341618168D0
S3150801068021F4706193FAA3F30BB1B3FA83F307224A
S315080106905C48002540F2011702FA03F301261022ED
S315080106A0564C0B43DFF864A1DFF864B14FF0030839
S315080106B083600CA80C924FF00009ADF83C708DF8D8
S315080106C03E600E9500F0E0FE202200230CA8ADF84E
S315080106D03C708DF83E600E95CDE90C2300F0D4FEF2
S315080106E04FF4807200230CA8ADF83C708DF83E607B
S315080106F00E95CDE90C2300F0C7FE4FF400520023F6
S315080107000CA8ADF83C708DF83E600E95CDE90C232A
S3150801071000F0BAFE042200230CA8ADF83C700027AD
S315080107208DF83E6000260E95CDE90C2300F0ACFE4F
S31508010730E36848F2331210A923F440732D48E360A5
S31508010740E36823F44063E360E36823F4403343F446
S315080107508033E360DAF80C3023F04063CAF80C30D2
S31508010760DBF80C3023F03003CBF80C30236823F484
S3150801077040732360236823F440632360236823F4CA
S3150801078040332360DAF8003023F04063CAF80030BA
S31508010790DBF8003023F030039FED0D8BCBF80030EA
S315080107A002239FED0DBBCDE91023CDE912898DED0D
S315080107B0148B00F063FFFF22022310A912489FED54
S315080107C0089BCDE91023CDE9126723E0AFF300803A
S315080107D0000000000C000000000000000E000000F0
S315080107E000000000090000000000010800ED00E01B
S315080107F00044025800180258000002580020025806
S31508010800000004080004005800280258000802588D
S31508010810001C02588DED14BB00F030FF4FF4007236
S31508010820022310A996489FED92ABCDE91023CDE995
S3150801083012898DED149B00F021FF8022022310A955
S315080108409048CDE91023CDE912898DED14AB00F05E
S3150801085015FF4CF20772022310A98A48CDE9102325
S31508010860CDE912898DED148B00F008FF4FF4F8528B
S31508010870022310A95046CDE91023CDE912898DED41
S31508010880148B00F0FBFE0E22012310A920461495B5
S31508010890CDE91023CDE9126700F0F0FE4FF6837219
S315080108A0022310A97848CDE91023CDE912898DEDE7
S315080108B0148B00F0E3FE40F60C02012310A97048E0
S315080108C01495CDE91023CDE9126700F0D7FE4FF64E
S315080108D0FF72022310A96D489FED67CBCDE910235E
S315080108E0CDE912678DED14BB00F0C8FE4FF48052B6
S315080108F0022310A96648CDE91023CDE912678DEDCB
S3150801090014CB00F0BBFE40F60602012310A960488D
S315080109101495CDE91023CDE9126700F0AFFE4FF427
S31508010920C062022310A95A48CDE9102300220723E1
S31508010930CDE91267CDE9142300F0A0FE4FF63F0278
S31508010940022310A95348CDE91023CDE912898DED6B
S31508010950148B00F093FE4FF48072022310A94C48C1
S31508010960CDE91023CDE91267CDE9146700F086FEBB
S315080109704022022310A94248CDE91023CDE9128964
S315080109808DED14AB00F07AFE4FF47042022310A9E4
S315080109902046CDE910238DED14BBCDE9126700F091
S315080109A06DFE0C22022310A95046CDE910238DEDC8
S315080109B014CBCDE9126700F061FE4FF440520223D1
S315080109C010A93048CDE9102300220123CDE91223CD
S315080109D001220423CDE9142300F050FE222202232A
S315080109E010A95046CDE910238DED14ABCDE9128936
S315080109F000F044FEE022022310A95846CDE910234F
S31508010A008DED148BCDE9128900F038FE08220223F8
S31508010A1010A95846CDE91023CDE912898DED149B0D
S31508010A2000F02CFE0422022310A91B48CDE910234D
S31508010A30CDE912898DED149B00F020FE1748184A5E
S31508010A400923022105610260012243600023C16076
S31508010A504563C0E90623C0E90867C0E90B5500F0FC
S31508010A60C5FBFFF745FCFFF74DFCFCE7AFF300803C
S31508010A70000000000A000000000000000500000058
S31508010A8000180258000C0258001002580024025897
S31508010A900000025800140258000402586804002491
S31508010AA000000440074B82B0D3F8542142F00202F9
S31508010AB0C3F85421D3F8543103F002030193019B7F
S31508010AC002B0704700440258554A00230168F0B540
S31508010AD091428FB0CDE90833CDE90A330C9301D0A1
S31508010AE00FB0F0BD4F4C43F623404F4A0221636DC8
S31508010AF00A250026022723F4401343F4801363656D
S31508010B00D36843F08073D3600222D4F8403143F0AE
S31508010B100203C4F84031D4F8403103F002030193CB
S31508010B20019BD4F8403143F48073C4F84031D4F8BA
S31508010B30403103F480730293029BD4F8403143F0A9
S31508010B400403C4F84031D4F8403103F00403039395
S31508010B50039BD4F8403143F08003C4F84031D4F8FC
S31508010B60403103F080030493049BD4F8403143F0E9
S31508010B700103C4F84031D4F840310B9203F0010364
S31508010B800C95CDE90801059308A92848059B00F0AD
S31508010B90EFF94FF40062022308A925480C95CDE91F
S31508010BA00823CDE90A6700F0E3F90122022308A91F
S31508010BB020480C95CDE90823CDE90A6700F0D8F954
S31508010BC01022022308A91C480C95CDE90823CDE972
S31508010BD00A6700F0CDF92822022308A917480C95BF
S31508010BE0CDE90823CDE90A6700F0C2F9D4F838310E
S31508010BF043F00073C4F83831D4F8383103F0007380
S31508010C000693069BD4F8383143F08063C4F838312B
S31508010C10D4F8383103F080630793079B0FB0F0BD12
S31508010C2000000440004402580048025800040258D3
S31508010C300020025800080258001C025800000258F9
S31508010C40704700BFFEE700BFFEE700BFFEE700BF33
S31508010C50FEE700BF704700BF704700BF704700BF7F
S31508010C6000F0FCB82449254AD1F8883043F47003CA
S31508010C7010B4C1F88830136803F00F03022B05D8A6
S31508010C80136823F00F0343F0030313601C4B00247E
S31508010C901C4A1968194841F0010119601C61196853
S31508010CA00A401A60036813F00C0F05D0036823F095
S31508010CB00F0343F003030360114B00221249134C3F
S31508010CC013489A61DA611A629C6243F2D204D862C5
S31508010CD019635A639963DA6319645A6419680D4882
S31508010CE021F4802119601A664FF00062024B0460F4
S31508010CF05DF8044B9A60704700ED00E00020005251
S31508010D00004402587FEDF6EA800201010002020260
S31508010D100000FF0100400052DFF864D0FFF7A2FF90
S31508010D20184819494FF0000201E040F8042B88429F
S31508010D30FBD316481649174A03E052F8043B40F814
S31508010D40043B8842F9D314481449154A03E052F87A
S31508010D50043B40F8043B8842F9D3D458C4500433C1
S31508010D60C4188C42F9D30F4A0F4C002301E01360D3
S31508010D700432A242FBD300F00DFFFFF799FB70473F
S31508010D8000000824000018080000180800000024C4
S31508010D903C040024E41C010800000824000008247F
S31508010DA000000824400400247C090024FEE7000012
S31508010DB00F4B1B780BB90120704710B504464FF449
S31508010DC07A700C4AB0FBF3F31068B0FBF3F000F04D
S31508010DD0B9F80F2C00D808B1012010BD0022214610
S31508010DE04FF0FF3000F070F8034B00201C6010BD77
S31508010DF008000024000000240C00002410B503207C
S31508010E00124C00F04FF800F09FFA114B11499A69FC
S31508010E109B69C2F3032203F00F038A5CCB5C02F0E1
S31508010E201F020D4903F01F03D04020FA03F308609F
S31508010E3000202360FFF7BCFF10B10124204610BD36
S31508010E400446FFF72FFE204610BD00BF040000240C
S31508010E5000440258C41C010800000024034A044B3C
S31508010E6011681B780B441360704700BF740900248E
S31508010E7008000024014B1868704700BF7409002454
S31508010E8038B50446FFF7F6FF0546631C02D0044B46
S31508010E901B781C44FFF7EEFF431BA342FAD338BD68
S31508010EA00800002406494FF6FF0C0002054BCA68E4
S31508010EB000F4E06002EA0C0210430343CB6070477A
S31508010EC000ED00E00000FA051B4BDB68C3F30223C3
S31508010ED000B5C3F1070E03F1040CBEF1040F28BFD8
S31508010EE04FF0040EBCF1060F1AD9033B4FF0FF3C35
S31508010EF00CFA03FC22EA0C024FF0FF3C00280CFA1C
S31508010F000EFC21EA0C0101FA03F141EA02010ADBAE
S31508010F1009010A4BC9B2034483F800135DF804FBBF
S31508010F2000221346E8E700F00F000901044BC9B295
S31508010F30034419765DF804FB00ED00E000E100E0EA
S31508010F40FCEC00E0431EB3F1807F0CD24FF0E022A7
S31508010F50002006494FF0F00C5361072381F823C09E
S31508010F609061136170470120704700BF00ED00E0F2
S31508010F702DE9F04F0C6883B0002C00F0A6804FF0E5
S31508010F80000C8E4F634601229A4012EA040E00F0C5
S31508010F9095804D6805F0030909F1FF36012E40F2E7
S31508010FA09780B9F1030F40F0D18009FA0CF26FEA84
S31508010FB00208066815F4403F06EA080842EA0802EC
S31508010FC002607BD0D7F8542123F0030803F0030904
S31508010FD042F0020208F1B0484FEA8909C7F85421DC
S31508010FE008F58068D7F8542102F002020192019AA5
S31508010FF00F22D8F8086002FA09F226EA0202704EB0
S31508011000B04229D006F58066B04200F0AC806D4E3C
S31508011010B04200F0AE806C4EB04200F09E806B4E3E
S31508011020B04200F0B2806A4EB04200F0B480694E18
S31508011030B04200F0A480684EB04200F0B280674E1C
S31508011040B04200F0B480664EB0420CBF09260A26AB
S3150801105006FA09F942EA0902C8F808204FF0B0422F
S31508011060EE026FEA0E0812684FF0B04654BF08EA5E
S3150801107002024EEA02023260AA0276684FF0B042D4
S3150801108054BF08EA06064EEA06065660D2F8846098
S31508011090AA034FF0B04254BF08EA06064EEA06060E
S315080110A0ED034FF0B045C2F88460D2F8802054BFF2
S315080110B008EA02024EEA0202C5F8802001330CF161
S315080110C0020C34FA03F27FF45EAF03B0BDE8F08F89
S315080110D04FF00308866808FA0CF826EA080ACE686B
S315080110E06FEA080806FA0CF646EA0A068660C5F3A8
S315080110F00016D0F804A09E402AEA02023243426052
S31508011100C268B9F1020F8E6802EA080206FA0CF6FD
S3150801111046EA020609FA0CF2C6607FF44AAF03F002
S3150801112007064FEAD3094FEA860B0F2600EB890912
S3150801113006FA0BF6D9F820A02AEA060A0E6906FA73
S315080111400BF646EA0A06C9F8206032E74FF00308AB
S3150801115008FA0CF86FEA0808D2E7032606FA09F92D
S3150801116042EA090278E7012606FA09F942EA09027A
S3150801117072E7022606FA09F942EA09026CE7062627
S3150801118006FA09F942EA090266E7042606FA09F99E
S3150801119042EA090260E7052606FA09F942EA09025E
S315080111A05AE7072606FA09F942EA090254E7082620
S315080111B006FA09F942EA09024EE700BF0044025855
S315080111C00000025800080258000C02580010025884
S315080111D00014025800180258001C02580020025830
S315080111E00024025802B9090481617047F0B58BB031
S315080111F0002800F0888090F8BD340546046803F09D
S31508011200FF02002B79D0204603232E462F1D85F891
S31508011210BD34E36B6C4613F4807308BF2B6100F091
S3150801122051FB56F810EBB446BCE80F000FC4BCE8F6
S315080112300F000FC49CE8030084E80300704697E892
S315080112400E0000F09DFA044630B10124022320461F
S3150801125085F8BD340BB0F0BD0146286800F03AFBAD
S31508011260686858B322464FF0010E214602EBC203C5
S3150801127002F1010C05EB830383F83C20A3F8442013
S315080112805FFA8CF283F83DE0824283F84010596593
S31508011290C3E91211EAD3002204EBC403611C05EB6E
S315080112A0830383F87C42CCB283F87D22844283F897
S315080112B08022C3F89422C3E9A222EDD36C460FCE4D
S315080112C00FC40FCE0FC496E8030084E8030097E81D
S315080112D00E00286800F034FB04460028B5D1012227
S315080112E06B6A85F83800934285F8BD240FD02868C3
S315080112F000F03AFC20460BB0F0BD80F8BC24FFF79D
S31508011300E3FB286880E7012420460BB0F0BD284698
S3150801131000F002F8EBE700BF03464FF0000C09495D
S315080113201A68604610B4012483F8F4C4C3F800456A
S3150801133093695DF8044B43F000639361536D194358
S315080113405165704703000010474A136903F03803D3
S31508011350102B04D0182B0DD01BB1444870474448B4
S315080113607047136899064AD513684248C3F3C103FF
S31508011370D8407047936A30B4946AD56A14F47C7F6E
S31508011380516BC4F3051038D0C1F3CC0105F0010542
S3150801139003F0030305FB01F1012B07EE901AB8EEE2
S315080113A0E77A02D0022B2CD093B307EE900ADFED31
S315080113B0326AF8EEE77A136B86EEA76ADFED2F5AE3
S315080113C0C3F3080306EE903AB7EE005AF8EEE66A5A
S315080113D076EE856AE7EE256A66EE266A224B1B6B70
S315080113E0C3F34623013307EE903AB8EEE77AC6EE21
S315080113F0877AFCEEE77A17EE900A30BC70471D48EB
S31508011400704707EE900ADFED1E6AF8EEE77AD2E733
S3150801141013689B0620D5146807EE900A1549B7EE9E
S31508011420006A136BC4F3C104F8EEE77A9FED135A09
S31508011430C3F30803E14006EE903A05EE901AF8EE7A
S31508011440E66AF8EEE55A76EE866A85EEA76AE7EE6B
S31508011450056A66EE266AC1E707EE900ADFED096AB4
S31508011460F8EEE77AA7E700BF0044025800093D00F5
S3150801147000366E010090D0030024744A000000393A
S31508011480001BB74B0024744CF0B4027B002A4BD0E6
S315080114900368002B75D10022436803B3417B4FF0E3
S315080114A0B045CF07D5F890404CBF1C439C4311F07B
S315080114B0020FC5F890404FF0B044D4F8941014BF09
S315080114C019439943C4F89410817B41B1022900F06C
S315080114D09780032900F08B8001297ED00122836839
S315080114E0002B4BD0417B4FF0B045CE07D5F8A04035
S315080114F04CBF1C439C4311F0020FC5F8A0404FF0A6
S31508011500B044D4F8A41014BF19439943C4F8A410DD
S31508011510817B99B3022956D0032900F0A5800129B8
S3150801152000F09880012229E04FF0B043D0F800C0BE
S31508011530D3F8801021EA0C01C3F88010D3F8901073
S31508011540476821EA0701C3F89010D3F8A0508668C6
S3150801155025EA0605C3F8A050D3F8844024EA0C040A
S31508011560C3F88440D3F8940020EA0700C3F894002E
S31508011570D3F8A41021EA0601C3F8A4101046F0BC5A
S315080115807047427B4FF0B044D507D4F880104CBF62
S315080115901943994312F0020FC4F880104FF0B04175
S315080115A0D1F8842014BF1A439A43C1F88420827B58
S315080115B0002A3FF470AF022A41D0032A35D0012A06
S315080115C028D0012268E74FF0B041086C20EA0300F1
S315080115D00864486C03434B64D0E74FF0B0414C6A4A
S315080115E024EA03044C620C6A23430B6277E74FF043
S315080115F0B0410C6A1C430C624C6A23434B626EE78A
S315080116004FF0B0410C6A24EA03040C624C6A234386
S315080116104B6264E74FF0B04100224C6824EA0304A8
S315080116204C600C6823430B6036E74FF0B04100224B
S315080116300C681C430C604C6823434B602CE74FF045
S31508011640B04100220C6824EA03040C604C68234369
S315080116504B6021E74FF0B041486C20EA030048642B
S31508011660086C03430B6489E74FF0B041086C1843D3
S315080116700864486C03434B6480E700BF2DE9F04FCB
S315080116800C6894FAA4F2B2FA82F234FA02F367D039
S315080116904FF0010C6FEA040E19E007FB07F3C66861
S315080116A00F6903EB430903FB07F726EA09086FEA03
S315080116B0090B47EA0807C760076803FB05F507EA48
S315080116C00B032B430360013234FA02F348D00CFAB8
S315080116D002F313EA0407F6D04D6807FB07F36E1EFB
S315080116E003EB4309012E6FEA090BD6D8D0F808A0F7
S315080116F0022D8E682AEA090A06FB03F8CE6848EA2B
S315080117000A0806FB04FA0E69C0F80880D0F80480B6
S315080117100EEA080848EA0A08C0F804804FEA1728BA
S31508011720D0F80CA008FB08F82AEA090A06FB03F90F
S3150801173008FB08F849EA0A09C0F80C90BCD1FF2F42
S3150801174011D803FB03F74E69D0F8208006FB07F989
S31508011750C7EB071728EA070747EA09070762ABE74E
S315080117600020BDE8F08F4E69476A06FB08F9C8EB09
S31508011770081827EA080848EA090747629CE700BFEC
S3150801178084B0844600B583B00DF1140E8EE80E00C0
S315080117900A9B012B3ED1826BA3F14213119922F4C4
S315080117A0803201298263C26803EA0203C360C368FF
S315080117B023F44013C3607CD00023404A009303E01E
S315080117C0DCF81030002B41DB009B01330093009BB2
S315080117D09342F5D90320089B012B16D1DCF85C202E
S315080117E0374B92B2CCF85C20DCF85C201343CCF87A
S315080117F05C30DCF8083043F00603CCF80830DCF836
S31508011800083043F02003CCF8083003B05DF804EB48
S3150801181004B07047C3680021284A43F04003C360F7
S31508011820019103E0DCF81030002B2CDB019B01331E
S315080118300193019B9342F5D903200E9BE3B9DCF88A
S31508011840383043F48033CCF83830C4E700231B4AD8
S315080118500093DCF8103043F00103CCF8103004E0B3
S31508011860DCF8100010F00100B5D0009B013300939D
S31508011870009B9342F4D9ADE7DCF8383023F4803382
S31508011880CCF83830A7E700230C4A0193DCF810306E
S3150801189043F00103CCF8103004E0DCF8100010F036
S315080118A00100CAD0019B01330193019B9342F4D9EC
S315080118B0C2E7C36843F48013C3607DE7400D0300A4
S315080118C00000EE03034600209A6822F001029A609E
S315080118D0704700BF38B5C3680129054623F0C043E0
S315080118E0C36017D0A1B9C3680C4643F08043C360EF
S315080118F001E0322C0CD001200444FFF7C1FA6B69D0
S31508011900DB07F6D4A4F13200B0FA80F0400938BDFD
S31508011910012038BDC368002443F00053C36001E0C9
S31508011920322CF5D001200444FFF7AAFA6B69DA07CD
S31508011930F6D5A4F13200B0FA80F04009E7E700BF16
S3150801194084B02DE9F04383B00BAC159D84E80E00F5
S3150801195000230C46C0F80431C0F80831C0F80C3130
S31508011960C0F81031C0F81431C0F81831C0F81C316C
S31508011970C0F82031C0F82431C0F82831C0F82C311C
S31508011980C0F83031C0F83431C0F83831C0F83C31CC
S31508011990002D40F0AA80D0F8043800F5006C43F019
S315080119A00203CCF80430836B23F4001383630368C2
S315080119B043F040030360036843F080030360002398
S315080119C0C0F8003EDCF80030CCF80030109B012B43
S315080119D000F0B580DCF8003043F00303CCF80030A2
S315080119E000235E4A009303E00369002BC0F294804A
S315080119F0009B01330093009B9342F5D901210023F3
S31508011A00564A019302E00369002B75DB019B0133FA
S31508011A100193019B9342F6D901210022CCF81020AB
S31508011A20CCF81420CCF81C20DCB100F510634FF07B
S31508011A3090484FF0006917464FF67F3E07E01F6052
S31508011A4001321F61C3F808E02033944230D01E6882
S31508011A50002EF4DA12B1C3F80080F1E7C3F800905A
S31508011A60EEE7DCF81030002223F48073CCF810304E
S31508011A706FF08043826143610E9B1BB9836943F012
S31508011A80100383618269364B1343119A83611AB134
S31508011A90836943F008038361012D03D18269314BC0
S31508011AA013438361084603B0BDE8F04304B07047A9
S31508011AB0002200F530634FF090484FF00069174651
S31508011AC04FF67F3E07E01F6001321F61C3F808E049
S31508011AD020339442C5D01E68002EF4DA12B1C3F839
S31508011AE00080F1E7C3F80090EEE7836B00F5006C20
S31508011AF043F40013836362E70023184A0193102312
S31508011B00036102E00369DB0687D5019B0133019373
S31508011B10019B9342F6D97FE70023104A00934FF4BD
S31508011B208463036104E0016911F020013FF467AFA2
S31508011B30009B01330093009B9342F4D95EE70D9B0A
S31508011B4023B9DCF80030CCF8003049E7DCF800307E
S31508011B5043F00103CCF8003042E700BF400D030013
S31508011B6000383C800400004003460020D3F8002ECC
S31508011B7003F5006122F00302C3F8002ED3F80438F6
S31508011B8043F002034B607047014B1860704700BF72
S31508011B900000002470B50D4D0D4C641BA4100026E1
S31508011BA0A64209D10B4D0C4C00F080F8641BA41019
S31508011BB00026A64205D170BD55F8043B9847013663
S31508011BC0EEE755F8043B98470136F2E7D81C0108B9
S31508011BD0D81C0108D81C0108E01C0108024B13B1E6
S31508011BE0024800F005B8704700000000FD1B010817
S31508011BF0002301461A46184600F016B838B5074DAF
S31508011C00074C641BA4101CB9BDE8384000F054B851
S31508011C10013C55F824309847F5E700BFE01C010858
S31508011C20E41C0108704770472DE9F047DFF878A0F2
S31508011C300646DAF8000098460F469146FFF7F2FF86
S31508011C40184B1B68D3F848411CB903F5A674C3F8A9
S31508011C5048416568DAF800001F2D05DDFFF7E3FF47
S31508011C604FF0FF30BDE8F0879EB104EB85010122F4
S31508011C70C1F88890D4F88831AA401343C4F888314A
S31508011C80022EC1F8088102BFD4F88C311343C4F877
S31508011C908C316B1C0235636044F82570FFF7C3FF6E
S31508011CA00020DFE7D41C010838040024F8B500BF7A
S31508011CB0F8BC08BC9E467047F8B500BFF8BC08BC1E
S30908011CC09E46704776
S31508011CC400000000010203040102030406070809CF
S30908011CD410000024C9
S30D08011CD8DD1B0108D502010814
S30908011CE0B102010835
S31508011CE40090D0030090D00301000000100000000A
S31508011CF400000000FC02002464030024CC03002431
S31508011D0400000000000000000000000000000000C0
S31508011D1400000000000000000000000000000000B0
S31508011D2400000000000000000000000000000000A0
S31508011D340000000000000000000000000000000090
S31508011D440000000000000000000000000000000080
S31508011D540000000000000000000000000000000070
S31508011D640000000000000000000000000000000060
S31508011D740000000000000000000000000000000050
S31508011D840000000000000000000000000000000040
S31508011D94000000000000000001000000000000002F
S31508011DA40E33CDAB34126DE6ECDE05000B000000F4
S31508011DB40000000000000000000000000000000010
S31508011DC40000000000000000000000000000000000
S31508011DD400000000000000000000000000000000F0
S31508011DE400000000000000000000000000000000E0
S311080121140000000000000000780900240B
S70508010D19CB
