S0150000566563747278323032304837422E737265630E
S31508010000000008242DE301087D2E0108812E010830
S31508010010852E0108892E01088D2E01080000000091
S31508010020000000000000000000000000912E0108F9
S31508010030952E010800000000992E01089D2E010841
S31508010040C1E30108C1E30108C1E30108C1E30108ED
S31508010050A12E0108C1E30108C1E30108C1E30108B2
S31508010060C1E30108C1E30108C1E30108A52E01089E
S31508010070B12E0108BD2E0108C92E0108D52E010889
S31508010080E12E0108ED2E0108C1E30108C1E30108CB
S31508010090C1E30108C1E30108C1E30108F92E01081A
S315080100A0C1E30108C1E30108C1E30108C1E301088D
S315080100B00D2F0108C1E30108C1E30108C1E30108E5
S315080100C0C1E30108C1E30108C1E30108C1E301086D
S315080100D0C1E30108C1E30108C1E30108C1E301085D
S315080100E0C1E30108C1E30108C1E30108192F0108A9
S315080100F0C1E30108C1E30108C1E30108C1E301083D
S31508010100C1E30108352F0108C1E30108C1E301086C
S31508010110C1E30108C1E30108C1E30108C1E301081C
S31508010120C1E30108C1E30108C1E30108C1E301080C
S31508010130C1E301080000000000000000C1E3010856
S31508010140C1E30108C1E30108C1E30108C1E30108EC
S31508010150C1E30108C1E30108C1E30108C1E30108DC
S31508010160C1E30108C1E30108C1E30108C1E30108CC
S31508010170C1E30108412F0108C1E30108C1E30108F0
S31508010180C1E30108C1E30108C1E30108C1E30108AC
S31508010190C1E30108C1E30108C1E30108C1E301089C
S315080101A0C1E30108C1E30108C1E30108C1E301088C
S315080101B0C1E30108C1E30108C1E30108C1E301087C
S315080101C0C1E30108C1E301080000000000000000C6
S315080101D000000000000000004D2F0108000000008B
S315080101E00000000000000000000000000000000000
S315080101F00000000000000000C1E30108C1E3010896
S31508010200C1E30108C1E3010800000000C1E30108D8
S31508010210C1E30108C1E30108C1E30108C1E301081B
S31508010220C1E30108C1E30108C1E3010800000000B8
S31508010230C1E30108C1E3010800000000C1E30108A8
S31508010240692F0108752F0108C1E30108C1E30108F7
S31508010250C1E30108C1E30108C1E30108C1E30108DB
S31508010260C1E30108C1E30108C1E30108C1E30108CB
S31508010270C1E30108C1E30108C1E301080000000068
S31508010280C1E30108C1E3010800000000C1E3010858
S3150801029000000000C1E30108C1E30108C1E3010848
S315080102A0C1E30108C1E30108C1E30108EE11AA553A
S315080102B010B5054C237833B9044B13B10448AFF391
S315080102C000800123237010BD181D002400000000C2
S315080102D02464030808B5034B1BB103490348AFF36C
S315080102E0008008BD000000001C1D002424640308CA
S315080102F001F0FF01102A2BDB10F0070F08D010F8C8
S31508010300013B013A8B422DD010F0070F42B3F6D1CB
S31508010310F0B441EA012141EA014122F007047FF0E4
S3150801032000070023F0E80256083C85EA010586EA3B
S31508010330010685FA47F5A3FA87F586FA47F6A5FA77
S3150801034087F68EB9EED1F0BC01F0FF0102F0070283
S3150801035032B110F8013B013A83EA010313B1F8D12E
S315080103600020704701387047002D06BF354603380F
S31508010370073815F0010F07D1013015F4807F02BF48
S31508010380013015F4C03F0130F0BC0138704700BF99
S31508010390EC46A0E8F05F4FF000007047B0E8F05F68
S315080103A0E546080008BF0120704700BF10F8012B79
S315080103B011F8013B012A28BF9A42F7D0D01A704793
S315080103C0034613F8012B002AFBD1181A0138704786
S315080103D053B94AB9002908BF00281CBF4FF0FF319D
S315080103E04FF0FF3000F074B9ADF1080C6DE904CE99
S315080103F000F006F8DDF804E0DDE9022304B07047F1
S315080104002DE9F047089D04468E46002B4DD18A42B8
S31508010410944669D9B2FA82F252B101FA02F3C2F1EB
S31508010420200120FA01F10CFA02FC41EA030E94407C
S315080104304FEA1C48210CBEFBF8F61FFA8CF708FB9D
S3150801044016E341EA034306FB07F199420AD91CEB75
S31508010450030306F1FF3080F01F81994240F21C81A7
S31508010460023E63445B1AA4B2B3FBF8F008FB1033EF
S3150801047044EA034400FB07F7A7420AD91CEB040424
S3150801048000F1FF3380F00A81A74240F207816444F4
S31508010490023840EA0640E41B00261DB1D440002379
S315080104A0C5E900433146BDE8F0878B4209D9002DDD
S315080104B000F0EF800026C5E9000130463146BDE867
S315080104C0F087B3FA83F6002E4AD18B4202D38242D1
S315080104D000F2F980841A61EB030301209E46002D80
S315080104E0E0D0C5E9004EDDE702B9FFDEB2FA82F2D5
S315080104F0002A40F09280A1EB0C014FEA1C471FFA33
S315080105008CFE0126200CB1FBF7F307FB131140EA19
S3150801051001410EFB03F0884208D91CEB010103F1E6
S31508010520FF3802D2884200F2CB804346091AA4B2A8
S31508010530B1FBF7F007FB101144EA01440EFB00FE7C
S31508010540A64508D91CEB040400F1FF3102D2A645E1
S3150801055000F2BB800846A4EB0E0440EA03409CE780
S31508010560C6F12007B34022FA07FC4CEA030C20FA2D
S3150801057007F401FA06F31C43F9404FEA1C4900FA4D
S3150801058006F3B1FBF9F8200C1FFA8CFE09FB1811CA
S3150801059040EA014108FB0EF0884202FA06F20BD93D
S315080105A01CEB010108F1FF3A80F08880884240F28D
S315080105B08580A8F102086144091AA4B2B1FBF9F0D1
S315080105C009FB101144EA014100FB0EFE8E4508D9CC
S315080105D01CEB010100F1FF346CD28E456AD9023851
S315080105E0614440EA0840A0FB0294A1EB0E01A14236
S315080105F0C846A64656D353D05DB1B3EB080261EBA4
S315080106000E0101FA07F722FA06F3F1401F43C5E97D
S31508010610007100263146BDE8F087C2F12003D840B3
S315080106200CFA02FC21FA03F3914001434FEA1C47F5
S315080106301FFA8CFEB3FBF7F007FB10360B0C43EAE7
S31508010640064300FB0EF69E4204FA02F408D91CEB97
S31508010650030300F1FF382FD29E422DD90238634495
S315080106609B1B89B2B3FBF7F607FB163341EA034135
S3150801067006FB0EF38B4208D91CEB010106F1FF3884
S3150801068016D28B4214D9023E6144C91A46EA00467B
S3150801069038E72E46284605E70646E3E61846F8E60D
S315080106A04B45A9D2B9EB020864EB0C0E0138A3E756
S315080106B04646EAE7204694E74046D1E7D0467BE737
S315080106C0023B614432E7304609E76444023842E7AF
S315080106D0704700BF012200234CF6EF51C0F8F820FD
S315080106E0C0F80421C0F80831C0F8F410C0F80C317C
S315080106F0C0F83834C0F83C3410B4C0E93F22094C7C
S315080107004FF6FF72C0F88440C0F840245DF8044BE8
S31508010710C0E94A33C0E94833C0E94633C0E944333E
S31508010720704700BF580F1B004CF6EF5C38B5D0F880
S31508010730F440644509D01A4B02461A491B68D86821
S315080107401FF090FC0022104638BD102B07D0082B4D
S3150801075005D0154B002215491046196038BD02F11E
S31508010760FF3CBCF1010F0ED8312912DD0124002509
S31508010770C0F8F030C0F80051C0F80441C0E93A1297
S315080107802246104638BD084B002209491046196011
S3150801079038BD054B002207491046196038BD00BF10
S315080107A06C13002428080808383D00246C0808083A
S315080107B084080808A40808084CF6EF5310B5D0F8C1
S315080107C0F4409C4209D02E4B02462E491B68D86834
S315080107D01FF048FC0023184610BDFF2906D02AB190
S315080107E0294A002329491846116010BD06291CD932
S315080107F0FF293ED11368C0F888305368C0F88C3099
S315080108009368C0F89030D368C0F894301369C0F87B
S3150801081098305369C0F89C30012200211346C0F86C
S31508010820FC10C0F80421184610BD90F8803001EB81
S3150801083041014FF0A80C164A003B4FEAC10118BF07
S3150801084001230CFB031153185158D3F808E05A68D1
S31508010850D3F80CC0C0F88810C0F88C20C0F890E016
S31508010860C0F894C019695A69C0F89810C0F89C2054
S31508010870D2E7054A002307491846116010BD00BF93
S315080108806C13002428080808383D0024C008080805
S3150801089054090808FC08080838B5D0F8F4204CF6BD
S315080108A0EF5305469A4208D0684B024668491B68C9
S315080108B0D868BDE838401FF0D5BBD0F808310C46DA
S315080108C0B3B14B780F2B00F2B780E3780F2B00F208
S315080108D0AA8063790F2B00F29D80237A1F2B00F2E1
S315080108E09080637A1F2B00F28380A37A1F2B76D818
S315080108F0637822781B0203F470631344C5F8A030A9
S31508010900E378A2781B0203F470631344C5F8A43094
S31508010910637922791B0203F470631344C5F8A8307E
S31508010920A37903F01F03C5F8AC30E379DB4303F081
S315080109300103C5F8B030E37983F00203C3F340033A
S31508010940C5F8B430E37983F00403C3F38003C5F82B
S31508010950B830E37983F00803C3F3C003C5F8BC30A4
S31508010960E37983F01003C3F30013C5F8C030E379C4
S3150801097083F02003C3F34013C5F8C430237A03F088
S315080109800F03C5F8C830637A03F00F03C5F8CC30F6
S31508010990A37A03F00F03C5F8D030237A03F01003C6
S315080109A0C5F8D430637A03F01003C5F8D830A37AB2
S315080109B003F01003C5F8DC30227BE37A03EB02234C
S315080109C0C5F8E030637BFF2B08D0002203F00F0344
S315080109D0C5F82C21C5F8E430C5F83C2438BD1B49B7
S315080109E01F230A220968C8681A491FF03BFB7FE7DB
S315080109F016491F2309220968C86816491FF032FBE0
S31508010A0073E712491F2308220968C86811491FF0AC
S31508010A1029FB66E70D490F2305220968C8680D49B0
S31508010A201FF020FB59E709490F2303220968C86803
S31508010A3008491FF017FB4CE704490F2301220968EF
S31508010A40C86804491FF00EFB3FE700BF6C1300247A
S31508010A5028080808140908082DE9F04F2DED088B18
S31508010A6091B04CF6EF5386460D91D0F8F4109942A1
S31508010A700ED0854B024685491B68D8681FF0F2FAE5
S31508010A8000230D930D9811B0BDEC088BBDE8F08FCE
S31508010A90D0F80431002B00F09580DFF8F8A1DAF8D8
S31508010AA00060002E00F03282DEF8F830002B40F0AC
S31508010AB0ED81DEF8FC10AEF10403002940F0008256
S31508010AC0DEF80011002940F02F83DEF8E810DEED8C
S31508010AD0227ADEF88400B8EEE7ABDEED237AB8EECB
S31508010AE0E79BDEED247AB8EEE78BDEED257AB8EEE4
S31508010AF0E70BDEED267AB8EEE71BDEED277A90FBEB
S31508010B00F1F09FED5FBBB8EEE77B00280EF17C01A3
S31508010B102AEE0BABB8BF0730C01029EE0B9BCEF8F7
S31508010B20300128EE0B8B20EE0B0B21EE0B1B27EE6B
S31508010B300BBB93ED017A0433B8EEC77B99422AEED3
S31508010B40072B29EE073B28EE074B27EE005B21EE24
S31508010B50076B27EE0B7BBDEEC22BBDEEC33BBDEE8D
S31508010B60C44BBDEEC55B83ED4E2ABDEEC66B83ED68
S31508010B706E3ABDEEC77B83ED8E4A83EDAE5A83EDA1
S31508010B80CE6A83EDEE7AD4D1DEF8B442DEF8B4311A
S31508010B90DEF834132344DEF834420B442144DEF8EC
S31508010BA0344421448B42B8BF0B46394900FB03F351
S31508010BB081FB0301DB17C3EB21330021CEF8343166
S31508010BC0CEF80411DEF8F030DEF8EC100F93DB10E6
S31508010BD001FB03F3B2FBF3F2531E002A0E937FF7D0
S31508010BE051AFDEF83031002B019340F33581DEF841
S31508010BF0A0304FF0000BDEF814010293DA46DEF856
S31508010C00A4305D46DEF81CC10393DEF8B030DEF889
S31508010C102081B3FA83F3DEF8249100905B090793E8
S31508010C20DEF8BC30B3FA83F35B090893DEF8B43017
S31508010C30B3FA83F35B090993DEF8C030B3FA83F399
S31508010C405B090A93DEF8B830B3FA83F35B090B93B1
S31508010C50DEF8C430B3FA83F35B090C93DEF8AC30E3
S31508010C605B000593DEF8A830DEE943740493DEF8E9
S31508010C70E0302646DEE94A21069376E0AFF30080A6
S31508010C807B14AE47E17A843F6C13002428080808D0
S31508010C90731CAB2A3C3D0024DEF818310131069855
S31508010CA0814208DBDEF83C1401317F29C8BF4021A7
S31508010CB0CEF83C1400210798089C38431C4320426F
S31508010CC015D0DEF8D400002800F09180DEF8E44063
S31508010CD0DEF83C0400EBC410B94C54F820000EEBC6
S31508010CE08000D0F83841D0F8B801254482440998E3
S31508010CF00A9C30431C43204214D0DEF8D800002851
S31508010D007AD0DEF8E440DEF83C0400EBC410AC4CC3
S31508010D1054F820000EEB8000D0F83842D0F8B8021B
S31508010D20254482440C98009C03430B98204318429F
S31508010D3016D0DEF8DC30002B54D0DEF8E400DEF8FD
S31508010D403C3403EBC0139E4850F823300EEB830363
S31508010D502C46D3F83803D3F8B83304449A442546C5
S31508010D600BF1010B019B9B454BD00CF1010C029B2E
S31508010D709C4506DBB7FA87F74FF0000C7F09CEF8DA
S31508010D800C7108F10108039B984506DBB6FA86F64D
S31508010D904FF000087609CEF8106109F10109049BA4
S31508010DA0994508DB009B4FF00009B3FA83F35B0909
S31508010DB00093CEF814310132059B9A42FFF66CAFC7
S31508010DC0DEF840040022431383EA2043400003F07F
S31508010DD0010301304340CEF84034C3F30043CEF853
S31508010DE018315BE7DEF8D0305B000133AEE7DEF899
S31508010DF0C8004000013072E7DEF8CC00400001303F
S31508010E0088E7CEE947C8CEE94992CEF82C110F9961
S31508010E10DEF83431082995FBF3F29AFBF3F31FD078
S31508010E2011120D9802704170DEF8EC20012A25D0C6
S31508010E301A128370031DC2700D930E9B013B0E930C
S31508010E4001333FF41FAEDEF8F0300F93DEF8303190
S31508010E50002B01933FF7CBAE4FF0000A5546D6E774
S31508010E6012120D990A70DEF8EC20012A0AD00A46F8
S31508010E701B12023202F8013C0D92DEE703460233E9
S31508010E800D93DAE70B4601330D93D6E7AEF104036A
S31508010E9000214C4D18464C10013155F824402029A3
S31508010EA040F8044FF7D100218EF88010CEF8F810DB
S31508010EB00121CEF80411DEF8FC1000293FF400AE3A
S31508010EC09EF88010A820404C002600394FF00105F5
S31508010ED018BF012100FB01F1183160186458D0F8D8
S31508010EE008C04168C768CEF88840CEF88C10CEF89D
S31508010EF090C0CEF8947004694169CEF8FC60CEF8CA
S31508010F009840CEF80451CEF89C10D9E52F494FF0F8
S31508010F101F0CA1F5007706F0040306F0080406F095
S31508010F200205002B0BBF20234FF0FF334FF0FF3094
S31508010F30012016F0010828D1002D68D1002C40F0B7
S31508010F4097803D463CB903441F2B0AD945F8044FFF
S31508010F50A942234609D045F8043F8D424FF00104C2
S31508010F6003D045F8043FA942ECD1013601F50071D9
S31508010F7007F50077102ECED10123CAF80030DEF826
S31508010F80F830002B3FF495AD80E70DBB002C40F0FF
S31508010F90A1803D4674B903441F2B05D945F8044F72
S31508010FA08D4223464446E0D045F8043F8D42DCD0C5
S31508010FB0002CF0D045F8043F8D42F5D1D5E700BFA6
S31508010FC0381D00240000002454090808341F002491
S31508010FD0002C62D13D4674B903441F2B05D945F847
S31508010FE0044FA94223464446BFD045F8043F8D42E3
S31508010FF0BBD0002CF0D045F8043FA942F5D1013603
S3150801100001F5007107F50077102E84D1B4E7B4B95C
S315080110103D467CB903441F2B06D945F8044F8D423A
S3150801102023464FF00104A0D045F8043F8D429CD0D9
S31508011030002CEFD045F8043F8D42F5D195E73C46A3
S31508011040034445421F2B06D901304FF01F0328469A
S3150801105001D10023012044F8043FA142F0D1013611
S3150801106001F5007107F50077102E7FF454AF83E779
S315080110703C4603441F2B03D9012814BF1F23002311
S3150801108044F8043F8C42F4D1013601F5007107F5A5
S315080110900077102E7FF43FAF6EE73C46002565B911
S315080110A00344C0F100091F2B07D901304FF01F0374
S315080110B040461CBF2B464846454644F8043F8C42E9
S315080110C0EDD1013601F5007107F50077102E7FF491
S315080110D022AF51E73C46A5B903441F2B0AD901287B
S315080110E02B461BD144F804CF8C4205464FF01F030B
S315080110F03FF43BAF44F8043FA1423FF436AF002D1D
S31508011100EAD044F8043F8C42F4D1013601F5007166
S3150801111007F50077102E7FF4FEAE2DE744F8045F3D
S31508011120A1424546E6D120E702204AF64441CEE9E6
S315080111303A101020CEF8F0000020CEF80001C6E4DF
S315080111402DE9F84F0D46D0F89031D0F888110646AA
S31508011150D0F88C2100F5C47A29606A60AB60B0F8D2
S315080111609431AB81816801398160A1B9436802462E
S315080111700C464FF0200C01274FF0FF3E8360D2F852
S315080111803C31013B002BC2F83C31C0F2B980013138
S3150801119024320329F3D10027344605F10808DFF87C
S315080111A09CB2B946D4F81C315A1C00F09580D4F883
S315080111B028C1013B0CF10102C4F81C3102F01F02DF
S315080111C0C4F8282153B9D4F8242192F86030002BA9
S315080111D040F08B804FF0FF33C4F81C3185F8079037
S315080111E01FB1D4F81C31013359D00CEB4C03D4F898
S315080111F02411CA18C95C92F901000B0192F801E0A1
S315080112000011927803F470631EF0200F00F00800B5
S3150801121043EA0203CEF3801242EA000218BF43F4FE
S315080112208053BA40EA71D4F81C21013257D018B953
S315080112300EF01F0E85F806E0D4F8202112F80C00EE
S31508011240B2691044D4F82C210244794830F81220A6
S31508011250D80447D523F4805313449BB205F81730B5
S3150801126001F00F011B0A6A1C02F8173088F80010F2
S31508011270D4F81C31FF2B12D094F830317BB1022BF4
S3150801128000F09D800223584684F83031697B1FF0AF
S31508011290EFFD98F8003043F0100388F80030013765
S315080112A0243408F10108032F7FF47CAF61481FF04D
S315080112B037FEAB6829686A68C6F88811CAF8042037
S315080112C0CAF80830AB89AAF80C30D6F89801B0FAF2
S315080112D080F04009BDE8F88F4FF0000C7EE788F8EA
S315080112E00090C5E7D31A9BB2B8E703F01F0103F1D3
S315080112F0FF3CC4F8281192F86120C4F81C216DE757
S31508011300D2F83831D2F83401C2F83C3103780029D1
S315080113105CD001305F2BC2F834010ED821E006EB10
S315080113208303D2F8340153F8A43CC2F8243110F8E7
S31508011330013B5F2BC2F8340113D96F2BEFD918067D
S3150801134014D46A3BD2F8340106EB83035B6882F84E
S315080113503041C2F8203110F8013B5F2BC2F8340145
S31508011360EBD8C2E94A43C2F81CC110E7802B56D014
S31508011370812B3FF40CAF822B13D08E2B19D8803BCF
S315080113802C736B73D2F834311B78EB72D2F83401B3
S3150801139082F830710130C2F83401F369C2F820319C
S315080113A0C5E7F369D2F83401C2F8203182F8304131
S315080113B0BDE7A13BD2F83401C2E94E33B7E7697BF1
S315080113C01D481FF055FDFF236B7362E7FF2BA0D164
S315080113D07069F368834225DB431C4000D6F8108008
S315080113E0736108EB0009336899F80190C6F81890FB
S315080113F018F8000006EB8000C06DB0F8008098442C
S31508011400C6F83481B0F802809844C6F858818088B5
S315080114100344C6F87C31D2F83401037879E7C2F877
S315080114201CE1B4E608460123C6F89871D6E700BF61
S3150801143040000024D40A0808BC0A0808A40A0808B7
S31508011440436B8B424AD9036B03EB010C5B5C13704C
S31508011450436B0CEB03011CF803305370436B01EB30
S31508011460030CCB5C9370436B0CEB03011CF8033044
S31508011470D370436B01EB030CCB5C1371436B0CEB21
S3150801148003011CF803305371436B01EB030CCB5C6E
S315080114909371436B0CEB03011CF80330D371436B57
S315080114A001EB030CCB5C1372436B0CEB03011CF8C9
S315080114B003305372436B01EB030CCB5C9372436BA2
S315080114C00CEB03011CF80330D372436B01EB030CDD
S315080114D0CB5C1373436B1CF803305373704700BF1F
S315080114E010B50446806918B11FF05CFA0023A361A0
S315080114F0E06918B11FF056FA0023E361206A18B1B2
S315080115001FF050FA00232362606A18B11FF04AFAE5
S3150801151000236362A06A18B11FF044FA0023A3628C
S31508011520206B18B11FF03EFA0023236310BD00BFDC
S31508011530B0F5807F10B5044607D0B0F5005F00D03E
S3150801154010BDBDE8104002F019B8014608480FF071
S3150801155045FE18B1074B00221A7010BD02462146F6
S3150801156005480FF041FEBDE8104018F04FBE00BF18
S3150801157000200258FC490024000802580000000017
S3150801158000B59FB04C2200210AA81FF05DFC20225D
S31508011590002102A81FF058FC374B4FF0FF320420F8
S315080115A0C3F8B02011F0A8FA344A002301939369CD
S315080115B043F440439361936903F440430193019BC8
S315080115C093699B04FCD511F08FFA2B4A00210AA8CE
S315080115D0136F23F018031367936A23F0030343F089
S315080115E002039362012202230C921793CDE90F227B
S315080115F00C229FED1B7BCDE9133315924FF48C72A8
S31508011600CDE91833042316928DED0A7BCDE91B111A
S315080116101A9311F03BFB08B172B6FEE79FED127BF8
S315080116200022002302A807218DED027B9FED107B86
S31508011630CDE904234FF4806240238DED067BCDE985
S31508011640082311F0DBFE08B172B6FEE74FF48022DB
S315080116504FF4000111F0E0FD1FB05DF804FB00BF77
S315080116602D000000000001003F00000003000000FB
S31508011670400000004000000000440258004802589B
S3150801168010B5AEB09C2200210E2407A81FF0DCFB82
S3150801169004230C480C214FF48C720493CDE9000104
S315080116A0CDE90223402120224FF480336846CDE953
S315080116B00541CDE9122312F08DF908B172B6FEE79C
S315080116C02EB010BD00000902D348D44B2DE9F04FC6
S315080116D02DED028B8360B1B0436913F4803324D1B5
S315080116E0C0F88430BFF34F8FD0F8805043F6E076C8
S315080116F0C5F34E34C5F3C905640104EA06012B4650
S3150801170041EA8372013BC0F860225A1CF8D1203C99
S3150801171014F1200FF1D1BFF34F8F436943F480339E
S315080117204361BFF34F8FBFF36F8F0024CDE9224486
S31508011730CDE924440DF028FCB94BBA4A012123937B
S315080117404FF0012322A8ADF88810CDE924230DF026
S3150801175039FC06200DF026FCB34BAF4A83F8B54099
S3150801176083F87D4083F84540C3F8DC40C3F8A440BC
S31508011770DC66C3F89C40536913F4003311D1BFF3F7
S315080117804F8FBFF36F8FC2F85032BFF34F8FBFF33E
S315080117906F8F536943F400335361BFF34F8FBFF320
S315080117A06F8FDFF8B88201260CF032FE00224FF463
S315080117B000330EA99D4F40461096002407F5FE29D1
S315080117C09B4D4FF4807ADFF898B2CDE90E230FF0DE
S315080117D0B7F840460FF0DEF8FFF7D2FEFFF750FFE5
S315080117E007F11002BE737E733E73C9F8102002F525
S315080117F0FE32904BC9F814208F49904A1C609C60B0
S31508011800249411609C808E498E48CDE92244CDE905
S315080118102544D5F8402142F48072C5F84021D5F80F
S31508011820402102F480720492049AD5F8402142F0CC
S315080118300202C5F84021D5F8402102F002020592BC
S31508011840059AD5F8402142F04002C5F84021D5F85D
S31508011850402102F040020692069AD5F840215961C4
S315080118600E2142F00802A3F810A0C5F8402122462D
S31508011870D5F8403103F008030793079BD5F84031A3
S3150801188043F00403C5F84031D5F8403103F00403A9
S315080118900893089BD5F8403143F01003C5F8403149
S315080118A0D5F8403103F010030993099BD5F8403167
S315080118B03343C5F84031D5F8403133400A930A9B82
S315080118C0D5F8403143F08003C5F84031D5F84031A9
S315080118D003F080030B930B9BD5F8403143F48063E7
S315080118E0C5F84031D5F8403103F480630C930C9B5D
S315080118F0D5F8403143F40073C5F84031D5F8403185
S3150801190003F400730D930D9B0FF06EFC224640F60F
S3150801191004014D480FF068FC22464FF400614B481C
S315080119200FF062FC22464FF4005149480FF05CFC67
S3150801193032464FF4847144480FF056FC224640F66D
S31508011940FF5144480FF050FC3246C02140480FF081
S315080119504BFC22A93B4824949FED1F7B9FED208BCE
S315080119608DED227B0FF000FB22A936489FED1E7BE9
S315080119708DED248B8DED227B0FF0F6FA022322A939
S31508011980354824939FED1A7B8DED227B0FF0ECFAF7
S3150801199022A92D489FED187B8DED248B8DED227B99
S315080119A00FF0E2FA22A92A4824969FED157B8DEDC0
S315080119B0227B0FF0D9FA22A9224824949FED127BA3
S315080119C08DED227B0FF0D0FA22A920489FED107BDE
S315080119D048E000BFAFF300803000000000001100AE
S315080119E000000000000000000E00000001000000D9
S315080119F008000000000000000C09000001000000BA
S31508011A000040000000000000000100000000310055
S31508011A10000800000100000000ED00E000000108D8
S31508011A2000000824120000031000082410010824ED
S31508011A300044025820500024000000383C5000247D
S31508011A40313D0108002002580018025800000258CA
S31508011A50001C02580024025800100258943E002423
S31508011A60BC4200248DED248B8DED227B0FF07CFA90
S31508011A7022A9C5489FEDB47B8DED227B9FEDB47BF2
S31508011A808DED247B0FF070FA22A9C04824949FEDAE
S31508011A90B27B8DED227B0FF067FA22A9BC4826940A
S31508011AA09FEDAF7B8DED248B8DED227B0FF05CFADC
S31508011AB022A9B8489FEDAC7B8DED248B8DED227B59
S31508011AC00FF052FAB04822A99FEDA97B8DED248B20
S31508011AD08DED227B0FF048FA2246214617200DF09C
S31508011AE0F1F917200DF02CFAAB4A4FF0807E5846D3
S31508011AF0CBF800202022CBE903E20822CDE92244D3
S31508011B00CDE92444CDE92644CBE90164CBE9056452
S31508011B10CBE90744CBE90964CBE90B44CBE90E448D
S31508011B20CBF834200FF032FC08B172B6FEE79FED10
S31508011B30927B584641F2883222A98DED227B9FED90
S31508011B40907B8DED247B0FF09FFCA0B9934BFF246E
S31508011B50934A58601A607F221861C3E902244FF03C
S31508011B608042C3E905001846DA6113F019F80246FE
S31508011B7018B172B6FEE772B6FEE78A4B0221996181
S31508011B808949C3E90100C3E904001960D5F8381188
S31508011B9041F00101C5F83811D5F83811019001F065
S31508011BA00101039103994FF48041D96001460B2045
S31508011BB00DF088F90B200DF0C3F9019A0C20114696
S31508011BC00DF080F90C200DF0BBF9019A0D20114694
S31508011BD00DF078F90D200DF0B3F9019A0E20114692
S31508011BE00DF070F90E200DF0ABF9019A0F20114690
S31508011BF00DF068F90F200DF0A3F9019A102011468E
S31508011C000DF060F910200DF09BF9019A112011468B
S31508011C100DF058F911200DF093F9019A6620114635
S31508011C200DF050F966200DF08BF9019AC8F8046099
S31508011C304FF48061C8F80C204046C8F81CA0D5F8B6
S31508011C40403143F40013C5F84031D5F8403103F467
S31508011C5000130293029B554BC8F800304023C8F87D
S31508011C6008304FF40063C8E904134FF40053C8F869
S31508011C7018304FF40033C8F820300DF0F1FC014656
S31508011C8008B172B6FEE7024601908020484D0DF074
S31508011C9019F980200DF054F9019981200A460DF0B1
S31508011CA011F981200DF04CF92422019922A81FF07F
S31508011CB0CBF8404B28462B600DF0D6F9024608B101
S31508011CC072B6FEE74FF0000A4FF01A0B22A9284612
S31508011CD02692CDE922AB4FF0000A4FF0010BCDE970
S31508011CE024AB0DF0B7FA014608B172B6FEE7242215
S31508011CF0314D22A81FF0A8F8304B28462B600DF06D
S31508011D00B3F9024608B172B6FEE74FF0000A4FF082
S31508011D10160B269022A92846CDE922AB4FF0020AD6
S31508011D204FF0020BCDE924AB0DF094FA08B172B667
S31508011D30FEE72846102222A90DF08CFA054600284E
S31508011D403ED072B6FEE700BF002000000100000089
S31508011D500000000002000000002000000000110041
S31508011D600001000002000000FF0D00000100000054
S31508011D70C000000001000000010000000100000091
S31508011D800100000001000001001C02580008025869
S31508011D90000002580024025800500052184300243B
S31508011DA00040005840430024007000521C54025859
S31508011DB0E03D002400340058A43D0024007400408E
S31508011DC018F024FA1DF004FA9B489C4B2495C4602C
S31508011DD085610360CDE92255C0E9015514F002FB7E
S31508011DE008B172B6FEE72024002322A9924822945C
S31508011DF0249315F0D1FA08B172B6FEE7904D42F276
S31508011E0025334FF0804A1C90A8602861A861C5E96E
S31508011E1000A340F2CF73CDE92200CDE92400CDE934
S31508011E201A002846EB6014F0DDFA08B172B6FEE72F
S31508011E304FF4805622A92846229614F0C1FF03467C
S31508011E4008B172B6FEE728461AA91A931C9315F02B
S31508011E50A3FA034608B172B6FEE77A484FF0600A5C
S31508011E604FF004084FF48075C361774BC0F808A09A
S31508011E700360C0F8108045600FF0EEF9034608B11B
S31508011E8072B6FEE77148C361714BC0F808A0C0F885
S31508011E901080456003600FF0DFF908B172B6FEE7FE
S31508011EA06C4D6D4B24902B6040F2FF73A861EB607B
S31508011EB0CDE92200C5E90100284614F093FA08B1D4
S31508011EC072B6FEE7249022A92846229415F064FAF0
S31508011ED0044608B172B6FEE70146169012903422FE
S31508011EE0209019905D4DCDE91A00CDE91C00CDE988
S31508011EF01E00CDE91700CDE9130022A81EF0A4FFA4
S31508011F001323DFF864C12846AC602C61AC61C5E9CE
S31508011F1000C3C723EB6002236B6114F063FA08B1AF
S31508011F2072B6FEE7284616A9169614F049FF08B1B7
S31508011F3072B6FEE7494814F017FC08B172B6FEE717
S31508011F4000240025149012A94448CDE9124515F03C
S31508011F5023FA024608B172B6FEE7CDE91C456024AC
S31508011F60002520901AA93D48CDE91A4504244FF4C5
S31508011F708075CDE91E4515F0EDF808B172B6FEE794
S31508011F8008221AA9354815F0E5F808B172B6FEE730
S31508011F904FF400530022269022A927934FF000738D
S31508011FA028902C902E90CDE92200CDE924002B48CB
S31508011FB0CDE92A2315F04AFA054608B172B6FEE7B5
S31508011FC02648032600F094FE254C4FF42013254A93
S31508011FD01C211C95289520462577656384F8385079
S31508011FE0C4E900230123C4E90213082323614FF43A
S31508011FF08073A3820223CDE91A55CDE92255CDE98D
S315080120002455CDE92655A3614FF490654FF48063B5
S31508012010C4E909534FF48053C4E90B630CF0F4FD8A
S3150801202008B172B6FEE71A901AA920460CF0D6FE38
S31508012030E0B172B6FEE700BF384700240010004041
S31508012040C0450024544200240090004088420024E0
S3150801205010900040F447002400140040484400242E
S31508012060403D0024002002400000014001220623D1
S315080120708DF8A10022A92046CDE92223022240F2A9
S31508012080FF73CDE9242304220023CDE926230CF08E
S315080120906DFA08B172B6FEE70C23964A204622A9C4
S315080120A0CDE922230CF062FA034608B172B6FEE7BF
S315080120B0CDE92200CDE92400CDE91A001C908E480D
S315080120C0DFF860B283600361836142F22533C0E9B8
S315080120D000B340F2CF73C36014F084F908B172B645
S315080120E0FEE74FF4805522A98348229514F068FE2D
S315080120F008B172B6FEE720231C901AA97E481A93E6
S3150801210015F04AF9034608B172B6FEE77B484FF463
S3150801211080267B4C4FF0007C83654FF0005E4FF0C4
S31508012120050AC0E90833C0E90A33C0E90E33C0E934
S315080121301033C0E914334FF48003C0E90043112377
S31508012140C0E902634FF08073C0E904C34FF0C0438E
S31508012150C0E906E34FF0804343635023C0E912A365
S3150801216013F0CEFC08B172B6FEE7664C4FF4E133C4
S31508012170C4E902002061A062C4E90600C4E90800B6
S315080121806148C4E900030C232046636115F0E6FDA6
S31508012190014608B172B6FEE7204615F069FE01460A
S315080121A008B172B6FEE7204615F0A4FE08B172B66C
S315080121B0FEE7204615F03EFE044608B172B6FEE774
S315080121C03422014614902090504ECDE91600CDE9EF
S315080121D01800CDE91200CDE91A00CDE91C00CDE9B8
S315080121E01E0022A81EF030FE1323494A3046B46069
S315080121F03461B461C6E90023C723F360022373611E
S3150801220014F0F0F808B172B6FEE716A9304616952D
S3150801221014F0D6FD08B172B6FEE7304614F0A4FAFA
S3150801222008B172B6FEE70023302212A93748149383
S315080122300023CDE9122315F0AFF808B172B6FEE70F
S3150801224060240025209004221AA93048CDE91A45B0
S3150801225000240025CDE91C4504240025CDE91E45A9
S3150801226014F078FF08B172B6FEE74FF40053002266
S31508012270289022A92C90CDE926034FF480432E936A
S315080122804FF00073CDE92200CDE924001F48CDE9BE
S315080122902A2315F0DBF8044608B172B6FEE71B4897
S315080122A000F026FD4FF47E43012280211948A9F842
S315080122B01A40A9F81840BC603C60C9F820300EF0F5
S315080122C093FF4FF47A700CF0E5F80221124801F0F9
S315080122D097FC124B212201211B6811489B681EF0AD
S315080122E0B7FA01F0E7FD02F0D1F901F035FE01F088
S315080122F045F9FEE7020030047C460024C043002469
S31508012300003800406C49002400100140B048002400
S3150801231000040140001C0258A00018086C13002490
S31508012320D80A08080004004072B6FEE70C4B0022E2
S315080123300420114610B5D3F8544182B044F0020482
S31508012340C3F85441D3F8543103F002030193019BB6
S315080123500CF0B8FD042002B0BDE810400CF0F0BD49
S3150801236000440258254B02689A4200D07047244B14
S315080123704FF08071D3F8382142F0200230B5C3F806
S31508012380382183B0D3F83821044608461D4D02F09A
S3150801239020020092009AD3F8402142F00102C3F8C4
S315080123A04021D3F8403103F001030193019B0CF05E
S315080123B083F84FF0007108460CF07EF8124909229D
S315080123C000232846C5E900124FF400624FF48061E4
S315080123D0C5E90233C5E90833C5E904124FF4807328
S315080123E04FF40052C5E906230DF03AF918B9E56428
S315080123F0AC6303B030BDFFF797FFF8E70020024052
S31508012400004402581C3E002428000240714A036811
S3150801241070B593428EB04FF000040546CDE90844E5
S315080124200A94CDE90B4404D06B4A934271D00EB09D
S3150801243070BD6A4B6A4ED3F84821F46042F00052E7
S3150801244074626849C3F848214022D3F8483131609B
S31508012450432103F00053B2604FF480627160019327
S315080124604FF400634FF4005101983046C6E904233E
S315080124704FF480724FF44033C6E9061233620DF009
S31508012480EFF8002840F09D800622002304A954484D
S31508012490CDE904234FF480720223ADF8182007937F
S315080124A00EF018FA002840F089804F4C4FF48061ED
S315080124B04E4B4422AE60204623600023B5634FF499
S315080124C00056E360636240236260A3604FF40063D1
S315080124D0C4E904134FF48073C4E906634FF4403327
S315080124E023620DF0BDF8002865D100224FF40033B0
S315080124F004A93D48CDE9042301220223ADF8182099
S3150801250007930EF0E7F9002852D1EC60A5630EB0E7
S3150801251070BD324B08A9364ED3F8542142F4005205
S31508012520C3F85421D3F8542102F400520292029AB4
S31508012530D3F8402142F00102C3F840214022D3F8E2
S31508012540403103F001030393032303982948CDE996
S3150801255008230EF009FD284911224FF480633046FD
S31508012560F46033614FF40063C6E9001240224FF468
S31508012570005173614FF40033B2604FF480723362D5
S31508012580C6E906120DF06CF8F0B90E2000214FF4D9
S3150801259080720223CDE9040104A91548ADF8182073
S315080125A007930EF097F990B9AE60B5630EB070BD9A
S315080125B0FFF7BAFEA9E7FFF7B7FE96E7FFF7B4FEFE
S315080125C073E7FFF7B1FE5FE7FFF7AEFEDDE7FFF75B
S315080125D0ABFEE9E700740040003400580044025895
S315080125E00C3F002410000240843F002440000240B2
S315080125F0FC3F00240000025808540258554A00239B
S315080126000168F0B591428FB0CDE90833CDE90A33B7
S315080126100C9301D00FB0F0BD4F4B4FF4007002215F
S315080126200926D3F83421002403250A2742F4001287
S31508012630C3F83421D3F8342102F400120192019A25
S31508012640D3F8342142F48042C3F83421D3F8342133
S3150801265002F480420292029AD3F8402142F04002E3
S31508012660C3F84021D3F8402102F040020392039AAD
S31508012670D3F8402142F00802C3F84021D3F840219B
S3150801268002F008020492049AD3F8402142F00402A7
S31508012690C3F84021D3F8402102F004020592059AB5
S315080126A0D3F8402142F08002C3F84021D3F84021F3
S315080126B002F080020692069AD3F8402142F00202FD
S315080126C0C3F840210322D3F840310B9203F00203E9
S315080126D00C96CDE90801079308A92048079B0EF037
S315080126E043FC8022022308A91D480C97CDE908233B
S315080126F0CDE90A450EF038FC4022022308A91748FD
S315080127000C97CDE90823CDE90A450EF02DFC2222C6
S31508012710022308A913480C97CDE90823CDE90A45F0
S315080127200EF022FC0822022308A90F480C96CDE9CF
S315080127300823CDE90A450EF017FC0422022308A94D
S315080127400A480C96CDE90A45CDE908230EF00CFC9A
S315080127500FB0F0BD0050005200440258001802584C
S31508012760000C025800080258001C025800040258BE
S3150801277039490023026800B58A428BB0CDE9043392
S31508012780CDE90633089323D0344B9A4202D00BB0D5
S315080127905DF804FB324A13680133012B136043D0F9
S315080127A0304B04A93048D3F8402142F01002C3F84F
S315080127B04021D3F8403103F010039FED237B0393A7
S315080127C0039B8DED047B0EF0CFFB0BB05DF804FB8C
S315080127D0234A13680133012B136017D0214B04A92F
S315080127E02248D3F8402142F00402C3F84021D3F825
S315080127F0403103F004039FED167B0193019B8DED98
S31508012800047B0EF0B1FB0BB05DF804FB154BD3F856
S315080128104C2142F01002C3F84C21D3F84C3103F095
S3150801282010030093009BD9E70E4BD3F84C2142F0D5
S315080128301002C3F84C21D3F84C3103F0100302936C
S31508012840029BADE7AFF300808000000003000000A3
S3150801285010000000030000000090004010900040A6
S31508012860004A002400440258001002580008025881
S3150801287010B5AEB00446B822002168461EF0E4FA47
S315080128800C4B22689A4201D02EB010BD4FF480023B
S315080128904FF48073684600922C9311F09BF830B977
S315080128A0054A136F43F4004313672EB010BDFFF7B3
S315080128B03BFDF5E700400058004402582B4B0268DF
S315080128C030B59A428BB04FF00004CDE90444CDE906
S315080128D00644089401D00BB030BD254B0C2525487C
S315080128E0D3F8342142F48032C3F83421D3F83421A1
S315080128F002F480320192019AD3F8402142F004028F
S31508012900C3F84021D3F8402102F004020292029A48
S31508012910D3F8402142F00802C3F840214FF4F85297
S31508012920D3F84031089503F008030393022303996A
S3150801293004A9CDE90423032307930EF015FB04220A
S31508012940022304A90C480895CDE904230323002290
S31508012950CDE906230EF008FB2246214631200CF06C
S31508012960B1FA31200CF0ECFA0BB030BD0070005210
S315080129700044025800080258000C02582DE9704319
S31508012980B8B000210446B8220AA80891CDE9041175
S31508012990CDE906111EF058FA444B22689A4202D034
S315080129A038B0BDE8708302234FF480520C210AA87F
S315080129B00A924FF48062139118924FF40052CDE9AE
S315080129C016338C23229214930723159311F002F8D8
S315080129D0002864D1364B05264FF000084FF002094E
S315080129E0D3F84821334842F48042334DC3F848218D
S315080129F0D3F8482102F480420192019AD3F8402182
S31508012A0042F00202C3F84021D3F8402102F0020243
S31508012A100292029AD3F8402142F00802C3F84021F3
S31508012A204FF48442D3F84031089603F00803039320
S31508012A300223039904A9CDE90423CDE906890EF0F9
S31508012A4093FA0822022304A91C480896CDE904230F
S31508012A50CDE906890EF088FA80200EF0E1FB1849C7
S31508012A602722002328466B62C5E900124FF48052DB
S31508012A704FF48061C5E90233C5E904124FF4807346
S31508012A804FF48042C5E906234FF400332B620CF05C
S31508012A90E7FD38B9E567AC6338B0BDE87083FFF781
S31508012AA043FC97E7FFF740FCF4E700BF0038004016
S31508012AB0004402580004025874400024000C0258CD
S31508012AC0880002407D4A0368934270B5044688B07F
S31508012AD035D0B3F1804F00F08180794A93421FD0F7
S31508012AE0784A934200F09280774A934200F09D809B
S31508012AF0764A934200F0AE80754A93421DD1754BD2
S31508012B0000222B20D3F84841114644F04004C3F86B
S31508012B104841D3F8483103F040030793079BC6E0C1
S31508012B206C4BD3F8482142F00202C3F84821D3F886
S31508012B30483103F002030393039B08B070BD654B4C
S31508012B400021654ED3F85021F16042F0010271620D
S31508012B500B216248C3F850214022D3F85031B260A4
S31508012B604FF4806203F0010371604FF480413060D5
S31508012B7001934FF4805301983046C6E904234FF474
S31508012B8080724FF40033C6E9061233620CF068FD11
S31508012B9000285CD1524D00230D226662EB6028465F
S31508012BA06B624FF480636A6040222B614FF4804365
S31508012BB0AA604FF480524B49B4632960C5E90523DD
S31508012BC04FF480724FF40033C5E907230CF048FD32
S31508012BD0002839D1E562AC6308B070BD3D4B0022CF
S31508012BE01C20D3F84841114644F00104C3F8484172
S31508012BF0D3F8483103F001030293029B0CF062F902
S31508012C001C2008B0BDE870400CF09AB9314BD3F8D6
S31508012C10482142F01002C3F84821D3F8483103F09D
S31508012C2010030493049B08B070BD2A4BD3F84821BE
S31508012C3042F02002C3F84821D3F8483103F02003B3
S31508012C400593059B08B070BDFFF76EFBC2E7FFF75A
S31508012C506BFB9FE71F4B0021234DD3F85021E960F9
S31508012C6042F00202696221483021C3F850214FF42B
S31508012C708052D3F8503128604FF4807003F0020374
S31508012C8069604021E86106932846069B4FF4803324
S31508012C90A9602B62C5E905224FF480622A610CF00E
S31508012CA0DFFC40B900222B20A5621146AC630CF06B
S31508012CB009F92B20A5E7FFF737FBF3E700000140E9
S31508012CC000040040001000400014004000040140C8
S31508012CD00018004000440258EC4000245800024005
S31508012CE06441002470000240DC410024A000024037
S31508012CF031490023026810B58A428AB0CDE9043306
S31508012D00CDE90633089304D02C4B9A4236D00AB043
S31508012D1010BD2B4B022002210124D3F8402142F495
S31508012D208062C3F84021D3F8402102F480620192FF
S31508012D30019AD3F8402142F40072C3F840210322D4
S31508012D40D3F84031079203F400730894CDE90401DE
S31508012D50029304A91B48029B0EF006F94FF4007270
S31508012D60022304A918480894CDE904230022032361
S31508012D70CDE906230EF0F8F80AB010BD104B03246E
S31508012D8004A91248D3F8402142F48072C3F84021BD
S31508012D90D3F84031079403F4807308949FED047BBC
S31508012DA00393039B8DED047B0EF0DEF80AB010BD8C
S31508012DB0400000000200000000000140000401403C
S31508012DC000440258002802580024025800200258DC
S31508012DD010B5B6B000210446B82208A80691CDE977
S31508012DE00211CDE904111EF02FF8214B22689A42EF
S31508012DF001D036B010BD012308A8089310F0EAFDEA
S31508012E0040BB1C4B072402A91B48D3F8502142F0AA
S31508012E101002C3F85021D3F8502102F01002009293
S31508012E20009AD3F8402142F00102C3F84021D3F8B1
S31508012E304031069403F001039FED097B0193019B41
S31508012E408DED027B9FED087B8DED047B0EF08CF8F2
S31508012E5036B010BDFFF768FAD3E700BFAFF30080BD
S31508012E60000600000200000000000000000000004B
S31508012E70001001400044025800000258FEE700BF56
S31508012E80FEE700BFFEE700BFFEE700BFFEE700BFA3
S31508012E90704700BF704700BF704700BF0BF0E8BA24
S31508012EA00DF0B6BD01480DF097B900BF0C3F0024DF
S31508012EB001480DF091B900BF1C3E002401480DF0F0
S31508012EC08BB900BF843F002401480DF085B900BFC6
S31508012ED0EC40002401480DF07FB900BF644100248D
S31508012EE001480DF079B900BF7440002401480DF07E
S31508012EF073B900BFDC410024202008B50EF082F921
S31508012F004FF48070BDE808400EF07CB9014813F013
S31508012F1089BE00BFC0450024044808B513F082FEE7
S31508012F200348BDE8084013F07DBE00BFB048002441
S31508012F3004450024014812F099BC00BF404300240F
S31508012F4001480EF07FBE00BF28840024044808B556
S31508012F500DF02EFD0348BDE808400DF029BD00BF60
S31508012F600C3F0024843F002401480DF021BD00BF19
S31508012F70FC3F002401480DF02FB900BFFC3F002497
S31508012F800120704708B51CF027FD162203464FF0AD
S31508012F90FF301A6008BD00BF08B51CF01DFD1623D9
S31508012FA00360FEE770B5161E07DD0C468D19AFF3F3
S31508012FB0008004F8010BA542F9D1304670BD00BF67
S31508012FC04FF0FF30704700BF4FF4005300204B60AD
S31508012FD0704700BF012070470020704738B50D4C77
S31508012FE003460D490D4D2268491B2AB113448B42EC
S31508012FF008D81046236038BD0948024620601344A4
S315080130008B42F6D91CF0E8FC0C234FF0FF32036023
S31508013010104638BD044A00240000082400040000B4
S31508013020908B00242249234AD1F8883043F470034F
S3150801303010B4C1F88830136803F00F03022B05D8C2
S31508013040136823F00F0343F0030313601A4B00249C
S315080130501A4A1968174841F0010119601C61196873
S315080130600A401A60036813F00C0F05D0036823F0B1
S315080130700F0343F0030303600F4B00221049114C61
S3150801308011489A61DA611A629C6243F2D204D862E3
S3150801309019635A639963DA6319645A6419680B48A0
S315080130A021F4802119601A6604605DF8044B7047A3
S315080130B000ED00E000200052004402587FEDF6EAD8
S315080130C080020101000202020000FF0100400052D5
S315080130D0A94B2DE9F04393F90000C3B25A1E122AEF
S315080130E005D903F11302D2B2122A00F2A1810023F3
S315080130F0A24C9E462370A24B93F900C05FFA8CF34B
S315080131005A1E122A05D903F11302D2B2122A00F263
S315080131108C810023194663709A4B9B4D1B789B4AF9
S3150801312003F001062E6003F00205156003F006029E
S31508013130062A15D1DFF87C92DFF87C82D9F80020BF
S31508013140934F0132934DC9F80020D8F80020013277
S31508013150C8F800203A6801323A602A6801322A60C2
S315080131608D4A00258D4F12683D60052A52D0042AE2
S3150801317039D0012A00F0EF80092A894A00F0A8808F
S3150801318010F1140F87495661ACBF00240124142895
S3150801319091F900101460C3F3C004D4BF00200120C4
S315080131A011F1140F95615563C2E90104C3F3400097
S315080131B0C3F38004C2E90340ACBF002001201429EF
S315080131C04FEAD314D4BF00210121C2E90701C3F391
S315080131D08010C3F34011C3F30013C2E90940C2E9E1
S315080131E00B13BDE8F08300296D4AC3F3C003B8BFCA
S315080131F00131BEF1000F9360B8BF0EF1010E4910FF
S315080132004FEA6E0E8039AEF1800E617084F800E0E7
S31508013210BDE8F083644A1268002A2DD16349604AE1
S315080132200968002935D0C3F3C003BCF1140F9360B4
S3150801323000F3C4801428D4BF002301231CF1140F02
S31508013240136080F2DC8010F1140F4FF00103ACBF5C
S31508013250002101211428D3605160136100F3DE8037
S315080132601430D5DABCF1130FD2DC00230121136027
S31508013270D16053601361CBE7494AC3F34011D1606A
S31508013280C3F380115160D9091161484909680029B8
S31508013290C9D1BCF1140F4649C3F3C00391F9001013
S315080132A0D4BF002401241CF1140FACBF0020012057
S315080132B014291460C2E90230D4BF0023012311F195
S315080132C0140F5360ACBF002101211161BDE8F083E1
S315080132D0BCF11E0F95615563D4BF002501251CF16C
S315080132E01E0F33491560ACBF0025012510F11E0FCD
S315080132F091F900405560ACBF002501251E282949D2
S315080133009560D4BF002001201E2C91F90010506150
S31508013310C3F38000D060C3F340001061D4BF00201E
S31508013320012014F11E0FACBF0024012411F11E0F58
S31508013330D061ACBF002001201E29C2E90840D8BFD0
S315080133400021C3F38010C8BF0121C3F340131163E1
S31508013350C2E90A035CE710F1140F114BACBF002256
S31508013360012214281A60D4BF0020012000295860C0
S31508013370BFF64EAF65704BE7224A00241C010024B4
S31508013380234A0024214A0024D0730024D47300243C
S315080133907C730024CC7300244C7A0024C87300245F
S315080133A0D8730024244A00241C4A00240801002456
S315080133B0254A00247473002478730024012310F12C
S315080133C0140F136019DAD36014284FF00103536000
S315080133D00DDC002314301361BFF61AAFBCF1140FCC
S315080133E07FF740AF01211360D360516010E70021D8
S315080133F01360D160516011610AE70023E3E710F118
S31508013400140F19DA01210B46D16014285360E0DD47
S315080134100123BCF1130F13613FF7FAAE0023012113
S315080134201360D36053601161F2E66146637073E617
S31508013430034C864623705EE600210B46D160E4E71D
S315080134401C01002410B4114C1149124822680B883A
S315080134509BB213B14B889BB213B901328242F6D1A2
S3150801346022604A880B88D2B20B48DBB20B49802A04
S315080134708CBF7F3A803A802B52B28CBF7F3B803B10
S3150801348002705BB20B705DF8044B7047084A002462
S315080134900001082480380100184A0024194A00242A
S315080134A0F8B5134E4FF40051124F30460DF096FE03
S315080134B04FF48041054638460DF090FE04464FF418
S315080134C080413846C4EB45040DF088FE4FF400519F
S315080134D0E4B205463046023C0DF080FE064A04EB8E
S315080134E0C004064BA4EB8500C0B210701870F8BD75
S315080134F000080258001C0258214A00240C4A0024DC
S31508013500144A154953881288DBB2D2B2802B10B4FB
S3150801351014D97F3B0978802AA3EB01035BB214D93E
S315080135207F3A521A52B20D4C0D480E492370036068
S315080135300D4B0A705DF8044B1A6070470978802AAA
S315080135400B44A3F180035BB2EAD8803A0A4452B22B
S31508013550E9E700BF00010824194A0024224A002489
S31508013560104A0024234A0024144A0024012300F0A7
S31508013570B7BA00BF032300F0B3BA00BF38B50620B7
S3150801358005F0FCF9F0B9294C236803F57C3393F867
S31508013590F52F002A33D193F9F44F93F8F12F24022A
S315080135A0002A3BD193F8F00F002321490443214A0D
S315080135B0214D0C80137021482149224A2B70037032
S315080135C00B7013600123204A40F213411F4C11600E
S315080135D0237000F0DDFA00F0EBFA00F0A3FA0A20F6
S315080135E00AF058FFFFF72EFF237803B938BD05F017
S315080135F04FFB0E4B1868BDE838401DF0D3B902469B
S3150801360001464FF6FD7003F01FF92368000203F522
S315080136107C3304B293F8F12F002AC3D000224FF667
S31508013620FC70114603F010F900B2BDE7C47300241B
S315080136305E7A00245C7A0024607A0024617A002488
S3150801364060120024647A0024587A0024204A00244F
S315080136502DE9F0415C4C94F87D30BBB194F87C308F
S31508013660D4E92401821C4FF0000041F10003C4E9AA
S315080136702423216F8A4273F1000309D294F87C301E
S31508013680A16FD4E9242331F812306367BDE8F081CC
S3150801369094F87D30022BDDB21ED0032D1CD10026F5
S315080136A00027C4E92467206784F87D0094F87C30F4
S315080136B0022B5FFA83F826D094F89930012B33D080
S315080136C094F87C30022B0DD094F89930022BDDD179
S315080136D00023C4F89C30D9E700220023C4E9242337
S315080136E0BDE8F08194F89930022BDEB2ECD1374D62
S315080136F06A69EB689A421FDB4FF400513448BDE80A
S31508013700F0410DF075BD94F89930012BD4D1314BA8
S31508013710D4F89C201868436B9A4231D34FF4005170
S315080137202B480DF065FDCBE72A4A00231068C4F83B
S315080137309C30FDF7D5FEC3E727492846FDF700FD6E
S3150801374025492648FDF7A8F8D4F8A0102348D4F847
S31508013750A420FDF781F9D4F8A020D4F8A4300020DC
S3150801376000212367032384F87D306B690133C4E99B
S3150801377024016B6184F87C60A267A36F6367BBE76A
S31508013780154AD4F89C10FDF75BFE13491348FDF75B
S3150801379083F8D4F8A0101148D4F8A420FDF75CF9F1
S315080137A0D4F8A030D4F8A420226784F87D50C4E95F
S315080137B0246784F87C80A367A36F6367D4F89C3079
S315080137C00133C4F89C30A9E7100008247C4E002474
S315080137D0001C0258185000246C4E0024284A002464
S315080137E02DE9F041B74C94F84530BBB194F8443013
S315080137F0D4E91601821C4FF0000041F10003C4E927
S315080138001623A16B8A4273F100034CD294F8443013
S31508013810216CD4E9162331F81230E36394F8B530F4
S31508013820D3B194F8B430D4E93201821C4FF00000C8
S3150801383041F10003C4E93223D4F8A8108A4273F18E
S3150801384000030BD294F8B430D4F8B010D4E932237B
S3150801385031F81230C4F8AC30BDE8F08194F8B530CF
S31508013860022BDDB247D0032D45D100260027C4E936
S315080138703267C4F8A80084F8B50094F8B430022B6E
S315080138805FFA83F83DD094F8D130012B7DD094F8B6
S31508013890B430022B47D094F8D130022BDCD1002367
S315080138A0C4F8D430D8E794F84530022BDDB21DD0E0
S315080138B0032D1BD100260027C4E91667A06384F8E7
S315080138C0450094F84430022B5FFA83F83CD094F80B
S315080138D06130012B61D094F84430022B45D094F81D
S315080138E06130022B9AD10023636697E700220023F1
S315080138F0C4E9162392E700220023C4E93223BDE86E
S31508013900F08194F8D130012BBDD16F4BD4F8D42076
S315080139101868436B9A42C0F08F804FF400516B4888
S315080139200DF066FCB3E794F8D130022BDEB2B2D1C2
S31508013930674D6A69EB689A425ADB4FF4005163484E
S31508013940BDE8F0410DF054BC94F86130012BBED1AD
S315080139505D4B626E1868436B9A42C0F091804FF4D2
S3150801396000515A480DF044FCB5E794F86130022B32
S31508013970DEB2B4D1564D6A69EB689A4214DB4FF44C
S31508013980005152480DF034FC48E74F4A00231068AD
S31508013990C4F8D430FDF7A4FD79E74B4A0023106833
S315080139A06366FDF79DFD96E74A492846FDF7C8FB7C
S315080139B048494948FCF770FFD4F8A0104648D4F89E
S315080139C0A420FDF749F8D4F8A020D4F8A4300020A3
S315080139D000212367032384F87D306B690133C4E929
S315080139E024016B6184F87C60A267A36F6367C6E7ED
S315080139F038492846FDF7A4FB36493748FCF74CFFFA
S31508013A00D4F8A0103448D4F8A420FDF725F8D4F842
S31508013A10A020D4F8A430002000212367032384F8CA
S31508013A207D306B690133C4E924016B6184F87C60DC
S31508013A30A267A36F636780E7264AD4F8D410FDF717
S31508013A40FFFC24492448FCF727FFD4F8A010224894
S31508013A50D4F8A420FDF700F8D4F8A030D4F8A420AF
S31508013A60226784F87D50C4E9246784F87C80A367BB
S31508013A70A36F6367D4F8D4300133C4F8D4304CE764
S31508013A80144A616EFDF7DCFC12491348FCF704FF82
S31508013A90D4F8A0101048D4F8A420FCF7DDFFD4F818
S31508013AA0A030D4F8A420226784F87D50C4E924679D
S31508013AB084F87C80A367A36F6367636E01336366CB
S31508013AC04DE700BF1000082418500024001C0258B6
S31508013AD07C4E00246C4E0024284A00240000000075
S31508013AE010B5C3EBC30E0E4C9FED0B7B04EBCE0C4E
S31508013AF04FEACE0E44F80E108CF80D208CED087B9B
S31508013B008CF80C30CCF80800DCF80830CCF8043016
S31508013B1010BD00BFAFF300800000000000000000E8
S31508013B201000082470B5154C1521154D154E204663
S31508013B30154A13F011FA154A1521284613F00CFAFD
S31508013B4006F13C0202230021204612F005FF06F188
S31508013B50AC0202230821204612F0FEFE06F1740289
S31508013B6002230421284612F0F7FE284612F0A0FD8A
S31508013B702046BDE8704012F09BBD00BF48440024B2
S31508013B80B048002410000824E1370108513601081D
S31508013B9008B504220449054812F07EF900B908BDA2
S31508013BA0BDE80840FEF7C0BBF0000824C043002466
S31508013BB008B50422084909480AF020FF20B908482F
S31508013BC0BDE8084012F006BDFEF7AEFB0448BDE8A5
S31508013BD0084012F0FFBC00BF00010824403D002444
S31508013BE07C46002410B514464FF0FF3392B20248C2
S31508013BF013F0E8FF204610BD6C49002400000000C0
S31508013C001B4B4A1E1B1A9A4210B588B005D8194B88
S31508013C1003440B44B3F5003F03D30024204608B000
S31508013C2010BD154B0344B3F5003F4FF0FF3338BFC2
S31508013C300023DBB2FF2BF0D0002301930CF0D6FF53
S31508013C400722012301A902A89FED077BCDE90423D9
S31508013C508DED027B0DF07AF8B0FA80F40CF0ECFFEA
S31508013C606409204608B010BD0000000002000000EB
S31508013C70FFFF1F08FFFFE1F70000E2F7F8B5274D40
S31508013C80274E284F284600F0B3FF0346284663B35C
S31508013C9000F0D2FF04461BF073FB3378A2B210463C
S31508013CA01BB10023002AEDD03370BB883A68013373
S31508013CB040EA02209BB23860042BBB80E2D1002384
S31508013CC0A0B1420C3B60BB80830FC0F30B0102F429
S31508013CD0FC52C0F30B300DD000F076FB284600F0FD
S31508013CE087FF03462846002BD2D1F8BD0123B880A9
S31508013CF03370C7E70C4C23786BB900F02DF94FF4F4
S31508013D0000510A480DF074FA2378012B14BF0133C8
S31508013D1000232370F8BD00F0ADF9F5E71082002401
S31508013D201C500024205000241D500024001C025859
S31508013D3038B5184D184800F07FFF04461BF020FBE4
S31508013D402A78A3B212B1A3B100222A7013498A882C
S31508013D500868013243EA002093B20860042B8B807D
S31508013D6007D198B10024830F0C608C8003D1012000
S31508013D7038BD002038BD420CC0F30B01C0F30B302F
S31508013D8002F4FC5200F020FB204638BD012388804E
S31508013D902B7038BD1C5000241082002420500024AA
S31508013DA0014B01221A73704710010824044A0120A5
S31508013DB0044913784873B3FA83F35B0913707047A0
S31508013DC03850002410010824014B01229A737047C8
S31508013DD010010824FEF7A8BAFEF7A6BAFEF7A4BA98
S31508013DE02A4B03F5FE2270B51D68146AA54201D156
S31508013DF000241C6054691E68254D34F816C02D68C8
S31508013E0061F30F1C24F816C014691E6834F816C02D
S31508013E1060F30F1C24F816C01C684FEAD40C1C6802
S31508013E2035F81CE0661C6FF30F1E25F81CE01E60B2
S31508013E30166AB44201D100241C601C681C680CBBBC
S31508013E4011696FF00044106A204431F81000C0F37C
S31508013E500B1010831069116A214430F81110C1F34F
S31508013E600B1151831B6853B9116A6FF0004303EBB9
S31508013E70D10335F81330C3F30B13D38370BD002375
S31508013E80D38370BD10835183ECE700BF100108246A
S31508013E903C500024884207DA0029B8BF494288B253
S31508013EA0904228BF1046704780B2904228BF1046FC
S31508013EB0704700BF08B51C480DF050FA48BB1B48AF
S31508013EC00DF04CFA60BB1A4A03211A480BF064FA42
S31508013ED0194A002117480BF05FFA184A07211548B5
S31508013EE00BF05AFA164A042112480BF055FA154AEC
S31508013EF0032115480BF050FA144A002112480BF019
S31508013F004BFA134812F066FB1248BDE8084012F056
S31508013F1061BBFEF709FA05480DF020FA0028D2D050
S31508013F20FEF702FACFE700BF884200245442002474
S31508013F30D53D0108A43D0024A13D0108D93D01084C
S31508013F40AD3D0108DD3D0108E03D0024C93D0108FC
S31508013F5038470024F447002470B53B4C82B02368E7
S31508013F600BB902B070BD394804F5FE2512F08AFB7B
S31508013F70374812F087FB002136480BF03DF910212E
S31508013F8034480BF039F934480BF0AEFF00213348B9
S31508013F900BF032F9324A6B6904F11000A2F57E3151
S31508013FA0304E93420CBF13460B46A2F5FE316B61A8
S31508013FB02A6933688A420CBF0A4602462A492548B5
S31508013FC02A612A4A93420CBF13460B4604216A69A1
S31508013FD033600091002123680BF082F838BB042175
S31508013FE02A691C480091102123680BF079F838BB1F
S31508013FF00421236832680091DB08002117480BF079
S315080140006FF8D0B923681A4A3168DB0812480BF0F1
S31508014010ABFD78B900230D4823606373237312F04F
S31508014020D9FA0B4802B0BDE8704012F0D3BAFEF7D0
S315080140307BF9D4E7FEF778F9ECE7FEF775F9E1E7DE
S31508014040FEF772F9D4E700BF1001082438470024A7
S31508014050F4470024A43D0024943E0024E03D0024B6
S3150801406020F50D243C50002400000038803F00381C
S3150801407014240258014B00221A60704710010824C3
S315080140801F4B03F5FE2270B41D68146AA54201D1BF
S3150801409000241C6014691D6834F8156060F30F1656
S315080140A024F81560186830B354696FF000401D682C
S315080140B0284434F81000C0F30B1054691E68114DDA
S315080140C034F816C02D6860F30F1C24F816C018685A
S315080140D01C68C00835F810C061F30F1C611C25F86F
S315080140E010C01960126A944201D100221A60186838
S315080140F070BC80B2704750690088C0F30B10DCE7CA
S31508014100100108243C5000241F4B03F5FE2270B40D
S315080141101D68146AA54201D100241C6054691D68F2
S3150801412034F8156060F30F1624F81560186830B373
S3150801413014696FF000401D68284434F81000C0F374
S315080141400B1014691E68114D34F816C02D6860F3FA
S315080141500F1C24F816C018681C68C00835F810C06A
S3150801416061F30F1C611C25F810C01960126A94428C
S3150801417001D100221A60186870BC80B270471069B4
S315080141800088C0F30B10DCE7100108243C5000241A
S315080141902DE9F04FDFF82C828DB017469C4608F5BD
S315080141A0FE2AD8F800400490DAF8200007918442E4
S315080141B0BDF85810BDF85C2002D10020C8F80000EF
S315080141C0DAF81400C1F30B05D8F800402B46099517
S315080141D030F814506CF30F1520F81450DAF8104023
S315080141E0D8F80050764834F81560006867F30F165A
S315080141F024F81560D8F80040D8F80050E40830F8DB
S31508014200146063F30F1620F814606C1CC8F800409C
S31508014210DAF82040A54202D10024C8F80040D8F8AF
S31508014220004000293DD0049B17414CFA02F943FA94
S3150801423002F4BFB2079B1FFA89F9A4B21341A74238
S31508014240009469D89DB2E31BA9451FFA83FB029521
S3150801425079D901230B932B46A3EB0905A9EB030097
S315080142605D4483B22DB208934FF6FF730A9301207A
S31508014270049B9040013803400393089B5B420193DA
S31508014280AEB2740024B25C45C0F28580019B9C42A3
S315080142906FDC009BBB42F3D1029B9945F0D1484B99
S315080142A01868D8F80020DAF820309A4202D100239B
S315080142B0C8F80030DAF81430D8F80020079C33F82B
S315080142C0121064F30F11049C23F81210DAF8103057
S315080142D0D8F8002033F8121064F30F11099C23F85B
S315080142E01210D8F80030D8F80020DB0830F813107F
S315080142F064F30F1120F81310531CC8F80030DAF8CC
S3150801430020309A4202D10023C8F80030D8F80000BC
S3150801431080B20DB0BDE8F08F98B2009B4845A7EB77
S31508014320030302901FFA83FB1ED3A9EB0005A0EB3A
S31508014330090083B25D444FF6FF70089301232DB23D
S31508014340CDE90A3093E72B46A9EB0505A3EB09044A
S315080143505D44A3B22DB2089302D1009B9F42A0D01F
S315080143600123CDE90A3382E74FF6FF730B93034620
S3150801437072E70B9B06911F44089B0592BFB2F51A7B
S31508014380039B07FA02F02DB2184480B2FFF778FEB4
S31508014390DDE905217DE70A9B06EB0B0506919944A4
S315080143A0039B0592AEB21FFA89F92DB209FA02F0FA
S315080143B0184480B2FFF7A8FEDDE9052166E700BFCC
S315080143C03C50002410010824F0B5074683B00E4678
S315080143D01546002A32D0364C4FF0020C228B638BDD
S315080143E092B29BB2CDE9005CFFF7D2FEA4F5FE239B
S315080143F01A68002A4DD122696FF00040216A0144EA
S3150801440032F81110C1F30B1121832169226A024482
S3150801441031F81220C2F30B1262831B68002B3DD1BF
S31508014420216A6FF00043234A03EBD103126832F87D
S315080144301330C3F30B13E38303B0F0BD1E4B03F52F
S31508014440FE241968226A91422FD0626919681948AF
S3150801445032F811C0006866F30F1C22F811C02269F0
S31508014460196832F811C067F30F1C22F811C01A68CF
S315080144701968D20830F812C06FF30F1C20F812C061
S315080144804A1C1A60226A91420BD01A681A68002AD5
S31508014490B1D0278366831B68002BC1D0E58303B09F
S315080144A0F0BD00221A601A68F0E71D60CDE700BF6B
S315080144B010F10F243C50002410010824F0B5204DBA
S315080144C083B0022340F2FF7C05F5FE2407460193DB
S315080144D00E46228B638B92B2CDF800C09BB2FFF7D2
S315080144E057FE2B680BBB23696FF00041226A0A4409
S315080144F033F81220C2F30B1222832269236A0B4472
S3150801450032F81330C3F30B1363832B6893B9216A0B
S315080145106FF000430B4A03EBD103126832F81330EC
S31508014520C3F30B13E38303B0F0BD278366832B68BC
S31508014530002BECD040F2FF73E38303B0F0BD00BF5C
S31508014540100108243C5000242DE9F84FA0F120055C
S31508014550DFF8A0809A464FEA851908EB851418F802
S315080145600960CEB3013E6D018B46174615FA86F5ED
S3150801457008F1020606EB4506012508E0BC440025BC
S315080145801FFA8CF1FFF72CFC0234A64224D094F9C9
S3150801459002200AFB02F3013229D013EB430394F9F3
S315080145A003C048BF03330AFB0CFC9B101CEB4C0CE5
S315080145B00BEB030048BF0CF1030C034680B24FEA2C
S315080145C0AC0C002DDAD1BC44023498B21FFA8CF136
S315080145D0FFF774FFA642DAD1C84498F801000AFB2E
S315080145E000FA0AEB4A0ACAF38F00BDE8F88F0125DB
S315080145F0CAE700BF6C0B080820382DE9F047224F9F
S315080146004FEA801817F8085007EB80199DB3013D4A
S3150801461040018A46164610FA85F0BD1C012405EBB1
S31508014620400508E03144002489B2FFF7D9FB09F1B6
S3150801463002094D451FD099F902305A1C22D013EBB5
S31508014640C30399F9031048BF033311EBC1014FEABC
S31508014650A30348BF03310AEB03008910034680B25E
S31508014660002CDFD1314409F1020998B289B2FFF76A
S3150801467025FF4D45DFD14744787800EBC000800817
S31508014680BDE8F0870124D2E76C0B0808002138B58C
S31508014690084640F60805FFF7A3FB00214FF48060A2
S315080146A00124FFF70BFF4FF480610846FFF706FF69
S315080146B04FF480610020FFF701FF00210846FFF74C
S315080146C0FDFE002140F6FF70FFF78AFB002140F648
S315080146D0FF50FFF7F3FE4FF4007140F6FF70FFF746
S315080146E0EDFE002140F6FF70FFF7E8FE40F6FF7188
S315080146F00846FFF775FB40F6FF7140F6FF50FFF7D6
S31508014700DDFE40F6FF510846FFF7D8FE40F6FF5199
S3150801471040F6FF70FFF7D2FE40F6FF710846FFF735
S31508014720CDFE40F6FF710020FFF75AFB40F6FF71F8
S315080147304FF40070FFF7C2FE40F6FF510020FFF765
S31508014740BDFE40F6FF514FF40070FFF7B7FE40F685
S31508014750FF710020FFF7B2FE40F2FF5140F2FF70F1
S31508014760FFF73EFB40F6FF7240F6FF1140F2FF707D
S31508014770FFF72AFE40F2FF7140F2FF50FFF730FBC8
S3150801478040F6FF7240F2FF7140F6FF10FFF71CFE7C
S3150801479029464FF4C860FFF723FB2246043429460D
S315080147A040F26C702035A4B2FFF70EFE412CADB273
S315080147B0EED10024214620462546FFF711FB0DE0E0
S315080147C0FFF70EFB0021C4EBC4028035084601340D
S315080147D092B2FFF7F9FDB5F5906F12D0C4EBC4029A
S315080147E014F0010FA9B24FF4806092B2E8D1A9B2D0
S315080147F080354FF480600134FFF7E6FDB5F5906F1B
S31508014800ECD10024214620462546FFF7E9FA0DE0BA
S31508014810FFF7E6FA0021C4EBC402803508460134E5
S3150801482092B2FFF7D1FDB5F5806F12D0C4EBC40281
S3150801483014F0010FA8B24FF4806192B2E8D1A8B280
S3150801484080354FF480610134FFF7BEFDB5F5806F01
S31508014850ECD140F23E646823274D2146184640F6BE
S3150801486058220623FFF770FE15F8013F0444A4B247
S31508014870002BF2D140F634044623204D2146184632
S3150801488040F26C72FFF7B8FE15F8013F0444A4B272
S31508014890002BF3D140F634044123194D214618461D
S315080148A040F22672FFF7A8FE15F8013F0444A4B2A8
S315080148B0002BF3D140F634043123124D2146184614
S315080148C04FF4DC62FFF798FE15F8013F0444A4B2E1
S315080148D0002BF3D140F634044F230B4D21461846DD
S315080148E04FF41662FFF788FE15F8013F0444A4B297
S315080148F0002BF3D138BD00BF0C0B0808200B0808A4
S31508014900300B08083C0B0808480B0808F8B5294E6F
S31508014910316801F5504393F80028C2F383030F2B3E
S31508014920254B24D000221A6001F57043234C1A79CD
S315080149302768187D974218BF002A1D7C02D050EAC5
S31508014940050724D001F5604122601D4A91F8004807
S315080149501C490C601C781C490C601C7A197B1B4B82
S31508014960146019601A4A1B4B15601860F8BD18685F
S315080149700028D9D11848012192100068196002F05F
S315080149803002164980681CF09FFB3168CCE7144851
S31508014990006808B90546D5E7124B0322124819687B
S315080149A0FEF7E4FD316801F570431A791D7C187D1F
S315080149B0C8E700BFC47300244050002448500024AF
S315080149C04C5000245C5000244450002450500024CC
S315080149D054500024585000246C130024540B080822
S315080149E00C010024341D00240C000824012800D0E1
S315080149F07047F8B5444B1B6803F5C04393F800515B
S31508014A00AA061ED5414E044633685F070ED46807C9
S31508014A100CD529074FF003024DD545F220513C48E4
S31508014A20FEF7A4FD05F01007336805E0DA0701D49F
S31508014A30EF0735D405F01007180610D4290622D435
S31508014A40F8BD344905F0FB02097809B905F07B027E
S31508014A5022F001022D4983F800210D60F8BD2B06CD
S31508014A60EED52C4D2C4A01232B701368013B002BE4
S31508014A701360E5DC294801681160294A1368013B7E
S31508014A8028D01360F8BDAA072DD4224D2B78002B08
S31508014A90E8D102224FF495512248FEF76BFDE1E772
S31508014AA015F010074FF003020ED01F491F48FEF7F5
S31508014AB05DFD3368C0E74FF48F411D48FEF756FD8B
S31508014AC005F010073368B7E71A491B48FEF74EFD8C
S31508014AD03368B1E7A7B1013903240F2914600ADD48
S31508014AE00F230360F8BD02224FF4DA511348094D2A
S31508014AF0FEF740FDB6E7052904DC06230360F8BD89
S31508014B000131EAE70160F8BDC4730024645000244A
S31508014B10886B07086050002468500024140100249B
S31508014B2010010024807F03088278010004F3050838
S31508014B30A8C00708E460020020920308406403083D
S31508014B4000234380038070470023438003808380CA
S31508014B50704700BF438882B09BB2ADF80630028821
S31508014B60BDF8063092B29BB29A42038818D39BB21B
S31508014B70B3F57E4F1CD303889BB2B3F57E4F1FD086
S31508014B80BDF806309BB2B3F5007F16D9038800221B
S31508014B909BB283800280038810FA83F002B07047C3
S31508014BA0BDF806209BB292B203F50073934204D274
S31508014BB0038810FA83F002B07047002002B07047EC
S31508014BC0BDF806309BB2002BDAD0F1E7038811FA5B
S31508014BD083F189B201800288838892B29BB29A4294
S31508014BE001D300238380002302880380704700BF16
S31508014BF0038882B09BB2ADF8043083889BB2ADF8C6
S31508014C0006304288BDF8043092B29BB29A420BD95B
S31508014C10BDF80630BDF80410428888B292B210FA7F
S31508014C2083F0801A02B07047BDF80430428898B202
S31508014C3093B2C01A02B07047038882B09BB2ADF82E
S31508014C40043083889BB2ADF806304288BDF8063039
S31508014C5092B29BB29A4201D1002343804288BDF8A1
S31508014C60043092B29BB29A4212D043889BB25A1C24
S31508014C7092B242804188BDF8062089B2C35C92B2DD
S31508014C80914202D2184602B0704700224280F9E7E3
S31508014C904FF0FF30F7E700BF43699889C0F38010EA
S31508014CA0704700BF40691AF005BF00BF40691BF095
S31508014CB077BB00BF40691BF0DDBC00BF0346084651
S31508014CC001215B691BF048BA2DE9F8430E461546E2
S31508014CD083680222002107469847002853D10446D3
S31508014CE07B6838469847162858D9B0F5903F8146CB
S31508014CF02246BB6828BF4FF49039A0EB0901384614
S31508014D0098474C468046002853D13B6838464A4660
S31508014D1029469847814557D8314932482B592A1986
S31508014D20013C8B420DD083420BD0631CF6D12E4B2E
S31508014D30262201212D481B68A046DB681BF088FD49
S31508014D4013E01368D168546890687460F160336041
S31508014D50B0601369B1883361938AB38241B9F38824
S31508014D6033B9728933899A4202D14046BDE8F8833C
S31508014D701D4B1D2201211E481B684FF0FF38DB68B9
S31508014D801BF066FDF1E7184B1F22012119481B6824
S31508014D904FF0FF38DB681BF05BFDE6E7124B1B2281
S31508014DA0012115481B684FF0FF38DB681BF050FDE1
S31508014DB0DBE70D4B1822012110481B684FF0FF381D
S31508014DC0DB681BF045FDD0E7074B1E2201210C4885
S31508014DD01B684FF0FF38DB681BF03AFDC5E700BFDB
S31508014DE0504B050606054B506C130024C4230808CE
S31508014DF0A42308082C2308084C2308086823080854
S31508014E008423080870B5ADF5856D0D4603681E2225
S31508014E1002A9044698471D2850D92B4B029A9A4253
S31508014E204CD1BDF82220B2F5806F47D223682046BF
S31508014E300AA99847BDF8223098423FD30AA9002209
S31508014E40CA54BDF8241029B1A66801222046B047E4
S31508014E50002833D1BDF81030C3B1082BDDF81A206C
S31508014E60DDF81E1024D123682046CDE90112174921
S31508014E709847029B98421BD102AB144A01A92846BE
S31508014E8000F0F2FEA0B90DF5856D70BDDDF81E3096
S31508014E90DDF81A609E4211D123683246294620461A
S31508014EA09847864204D8E368204698470028EAD0FE
S31508014EB007481BF0DDFF4FF0FF30E4E705481BF01C
S31508014EC0D7FF4FF0FF30DEE7504B03047450002440
S31508014ED0A02408087C2408082DE9F04FADF5923D79
S31508014EE0134604460322C3B08946B84900AF07F5FD
S31508014EF02C7507F17800BB6019F0AAFB012221463F
S31508014F00284619F0F1FBD5F81080B14A08F10703D4
S31508014F10414623F00703ADEB030D68461BF098F8ED
S31508014F20002800F07F814246064607F114036946C8
S31508014F3007F52C7019F0E2FD95F83120024312F0BD
S31508014F40FF050ED0A34B4A46A3491B6898681BF078
S31508014F5089F807F52C701AF079F830461AF0AAFD87
S31508014F60FEE730461CF098F833464246012168466A
S31508014F701BF0F2F80222294630461BF011FA304698
S31508014F801BF078FB30461CF087F8924A234607F156
S31508014F903004126891499068914A66612260914A83
S31508014FA06260914AA260914AE260914A22614A4648
S31508014FB01BF058F807F5A16207F118012046FFF71B
S31508014FC083FE0246002840F038818A4B07F118050E
S31508014FD02969C3F80090884B186007F13000A36867
S31508014FE098477860002840F044816B89002B5FD090
S31508014FF0D7F80480DFF828A223682E2207F1480192
S3150801500007F1300098472D2840F2BC8007F1480384
S315080150101B68534503D0794A934240F0BB80236805
S3150801502007F5A16107F13000B7F864209847B7F88A
S31508015030643007F148059842C0F09C80002207F5C4
S31508015040A16107F13000CA540122A368E98B984788
S31508015050002869D1A3680122298C07F130009847F5
S315080150608346002860D1D5F82A1007F13000636815
S31508015070F96098475A46F9688346A36807F13000EC
S315080150809847054600284BD15A4B07F5A160196880
S31508015090FBF78CF960B3A3682A46594607F1300035
S315080150A0984707F1180308F101085B899845A3DBBE
S315080150B0514B00241D684F4B1C60002D72D007F11F
S315080150C0300318461B69984707F52C7019F0BEFF7F
S315080150D022464B49204619F0BBFA20461AF0EAFC4B
S315080150E0786807F5923707F58677BD46BDE8F08FEC
S315080150F0B96808F10108F86007F13000FFF782FE88
S3150801510001233D485946FA68036007F13000A36850
S31508015110984707F118035B8943453FF76DAFC7E722
S3150801512038481BF0A5FEC3E72A4B424636491B6899
S31508015130D8681AF097FF274B0121342233481B6898
S315080151409B681BF085FB07F130034FF0FF321846C9
S315080151501B697A60984707F52C7019F077FF304676
S315080151601AF0A8FC0022234B254910461A6019F0AB
S315080151706FFAB5E7174B424625491B68D8681AF0F6
S3150801518071FFD8E7134B424622491B68D8681AF0C3
S3150801519069FFD0E70F4B42461F491B68D8681AF0CA
S315080151A061FFC8E70B4B4FF0FF304A461B491B68A6
S315080151B0786098681AF056FF2A461149284619F068
S315080151C047FA28461AF076FC8AE700BFD824080869
S315080151D0DC2408086C13002444250808202508083F
S315080151E0BD4C0108B54C0108AD4C0108994C0108A4
S315080151F0A54C01086C5000247050002402014B5044
S31508015200DC270808BC2408084C2408089C2508083B
S3150801521030240808EC2308080C240808D4250808B3
S31508015220504B0102174823464A46174900688068C9
S315080152301AF018FF01201AF0D5FB124B0121302272
S3150801524012481B689B681BF003FB4FF0FF3223696A
S3150801525007F130007A60984707F52C7019F0F6FEC9
S3150801526030461AF027FC2A460949284619F0F0F96A
S3150801527036E7044B1822012106481B68DB681BF038
S31508015280E7FA58E76C130024E0240808682508089B
S31508015290DC2708086823080803682DE9F04F154636
S315080152A08FB00C4620220646002118461BF0CCFD7D
S315080152B0002D03460CDDA11E01EB450731F9020F4E
S315080152C033F81020B94202F1010223F81020F5D172
S315080152D0B3F90020AA4200F0B980B3F902A0DAF1C5
S315080152E0020000F1B080B3F90420D2EB400000F1CE
S315080152F0AA80B3F90610D1EB400000F1A480B3F9F6
S3150801530008C0DCEB400000F19E80B3F90AE0DEEB51
S31508015310400000F19880B3F90C70D7EB4000009774
S3150801532000F19180B3F90E80D8EB400000F18B8033
S31508015330B3F910B0DBEB400000F18580B3F91290A8
S31508015340D9EB40007FD4B3F91470D7EB400001972D
S3150801535079D4B3F91670D7EB4000029773D4B3F931
S315080153601870D7EB400003976DD4B3F91A70D7EBD1
S315080153704000049767D4B3F91C70D7EB4000059732
S3150801538061D4B3F91E30D3EB40005CD45244009F7C
S31508015390ADF81CA092B21144ADF81E2089B28C4416
S315080153A0ADF820101FFA8CFCE644ADF822C01FFAAE
S315080153B08EFE7744ADF824E0BFB2B844ADF8267046
S315080153C0049F1FFA88F808EB0B03ADF828809BB2F7
S315080153D003EB0902ADF82A3093B2019A1A44ADF8E3
S315080153E02C3093B2029A1A44ADF82E3093B2039A2E
S315080153F01A44ADF8303093B200221F449542ADF8F5
S3150801540032301FFA87F9059FADF81A204F44ADF8D7
S315080154103490ADF8367016DD023C844604EB45053A
S3150801542034F9023F0EA901EB43013BB131F9203CA6
S3150801543070685F1C20F8132021F8207CAC4202F129
S315080154400102EDD160460FB0BDE8F08F00200FB024
S31508015450BDE8F08F2DE9F0470A680027D0F81C80CF
S315080154608A4685690232434601263C46BE468BB9C1
S31508015470D6F1100321D0D0E904158D4230D0082B7E
S3150801548005F10109C168A8BF0823C0F814904D5D4C
S31508015490002BEDD005F0010C6D104CEA0E0C32F91B
S315080154A002EBACEB0E09A1450BDB74447744013BD7
S315080154B04FEA4C0E64000136D9E76FF00900BDE8E2
S315080154C0F087A8EB0606ACEB040CDAF8043006F014
S315080154D00706BC448561C66133F91C00BDE8F0873F
S315080154E001212030FAF75AFF2DE9F84FDFF88091AC
S315080154F00446DFF880B188462DED028B08EE102AA6
