S00C000050726F672E7372656380
S3150801000000000824D10C0108050C0108070C010899
S31508010010090C01080B0C01080D0C01080000000071
S315080100200000000000000000000000000F0C01089D
S31508010030110C010800000000130C0108150C010839
S31508010040650D0108650D0108650D0108650D0108B5
S31508010050650D0108650D0108650D0108650D0108A5
S31508010060650D0108650D0108650D0108650D010895
S31508010070650D0108650D0108650D0108650D010885
S31508010080650D0108650D0108650D0108650D010875
S31508010090650D0108650D0108650D0108650D010865
S315080100A0650D0108650D0108650D0108650D010855
S315080100B0650D0108650D0108650D0108650D010845
S315080100C0650D0108650D0108650D0108650D010835
S315080100D0650D0108650D0108650D0108650D010825
S315080100E0650D0108650D0108650D0108650D010815
S315080100F0650D0108650D0108650D0108650D010805
S31508010100650D0108650D0108650D0108650D0108F4
S31508010110650D0108650D0108650D0108650D0108E4
S31508010120650D0108650D0108650D0108650D0108D4
S31508010130650D01080000000000000000650D0108BA
S31508010140650D0108650D0108650D0108650D0108B4
S31508010150650D0108650D0108650D0108650D0108A4
S31508010160650D0108650D0108650D0108650D010894
S31508010170650D0108650D0108650D0108650D010884
S31508010180650D0108650D0108650D0108650D010874
S31508010190650D0108650D0108650D0108650D010864
S315080101A0650D0108650D0108650D0108650D010854
S315080101B0650D0108650D0108650D0108650D010844
S315080101C0650D0108650D010800000000000000002A
S315080101D00000000000000000650D01080000000095
S315080101E00000000000000000000000000000000000
S315080101F00000000000000000650D0108650D0108FA
S31508010200650D0108650D010800000000650D01086E
S31508010210650D0108650D0108650D0108650D0108E3
S31508010220650D0108650D0108650D0108000000004E
S31508010230650D0108650D010800000000650D01083E
S31508010240650D0108650D0108650D0108650D0108B3
S31508010250650D0108650D0108650D0108650D0108A3
S31508010260650D0108650D0108650D0108650D010893
S31508010270650D0108650D0108650D010800000000FE
S31508010280650D0108650D010800000000650D0108EE
S3150801029000000000650D0108650D0108650D0108DE
S315080102A0650D0108650D0108650D0108EE11AA55D0
S315080102B010B5054C237833B9044B13B10448AFF391
S315080102C000800123237010BD3C04002400000000B7
S315080102D0E41C010808B5034B1BB103490348AFF3F6
S315080102E0008008BD0000000040040024E41C010849
S315080102F008B500F039F800F00BF800F007F808BD6A
S3150801030008B500F00FF800F002F808BD704770470D
S3150801031008B500224FF48041014800F00DFF08BDE1
S315080103200004025810B500F020F80C4B1B68C31ADC
S31508010330B3F57A7F08D30446094B1B782BB1084BD2
S3150801034000221A70054B1C6010BD0122044B1A705D
S315080103504FF40061034800F0EFFEF3E75C04002464
S315080103605804002400180258704708B500F05EFDCD
S3150801037008BD0000014A024B9A6070470000010857
S3150801038000ED00E001F0030C0CF102020B4B53F8EF
S3150801039022200B0C22EA114193FAA3F363B1B3FAB3
S315080103A083F303F01F0300FA03F30B430CF1020C6A
S315080103B0024A42F82C3070472023F2E7000400581D
S315080103C02DE9F04F97B000241294139414941594C0
S315080103D00C940D940E940F9410941194C44BD3F865
S315080103E0402142F48072C3F84021D3F8402102F437
S315080103F080720B920B9AD3F8402142F04002C3F85F
S315080104004021D3F8402102F040020A920A9AD3F811
S31508010410402142F48062C3F84021D3F8402102F416
S3150801042080620992099AD3F8402142F00802C3F87A
S315080104304021D3F8402102F008020892089AD3F81D
S31508010440402142F00402C3F84021D3F8402102F0CA
S3150801045004020792079AD3F8402142F01002C3F822
S315080104604021D3F8402102F010020692069AD3F8E9
S31508010470402142F00202C3F84021D3F8402102F09C
S3150801048002020592059AD3F8402142F40072C3F894
S315080104904021D3F8402102F400720492049AD3F859
S315080104A0402142F00102C3F84021D3F8402102F06D
S315080104B001020392039AD3F8402142F02002C3F8BD
S315080104C04021D3F8402102F020020292029AD3F881
S315080104D0402142F08002C3F84021D3F8403103F0AD
S315080104E080030193019B834F4FF46023BB61824BC9
S315080104F0824A93614FF0006381498B611346082252
S315080105009A6106238B617F491046FFF73BFF7E49B7
S315080105100820FFF737FF7D490820FFF733FF7C499D
S315080105200220FFF72FFF4FF070610720FFF72AFF20
S31508010530102312931394149401268DF854608DF8A0
S3150801054055608DF8566012A800F0A8FF2023129373
S31508010550139414948DF854608DF855608DF856608F
S3150801056012A800F09BFF4FF480731293139414940E
S315080105708DF854608DF855608DF8566012A800F014
S315080105808DFF4FF400531293139414948DF854600D
S315080105908DF855608DF8566012A800F07FFF042388
S315080105A01293139414948DF854608DF855608DF850
S315080105B0566012A800F072FFFB6823F44073FB60D3
S315080105C0FB6823F44063FB60FB6823F4403343F480
S315080105D08033FB60DFF844A1DAF80C3023F040637E
S315080105E0CAF80C30DFF838B1DBF80C3023F03003E9
S315080105F0CBF80C303B6823F440733B603B6823F42B
S3150801060040633B603B6823F440333B60DAF80030D3
S3150801061023F04063CAF80030DBF8003023F03003DA
S31508010620CBF8003048F233130C9302250D954FF0A1
S315080106300308CDF838800F9410944FF00C09CDF8C3
S3150801064044900CA92D4801F072F8FF230C930D95DF
S315080106500E940F9410940E2311930CA92D4801F0B2
S3150801066066F84FF400730C930D95CDF838800F9406
S315080106701094092311930CA9204801F058F88023F6
S315080106800C930D95CDF838800F9410940A23119385
S315080106900CA9214801F04BF84CF207730C930D9500
S315080106A0CDF838800F941094CDF844900CA91A48C7
S315080106B001F03DF84FF4F8530C930D95CDF83880B9
S315080106C00F941094CDF844900CA9504601F02FF8D8
S315080106D00E230C930D960E940F9410940CA938467C
S315080106E001F025F84FF683730C930D951AE000BFB8
S315080106F00044025800200258000004080018025855
S315080107000000025801000F000100F00002000F006E
S315080107100300F00000280258000C0258000802588D
S31508010720001C0258CDF838800F941094CDF84490E7
S315080107300CA9624800F0FBFF40F60C030C930D96DA
S315080107400E940F9410940CA95D4800F0F0FF4FF633
S31508010750FF730C930D950E940F9410940E23119319
S315080107600CA9584800F0E3FF4FF480530C930D95FC
S315080107700E940F941094052311930CA9524800F076
S31508010780D6FF40F606030C930D960E940F9410941B
S315080107900CA94D4800F0CBFF4FF4C0630C930D959F
S315080107A00E940F941094072311930CA9464800F050
S315080107B0BEFF4FF63F030C930D95CDF838800F9485
S315080107C01094CDF844900CA9404800F0B0FF4FF4BE
S315080107D080730C930D950E940F94109411940CA993
S315080107E0394800F0A4FF40230C930D95CDF83880C5
S315080107F00F9410940A2311930CA9314800F097FF1E
S315080108004FF470430C930D950E940F9410940E2388
S3150801081011930CA9384600F08AFFCDF830900D9552
S315080108200E940F941094052311930CA9504600F0C9
S315080108307EFF4FF440530C930D950E940F96109628
S31508010840042311930CA9224800F071FF22230C936B
S315080108500D95CDF838800F9410940A2311930CA99D
S31508010860504600F064FFE0230C930D95CDF83880CF
S315080108700F941094CDF844900CA9584600F057FFF0
S3150801088008230C930D95CDF838800F9410940923FD
S3150801089011930CA9584600F04AFF04230C930D95B1
S315080108A0CDF838800F941094092311930CA909489F
S315080108B000F03DFF17B0BDE8F08F00BF00100258E9
S315080108C00018025800240258000002580014025861
S315080108D0000C02580004025808B50A480A4B03607E
S315080108E0092343600223C360002303610122826155
S315080108F0C36103624362C3620363436300F022FC7C
S3150801090008BD00BF600400240000044010B54C4B2C
S315080109104FF0FF32C3F8B0204A4A136823F00F0399
S3150801092043F001031360474B1B6803F00F03012BC8
S31508010930F9D1454AD36823F03F0343F00403D36052
S31508010940936943F440439361A2F58062136843F4C3
S31508010950803313603A4B1B6813F4003FFAD0384BC7
S315080109609A6A22F0030242F002029A62DA6A42F4B1
S315080109708032DA62DA6A42F40032DA62DA6A42F418
S315080109808022DA62DA6A42F00C02DA62DA6A22F064
S315080109900202DA629A6A22F47C7242F020029A62B0
S315080109A0196B2A4A0A4042F00B021A631A6B22F49F
S315080109B07E4242F400721A631A6B22F4FE0242F472
S315080109C000321A631A6B22F0FE4242F040721A6331
S315080109D01A6842F080721A60194B1B6813F0007F7F
S315080109E0FAD0174A136923F0070343F00303136187
S315080109F0134B1B6903F03803182BF9D1104CA36963
S31508010A0023F00F03A361E36923F07003E361E3694C
S31508010A1023F4E063E361A36923F07003A361236A06
S31508010A2023F0700323620A4801F0CAF8002000F097
S31508010A309BF9236923F0FE7343F40403236110BD74
S31508010A4000440258002000520048025800FEFFFFE9
S31508010A5000A24A0408B5FFF78DFC00F0ADF9FFF7CF
S31508010A6055FFFFF7ADFCFFF737FFFFF741FCFFF72F
S31508010A7047FCFCE782B0074BD3F8542142F0020247
S31508010A80C3F85421D3F8543103F002030193019BAF
S31508010A9002B0704700440258F0B58DB000230793A1
S31508010AA0089309930A930B9302684E4B9A4201D015
S31508010AB00DB0F0BD4C4C636D23F4401343F4801321
S31508010AC063654A4AD36843F08073D360D4F84031EA
S31508010AD043F00203C4F84031D4F8403103F002036D
S31508010AE00093009BD4F8403143F48073C4F8403135
S31508010AF0D4F8403103F480730193019BD4F8403153
S31508010B0043F00403C4F84031D4F8403103F0040338
S31508010B100293029BD4F8403143F08003C4F8403174
S31508010B20D4F8403103F080030393039BD4F8403192
S31508010B3043F00103C4F84031D4F8403103F001030E
S31508010B400493049B43F623430793022508950A95C4
S31508010B500A260B9607A9264800F0DEF94FF400632A
S31508010B6007930895002709970A950B9607A921481F
S31508010B7000F0D2F901230793089509970A950B9670
S31508010B8007A91D4800F0C8F9102307930895099786
S31508010B900A950B9607A9194800F0BEF92823079369
S31508010BA0089509970A950B9607A9154800F0B4F90F
S31508010BB0D4F8383143F00073C4F83831D4F83831F1
S31508010BC003F000730593059BD4F8383143F080632D
S31508010BD0C4F83831D4F8383103F080630693069B9C
S31508010BE066E700BF00000440004402580048025866
S31508010BF0000402580020025800080258001C025836
S31508010C00000002587047FEE7FEE7FEE7FEE7704779
S31508010C107047704708B500F0FDF808BD244AD2F8B8
S31508010C20883043F47003C2F88830224B1B6803F0FE
S31508010C300F03022B06D81F4A136823F00F0343F04C
S31508010C40030313601C4B1A6842F001021A60002262
S31508010C501A611968194A0A401A60164B1B6813F07B
S31508010C600C0F06D0134A136823F00F0343F003034E
S31508010C701360114B00229A61DA611A62104999626E
S31508010C801049D962104919635A639963DA63196479
S31508010C905A64196821F4802119601A660B4B43F2CC
S31508010CA0D2021A60024B4FF000629A60704700BF89
S31508010CB000ED00E000200052004402587FEDF6EAFC
S31508010CC0000202020000FF018002010100400052F9
S31508010CD0DFF864D0FFF7A2FF184819494FF0000260
S31508010CE001E040F8042B8842FBD316481649174AF7
S31508010CF003E052F8043B40F8043B8842F9D3144810
S31508010D001449154A03E052F8043B40F8043B88426B
S31508010D10F9D3D458C4500433C4188C42F9D30F4AB2
S31508010D200F4C002301E013600432A242FBD300F00A
S31508010D304DFFFFF78FFE70470000082400001808D2
S31508010D4000001808000000243C0400241C1D0108AA
S31508010D500000082400000824000008243C0400249C
S31508010D6074090024FEE70000104B1B780BB901201B
S31508010D70704710B504464FF47A70B0FBF3F30C4A8A
S31508010D801068B0FBF3F000F0B3F868B90F2C01D97D
S31508010D9001200AE0002221464FF0FF3000F072F8E8
S31508010DA0044B1C60002000E0012010BD080000244F
S31508010DB0000000240C00002410B5032000F050F8B0
S31508010DC000F072FA0F498B69C3F303230E4AD35C09
S31508010DD003F01F03D8408B6903F00F03D35C03F0BC
S31508010DE01F0320FA03F3094A1360094B1860002010
S31508010DF0FFF7BAFF10B10124204610BD0446FFF7DC
S31508010E0039FEF9E700440258FC1C010804000024D5
S31508010E1000000024034B1B78034A11680B44136036
S31508010E20704700BF080000246C090024014B1868AC
S31508010E30704700BF6C09002438B50446FFF7F6FF72
S31508010E400546B4F1FF3F02D0044B1B781C44FFF75B
S31508010E50EDFF401BA042FAD338BD00BF08000024AD
S31508010E600649CB6823F4E0631B041B0C000200F45B
S31508010E70E0600343024A1A43CA60704700ED00E086
S31508010E800000FA0500B5174BDB68C3F30223C3F16B
S31508010E90070CBCF1040F28BF4FF0040C03F1040E34
S31508010EA0BEF1060F14D9033B4FF0FF3E0EFA0CFCB8
S31508010EB021EA0C0199400EFA03F322EA03031943C6
S31508010EC0002807DB0901C9B2074B19545DF804FB71
S31508010ED00023E9E700F00F000901C9B2034B1954D1
S31508010EE0F4E700BF00ED00E000E400E014ED00E0E7
S31508010EF00138B0F1807F0BD24FF0E0235861054AE3
S31508010F00F02182F823100020986107221A617047A0
S31508010F100120704700ED00E0F0B583B000236BE0D7
S31508010F2085685E000324B44025EA0405CC68B4400C
S31508010F302C438460446824EA0C0C4C68C4F30014FE
S31508010F409C4044EA0C04446068E0DD08083550F822
S31508010F50256003F007044FEA840C0F2404FA0CF405
S31508010F6026EA040E0C6904FA0CF444EA0E0440F865
S31508010F7025406BE0092400E0002404FA0EF42C4312
S31508010F800CF1020C694D45F82C404FF0B044256828
S31508010F90D44325EA02064F6817F4801F01D042EAB6
S31508010FA005064FF0B0452E606D6804EA05064F68E0
S31508010FB017F4001F01D042EA05064FF0B0456E60EE
S31508010FC0D5F8845004EA05064F6817F4003F01D0A6
S31508010FD042EA05064FF0B045C5F88460D5F8805059
S31508010FE02C404E6816F4803F01D042EA05044FF0C2
S31508010FF0B042C2F8804001330A6832FA03F400F0BD
S3150801100092804FF0010C0CFA03FC1CEA0202F2D0A2
S315080110104C6804F00304013C012C81D94C6804F0A6
S315080110200304032C0CD0C4685D004FF0030C0CFAC2
S3150801103005FC24EA0C0C8C68AC4044EA0C04C46038
S315080110404C6804F00304022C3FF47FAF04684FEAAE
S31508011050430E4FF0030C0CFA0EFC24EA0C0C4C68F8
S3150801106004F0030404FA0EF444EA0C0404604C6820
S3150801107014F4403FBFD02E4CD4F8545145F0020524
S31508011080C4F85451D4F8544104F002040194019C63
S315080110904FEA930C0CF10205244C54F8255003F041
S315080110A003044FEA840E0F2404FA0EF425EA040514
S315080110B0204CA0423FF460AF04F58064A04222D0E0
S315080110C004F58064A04220D004F58064A0421ED0B5
S315080110D004F58064A0421CD004F58064A0421AD0AD
S315080110E004F58064A04218D004F58064A04216D0A5
S315080110F004F58064A04214D004F58064A0423FF44C
S3150801110039AF0A2439E7012437E7022435E70324EE
S3150801111033E7042431E705242FE706242DE70724BE
S315080111202BE7082429E703B0F0BD00BF00040058E7
S3150801113000440258000002580AB181617047090447
S315080111408161704770B58AB0002800F0978005461E
S31508011150046890F8BD343BB3032385F8BD34E36BCB
S3150801116013F4807F01D100232B61286800F0C4FBAA
S315080111702C4654F8106BEC460FCCACE80F000FCC9C
S31508011180ACE80F0094E803008CE803002B1D0ECB96
S31508011190304600F063FB044658B1022385F8BD3496
S315080111A0012420460AB070BD80F8BC34FFF774FCF0
S315080111B0D2E70021286800F0D1FC234616E003EBAC
S315080111C0C30205EB8202012182F83D1082F83C3008
S315080111D0A2F84430002182F840109164D16403EBEF
S315080111E0C30205EB820251650133DBB269688B42A2
S315080111F0E5D316E004EBC40305EB8303002283F869
S315080112007D2283F87C4283F88022C3F88822C3F8BA
S315080112108C2204EBC40305EB8303C3F8942201343F
S31508011220E4B2A142E6D82C4654F8106BEC460FCC32
S31508011230ACE80F000FCCACE80F0094E803008CE88B
S3150801124003002B1D0ECB304600F0B2FB044660B9F5
S31508011250002385F83830012385F8BD346B6A012BE4
S3150801126008D0286800F068FC9BE7022385F8BD349E
S31508011270012496E7284600F003F8F2E7012490E7EF
S31508011280034602680121C0F80015002083F8F4041A
S31508011290936943F000639361516D024B0B435365A8
S315080112A0704700BF03000010744B1B6903F0380335
S315080112B0102B00F0DE80182B10D00BB17048704748
S315080112C06E4B1B6813F0200F00F0D5806B4B186826
S315080112D0C0F3C1006B4B23FA00F0704710B4674A9C
S315080112E0916A01F00301946AC4F30510D36A03F005
S315080112F0010C536BC3F3CC030CFB03F307EE903AD3
S31508011300F8EE677A14F47C7F00F09380012965D0A2
S31508011310022900F09180E1B107EE100AF8EE476A5A
S315080113209FED596A86EE267A544B1B6BC3F3080365
S3150801133006EE903AF8EE666A9FED546A67EE867A8B
S3150801134076EEA77AF7EE006A77EEA67A27EE277A7F
S3150801135060E0136813F0200F23D011461268C2F318
S31508011360C102484BD34007EE103AF8EE476A07EE3A
S31508011370100AB8EE476A86EE867A0B6BC3F3080342
S3150801138006EE903AF8EE666A9FED406A67EE867A4F
S3150801139076EEA77AF7EE006A77EEA67A27EE277A2F
S315080113A038E007EE100AF8EE476A9FED396A86EECD
S315080113B0267A324B1B6BC3F3080306EE903AF8EE16
S315080113C0666A9FED326A67EE867A76EEA77AF7EE57
S315080113D0006A77EEA67A27EE277A1BE007EE100A4F
S315080113E0F8EE476A9FED286A86EE267A234B1B6B31
S315080113F0C3F3080306EE903AF8EE666A9FED236A90
S3150801140067EE867A76EEA77AF7EE006A77EEA67A1F
S3150801141027EE277A194B1B6BC3F34623013307EED5
S31508011420903AF8EE677AC7EE276AFCEEE67A17EE87
S31508011430900A5DF8044B704707EE100AF8EE476A02
S315080114409FED146A86EE267A0C4B1B6BC3F30803D1
S3150801145006EE903AF8EE666A9FED0C6A67EE867AB2
S3150801146076EEA77AF7EE006A77EEA67A27EE277A5E
S31508011470D0E7094870470348704700BF004402583F
S3150801148000093D000090D0030024744A0000003989
S315080114900024744C001BB74B00366E0110B403468A
S315080114A0007B002800F014811A68002A5AD0597B5B
S315080114B011F0010F1DD04FF0B041D1F88000024361
S315080114C0C1F880205A7B12F0020F1BD01A684FF020
S315080114D0B041D1F884000243C1F88420987B0028E2
S315080114E041D0022825D0032830D0012814D0012064
S315080114F039E04FF0B040D0F8801021EA0202C0F876
S315080115008020DFE718684FF0B041D1F8842022EA3D
S315080115100002C1F88420E1E718684FF0B04251682B
S3150801152021EA000151601968106801431160002021
S3150801153019E018684FF0B042116821EA00011160FC
S31508011540196850680143516000200CE019684FF092
S31508011550B04210680143116019685068014351602F
S31508011560002000E000205A68FAB1597B11F0010FFA
S3150801157042D04FF0B041D1F890402243C1F89020B3
S315080115805A7B12F0020F40D05A684FF0B041D1F899
S3150801159094402243C1F894209A7B32B1022A4AD058
S315080115A0032A54D0012A3AD001209A68002A00F069
S315080115B0BB80597B11F0010F54D04FF0B041D1F8DF
S315080115C0A0402243C1F8A0205A7B12F0020F52D044
S315080115D09A684FF0B041D1F8A4402243C1F8A4203B
S315080115E09A7B002A00F0A080022A5AD0032A64D0E6
S315080115F0012A4AD0012097E04FF0B04CDCF8901050
S3150801160021EA0202CCF89020BAE75C684FF0B041B3
S31508011610D1F8942022EA0402C1F89420BCE75C6858
S315080116204FF0B042516A21EA040151625968146ABD
S3150801163021431162B9E75C684FF0B042116A21EAA9
S31508011640040111625968546A21435162ADE7596828
S315080116504FF0B042146A214311625968546A214312
S315080116605162A2E74FF0B04CDCF8A01021EA020261
S31508011670CCF8A020A8E74FF0B041D1F8A4209C6887
S3150801168022EA0402C1F8A420AAE79C684FF0B042F6
S31508011690516C21EA040151649B68116C0B43136474
S315080116A042E09C684FF0B042116C21EA04011164D2
S315080116B09B68516C0B43536436E099684FF0B0420E
S315080116C0146C214311649B68516C0B4353642BE0E2
S315080116D04FF0B042D2F880101C6821EA0401C2F822
S315080116E08010D2F890105C6821EA0401C2F89010C3
S315080116F0D2F8A0109C6821EA0401C2F8A010D2F819
S3150801170084101C6821EA0401C2F88410D2F89410E6
S315080117105C6821EA0401C2F894109968D2F8A430E9
S3150801172023EA0103C2F8A4305DF8044B704770B58B
S315080117300A6892FAA2F212B1B2FA82F21BE02022E8
S3150801174019E0C46803FB03FE0EEB4E056FEA050CB0
S3150801175024EA05040D690EFB05F52C43C4604C68A3
S31508011760022C2DD04C6803680CEA03030EFB04F423
S315080117702343036001320B6833FA02F443D04FF076
S31508011780010C0CFA02FC1CEA0303F3D04C68013C79
S31508011790012CD6D88D68846803FB03FC0CEB4C0638
S315080117A024EA06040CFB05F52C4384600D68CE6813
S315080117B0446824EA050406FB05F52C434460C0E7A2
S315080117C0FF2B0ED84D69046A0EFB03F606FB03F3DD
S315080117D0C3EB031624EA060405FB03F3234303625A
S315080117E0C0E74C69456A1B0A03FB03F603FB06F6C9
S315080117F006FB03F3C3EB031625EA060504FB03F30D
S315080118002B434362AEE7002070BD000082B000237F
S315080118100193019B01330193019A0F4B9A4215D803
S315080118200369002BF5DA00230193036943F00103E9
S315080118300361019B01330193019A074B9A4208D828
S31508011840036913F0010FF4D1002000E0032002B070
S3150801185070470320FBE700BF400D030084B010B5B5
S31508011860044603A880E80E00089B012B1DD1A36B33
S3150801187023F48033A363E2681D4B1340E360E368F6
S3150801188023F44013E3600F9B012B09D02046FFF791
S31508011890BDFF069B012B1BD0BDE8104004B0704765
S315080118A0E36843F48013E360F0E7E36843F0400339
S315080118B0E3602046FFF7AAFF0C9B23B9A36B43F409
S315080118C08033A363E5E7A36B23F48033A363E0E7DF
S315080118D0E36D9BB2E365E26D064B1343E365A368CB
S315080118E043F00603A360A36843F02003A360D3E78C
S315080118F0BFFFBDFF0000EE03836823F00103836089
S315080119000020704782B000230193019B01330193A4
S31508011910019A0F4B9A4215D80369002BF5DA002371
S315080119200193890141F020010161019B0133019372
S31508011930019A074B9A4208D8036913F0200FF4D18C
S31508011940002000E0032002B070470320FBE700BF38
S31508011950400D030082B000230193019B01330193DB
S31508011960019A0E4B9A4213D80369002BF5DA002324
S31508011970019310230361019B01330193019A074BDC
S315080119809A4208D8036913F0100FF4D1002000E039
S31508011990032002B070470320FBE700BF400D030098
S315080119A0D0F800381943C0F8001800207047000025
S315080119B084B02DE9F041044607A880E80E0000230B
S315080119C006E003F1400204EB820200215160013373
S315080119D00E2BF6D9119F27BBD4F8043843F002031E
S315080119E0C4F80438A36B23F40013A363236843F0F4
S315080119F040032360236843F0800323600023C4F86F
S31508011A00003E04F50065D4F80038C4F800380C9B8C
S31508011A10012B10D1099B4BB900212046FFF7C0FFC6
S31508011A200DE0A36B43F40013A363E7E70121204606
S31508011A30FFF7B6FF03E003212046FFF7B1FF1021A8
S31508011A402046FFF75FFF804608B14FF001082046A0
S31508011A50FFF780FF08B14FF0010800232B616B6186
S31508011A60EB610AE0C3B94FF00060C2F80009002231
S31508011A700A614FF67F328A6001330799994210D974
S31508011A8004EB431202F51061D2F800090028E9DBDC
S31508011A900020C2F80009EAE74FF09040C2F80009B1
S31508011AA0E5E700230AE0C3B14FF0904CC2F800CB3A
S31508011AB0002202614FF67F3282600133994211D9C1
S31508011AC004EB431202F53060D2F8006B002EEADB14
S31508011AD04FF0000CC2F800CBEAE74FF0006CC2F8F1
S31508011AE000CBE5E72B6923F480732B610023A361FF
S31508011AF06FF0804363610A9B1BB9A36943F0100326
S31508011B00A361A2690A4B1343A3610D9B1BB1A36988
S31508011B1043F00803A361012F04D04046BDE8F04114
S31508011B2004B07047A269034B1343A361F5E700BFED
S31508011B3000383C8004000040D0F8003E23F003033F
S31508011B40C0F8003ED0F8043843F00203C0F8043860
S31508011B5000207047406900F00100704738B5054616
S31508011B60C36823F0C043C360012913D019BBC368F6
S31508011B7043F08043C36000240120FFF75DF9013477
S31508011B802846FFF7E7FF08B1312CF5D9322C14D0D6
S31508011B90002038BDC36843F00053C3600024012008
S31508011BA0FFF74AF901342846FFF7D4FF0128EDD09B
S31508011BB0312CF4D9EAE70120EBE70120E9E7000037
S31508011BC0014B1860704700BF0000002470B50D4D29
S31508011BD00D4C641BA4100026A64209D10B4D0C4CD2
S31508011BE000F080F8641BA4100026A64205D170BD3A
S31508011BF055F8043B98470136EEE755F8043B9847F4
S31508011C000136F2E7101D0108101D0108101D010813
S31508011C10181D0108024B13B1024800F005B87047B8
S31508011C2000000000351C0108002301461A46184623
S31508011C3000F016B838B5074D074C641BA4101CB93B
S31508011C40BDE8384000F054B8013C55F824309847AF
S31508011C50F5E700BF181D01081C1D010870477047EC
S31508011C602DE9F047DFF878A00646DAF8000098462D
S31508011C700F469146FFF7F2FF184B1B68D3F8484108
S31508011C801CB903F5A674C3F848416568DAF800007B
S31508011C901F2D05DDFFF7E3FF4FF0FF30BDE8F087A5
S31508011CA09EB104EB85010122C1F88890D4F88831E8
S31508011CB0AA401343C4F88831022EC1F8088102BF2D
S31508011CC0D4F88C311343C4F88C316B1C023563602C
S31508011CD044F82570FFF7C3FF0020DFE70C1D010854
S31508011CE038040024F8B500BFF8BC08BC9E46704706
S31108011CF0F8B500BFF8BC08BC9E4670475A
S31508011CFC0000000001020304010203040607080997
S30908011D0C1000002490
S30D08011D10151C0108D5020108A2
S30908011D18B1020108FC
S31508011D1C0090D0030090D0030100000010000000D1
S31508011D2C00000000FC02002464030024CC030024F8
S31508011D3C0000000000000000000000000000000088
S31508011D4C0000000000000000000000000000000078
S31508011D5C0000000000000000000000000000000068
S31508011D6C0000000000000000000000000000000058
S31508011D7C0000000000000000000000000000000048
S31508011D8C0000000000000000000000000000000038
S31508011D9C0000000000000000000000000000000028
S31508011DAC0000000000000000000000000000000018
S31508011DBC0000000000000000000000000000000008
S31508011DCC00000000000000000100000000000000F7
S31508011DDC0E33CDAB34126DE6ECDE05000B000000BC
S31508011DEC00000000000000000000000000000000D8
S31508011DFC00000000000000000000000000000000C8
S31508011E0C00000000000000000000000000000000B7
S31508011E1C00000000000000000000000000000000A7
S3110801214C000000000000000070090024DB
S70508010CD114
